{"contracts/FundTracker.sol":{"FundTracker":{"abi":[{"anonymous":false,"inputs":[{"indexed":true,"internalType":"uint256","name":"milestoneId","type":"uint256"},{"indexed":false,"internalType":"address","name":"contractor","type":"address"},{"indexed":false,"internalType":"uint256","name":"amount","type":"uint256"}],"name":"AutomaticFundRelease","type":"event"},{"anonymous":false,"inputs":[{"indexed":false,"internalType":"address","name":"contractor","type":"address"},{"indexed":false,"internalType":"bool","name":"eligible","type":"bool"}],"name":"ContractorEligibilityUpdated","type":"event"},{"anonymous":false,"inputs":[{"indexed":true,"internalType":"address","name":"contractor","type":"address"},{"indexed":true,"internalType":"uint256","name":"blockchainId","type":"uint256"},{"indexed":false,"internalType":"string","name":"name","type":"string"}],"name":"ContractorRegistered","type":"event"},{"anonymous":false,"inputs":[{"indexed":true,"internalType":"uint256","name":"expenditureId","type":"uint256"},{"indexed":true,"internalType":"uint256","name":"projectId","type":"uint256"},{"indexed":false,"internalType":"uint256","name":"amount","type":"uint256"},{"indexed":false,"internalType":"address","name":"recipient","type":"address"}],"name":"ExpenditureRecorded","type":"event"},{"anonymous":false,"inputs":[{"indexed":true,"internalType":"uint256","name":"projectId","type":"uint256"},{"indexed":false,"internalType":"uint256","name":"amount","type":"uint256"}],"name":"FundsAllocated","type":"event"},{"anonymous":false,"inputs":[{"indexed":true,"internalType":"uint256","name":"projectId","type":"uint256"},{"indexed":false,"internalType":"uint256","name":"amount","type":"uint256"}],"name":"FundsLocked","type":"event"},{"anonymous":false,"inputs":[{"indexed":true,"internalType":"uint256","name":"projectId","type":"uint256"},{"indexed":false,"internalType":"address","name":"contractor","type":"address"},{"indexed":false,"internalType":"uint256","name":"amount","type":"uint256"},{"indexed":false,"internalType":"uint8","name":"milestone","type":"uint8"}],"name":"FundsReleased","type":"event"},{"anonymous":false,"inputs":[{"indexed":true,"internalType":"uint256","name":"milestoneId","type":"uint256"},{"indexed":false,"internalType":"bool","name":"verified","type":"bool"},{"indexed":false,"internalType":"uint256","name":"distance","type":"uint256"}],"name":"GPSVerified","type":"event"},{"anonymous":false,"inputs":[{"indexed":true,"internalType":"uint256","name":"milestoneId","type":"uint256"},{"indexed":false,"internalType":"uint256","name":"amountReleased","type":"uint256"}],"name":"MilestoneApproved","type":"event"},{"anonymous":false,"inputs":[{"indexed":true,"internalType":"uint256","name":"milestoneId","type":"uint256"},{"indexed":true,"internalType":"uint256","name":"projectId","type":"uint256"},{"indexed":false,"internalType":"uint8","name":"percentage","type":"uint8"},{"indexed":false,"internalType":"uint256","name":"targetAmount","type":"uint256"}],"name":"MilestoneCreated","type":"event"},{"anonymous":false,"inputs":[{"indexed":true,"internalType":"uint256","name":"milestoneId","type":"uint256"},{"indexed":false,"internalType":"string","name":"ipfsHash","type":"string"},{"indexed":false,"internalType":"string","name":"gpsCoords","type":"string"},{"indexed":false,"internalType":"int256","name":"lat","type":"int256"},{"indexed":false,"internalType":"int256","name":"lon","type":"int256"}],"name":"MilestoneProofSubmitted","type":"event"},{"anonymous":false,"inputs":[{"indexed":true,"internalType":"uint256","name":"milestoneId","type":"uint256"},{"indexed":false,"internalType":"string","name":"reason","type":"string"}],"name":"MilestoneRejected","type":"event"},{"anonymous":false,"inputs":[{"indexed":true,"internalType":"uint256","name":"milestoneId","type":"uint256"},{"indexed":true,"internalType":"uint256","name":"tenderId","type":"uint256"},{"indexed":false,"internalType":"uint8","name":"percentage","type":"uint8"}],"name":"MilestoneSubmitted","type":"event"},{"anonymous":false,"inputs":[{"indexed":true,"internalType":"uint256","name":"milestoneId","type":"uint256"},{"indexed":false,"internalType":"bool","name":"gpsVerified","type":"bool"},{"indexed":false,"internalType":"bool","name":"proofVerified","type":"bool"}],"name":"MilestoneVerified","type":"event"},{"anonymous":false,"inputs":[{"indexed":true,"internalType":"uint256","name":"projectId","type":"uint256"},{"indexed":false,"internalType":"string","name":"name","type":"string"},{"indexed":false,"internalType":"uint256","name":"budget","type":"uint256"},{"indexed":false,"internalType":"address","name":"admin","type":"address"},{"indexed":false,"internalType":"uint256","name":"timestamp","type":"uint256"}],"name":"ProjectCreated","type":"event"},{"anonymous":false,"inputs":[{"indexed":true,"internalType":"uint256","name":"tenderId","type":"uint256"},{"indexed":false,"internalType":"address","name":"contractor","type":"address"},{"indexed":false,"internalType":"string","name":"reportIPFS","type":"string"}],"name":"QualityReportSubmitted","type":"event"},{"anonymous":false,"inputs":[{"indexed":true,"internalType":"uint256","name":"tenderId","type":"uint256"},{"indexed":false,"internalType":"address","name":"revealedContractor","type":"address"}],"name":"TenderApproved","type":"event"},{"anonymous":false,"inputs":[{"indexed":true,"internalType":"uint256","name":"tenderId","type":"uint256"},{"indexed":false,"internalType":"string","name":"reason","type":"string"}],"name":"TenderRejected","type":"event"},{"anonymous":false,"inputs":[{"indexed":true,"internalType":"uint256","name":"tenderId","type":"uint256"},{"indexed":true,"internalType":"uint256","name":"projectId","type":"uint256"},{"indexed":false,"internalType":"bytes32","name":"contractorCommitment","type":"bytes32"}],"name":"TenderSubmitted","type":"event"},{"inputs":[{"internalType":"uint256","name":"_projectId","type":"uint256"}],"name":"allocateFunds","outputs":[],"stateMutability":"payable","type":"function"},{"inputs":[{"internalType":"uint256","name":"_tenderId","type":"uint256"},{"internalType":"address","name":"_revealedContractor","type":"address"},{"internalType":"bytes32","name":"_nonce","type":"bytes32"}],"name":"approveTender","outputs":[],"stateMutability":"nonpayable","type":"function"},{"inputs":[{"internalType":"uint256","name":"_projectId","type":"uint256"},{"internalType":"int256","name":"_lat2","type":"int256"},{"internalType":"int256","name":"_lon2","type":"int256"}],"name":"calculateDistance","outputs":[{"internalType":"uint256","name":"","type":"uint256"}],"stateMutability":"view","type":"function"},{"inputs":[{"internalType":"address","name":"","type":"address"}],"name":"contractorEligible","outputs":[{"internalType":"bool","name":"","type":"bool"}],"stateMutability":"view","type":"function"},{"inputs":[],"name":"contractorIdCounter","outputs":[{"internalType":"uint256","name":"","type":"uint256"}],"stateMutability":"view","type":"function"},{"inputs":[{"internalType":"uint256","name":"","type":"uint256"}],"name":"contractorIdToAddress","outputs":[{"internalType":"address","name":"","type":"address"}],"stateMutability":"view","type":"function"},{"inputs":[{"internalType":"address","name":"","type":"address"}],"name":"contractorPendingQualityReports","outputs":[{"internalType":"uint256","name":"","type":"uint256"}],"stateMutability":"view","type":"function"},{"inputs":[{"internalType":"address","name":"","type":"address"}],"name":"contractorProfiles","outputs":[{"internalType":"address","name":"walletAddress","type":"address"},{"internalType":"uint256","name":"blockchainId","type":"uint256"},{"internalType":"string","name":"name","type":"string"},{"internalType":"bool","name":"isRegistered","type":"bool"},{"internalType":"uint256","name":"registeredAt","type":"uint256"},{"internalType":"uint256","name":"projectsCompleted","type":"uint256"},{"internalType":"uint256","name":"totalEarned","type":"uint256"}],"stateMutability":"view","type":"function"},{"inputs":[{"internalType":"string","name":"_name","type":"string"},{"internalType":"uint256","name":"_budget","type":"uint256"},{"internalType":"bytes32","name":"_supervisorCommitment","type":"bytes32"},{"internalType":"string","name":"_location","type":"string"},{"internalType":"string","name":"_state","type":"string"},{"internalType":"string","name":"_district","type":"string"},{"internalType":"string","name":"_city","type":"string"},{"internalType":"string","name":"_pincode","type":"string"},{"internalType":"int256","name":"_centerLatitude","type":"int256"},{"internalType":"int256","name":"_centerLongitude","type":"int256"},{"internalType":"string","name":"_milestone1Task","type":"string"},{"internalType":"string","name":"_milestone2Task","type":"string"},{"internalType":"string","name":"_milestone3Task","type":"string"},{"internalType":"string","name":"_milestone4Task","type":"string"},{"internalType":"string","name":"_milestone5Task","type":"string"}],"name":"createProject","outputs":[{"internalType":"uint256","name":"","type":"uint256"}],"stateMutability":"nonpayable","type":"function"},{"inputs":[],"name":"expenditureCount","outputs":[{"internalType":"uint256","name":"","type":"uint256"}],"stateMutability":"view","type":"function"},{"inputs":[{"internalType":"uint256","name":"","type":"uint256"}],"name":"expenditures","outputs":[{"internalType":"uint256","name":"id","type":"uint256"},{"internalType":"uint256","name":"projectId","type":"uint256"},{"internalType":"uint256","name":"milestoneId","type":"uint256"},{"internalType":"uint256","name":"amount","type":"uint256"},{"internalType":"string","name":"description","type":"string"},{"internalType":"address","name":"recipient","type":"address"},{"internalType":"uint256","name":"timestamp","type":"uint256"}],"stateMutability":"view","type":"function"},{"inputs":[{"internalType":"uint256","name":"_blockchainId","type":"uint256"}],"name":"getContractorByBlockchainId","outputs":[{"internalType":"address","name":"","type":"address"}],"stateMutability":"view","type":"function"},{"inputs":[{"internalType":"address","name":"_contractor","type":"address"}],"name":"getContractorProfile","outputs":[{"components":[{"internalType":"address","name":"walletAddress","type":"address"},{"internalType":"uint256","name":"blockchainId","type":"uint256"},{"internalType":"string","name":"name","type":"string"},{"internalType":"bool","name":"isRegistered","type":"bool"},{"internalType":"uint256","name":"registeredAt","type":"uint256"},{"internalType":"uint256","name":"projectsCompleted","type":"uint256"},{"internalType":"uint256","name":"totalEarned","type":"uint256"}],"internalType":"struct FundTracker.ContractorProfile","name":"","type":"tuple"}],"stateMutability":"view","type":"function"},{"inputs":[{"internalType":"uint256","name":"_milestoneId","type":"uint256"}],"name":"getMilestone","outputs":[{"internalType":"uint256","name":"id","type":"uint256"},{"internalType":"uint256","name":"projectId","type":"uint256"},{"internalType":"uint256","name":"tenderId","type":"uint256"},{"internalType":"uint8","name":"percentageComplete","type":"uint8"},{"internalType":"uint256","name":"targetAmount","type":"uint256"},{"internalType":"uint256","name":"spentAmount","type":"uint256"},{"internalType":"enum FundTracker.MilestoneStatus","name":"status","type":"uint8"},{"internalType":"uint256","name":"submittedAt","type":"uint256"},{"internalType":"uint256","name":"approvedAt","type":"uint256"}],"stateMutability":"view","type":"function"},{"inputs":[{"internalType":"uint256","name":"_milestoneId","type":"uint256"}],"name":"getMilestoneDocuments","outputs":[{"internalType":"string","name":"proofImagesIPFS","type":"string"},{"internalType":"string","name":"gpsCoordinates","type":"string"},{"internalType":"string","name":"architectureDocsIPFS","type":"string"},{"internalType":"bytes32","name":"qualityHash","type":"bytes32"},{"internalType":"string","name":"rejectionReason","type":"string"}],"stateMutability":"view","type":"function"},{"inputs":[{"internalType":"uint256","name":"_projectId","type":"uint256"}],"name":"getProject","outputs":[{"components":[{"internalType":"uint256","name":"id","type":"uint256"},{"internalType":"string","name":"name","type":"string"},{"internalType":"uint256","name":"budget","type":"uint256"},{"internalType":"uint256","name":"allocatedFunds","type":"uint256"},{"internalType":"uint256","name":"spentFunds","type":"uint256"},{"internalType":"address","name":"admin","type":"address"},{"internalType":"bytes32","name":"supervisorCommitment","type":"bytes32"},{"internalType":"enum FundTracker.ProjectStatus","name":"status","type":"uint8"},{"internalType":"string","name":"location","type":"string"},{"internalType":"string","name":"state","type":"string"},{"internalType":"string","name":"district","type":"string"},{"internalType":"string","name":"city","type":"string"},{"internalType":"string","name":"pincode","type":"string"},{"internalType":"int256","name":"centerLatitude","type":"int256"},{"internalType":"int256","name":"centerLongitude","type":"int256"},{"internalType":"uint256","name":"gpsRadiusMeters","type":"uint256"},{"internalType":"uint256","name":"createdAt","type":"uint256"},{"internalType":"bool","name":"exists","type":"bool"},{"internalType":"string","name":"milestone1Task","type":"string"},{"internalType":"string","name":"milestone2Task","type":"string"},{"internalType":"string","name":"milestone3Task","type":"string"},{"internalType":"string","name":"milestone4Task","type":"string"},{"internalType":"string","name":"milestone5Task","type":"string"}],"internalType":"struct FundTracker.Project","name":"","type":"tuple"}],"stateMutability":"view","type":"function"},{"inputs":[{"internalType":"uint256","name":"_projectId","type":"uint256"}],"name":"getProjectDetails","outputs":[{"internalType":"string","name":"name","type":"string"},{"internalType":"uint256","name":"budget","type":"uint256"},{"internalType":"uint256","name":"allocatedFunds","type":"uint256"},{"internalType":"uint256","name":"spentFunds","type":"uint256"},{"internalType":"address","name":"admin","type":"address"},{"internalType":"enum FundTracker.ProjectStatus","name":"status","type":"uint8"},{"internalType":"string","name":"location","type":"string"},{"internalType":"string","name":"state","type":"string"},{"internalType":"string","name":"district","type":"string"},{"internalType":"string","name":"city","type":"string"},{"internalType":"string","name":"pincode","type":"string"},{"internalType":"int256","name":"centerLatitude","type":"int256"},{"internalType":"int256","name":"centerLongitude","type":"int256"}],"stateMutability":"view","type":"function"},{"inputs":[{"internalType":"uint256","name":"_projectId","type":"uint256"}],"name":"getProjectExpenditures","outputs":[{"internalType":"uint256[]","name":"","type":"uint256[]"}],"stateMutability":"view","type":"function"},{"inputs":[{"internalType":"uint256","name":"_projectId","type":"uint256"}],"name":"getProjectLocation","outputs":[{"internalType":"string","name":"location","type":"string"},{"internalType":"string","name":"state","type":"string"},{"internalType":"string","name":"district","type":"string"},{"internalType":"string","name":"city","type":"string"},{"internalType":"string","name":"pincode","type":"string"}],"stateMutability":"view","type":"function"},{"inputs":[{"internalType":"uint256","name":"_projectId","type":"uint256"}],"name":"getProjectMilestoneTasks","outputs":[{"internalType":"string","name":"task1","type":"string"},{"internalType":"string","name":"task2","type":"string"},{"internalType":"string","name":"task3","type":"string"},{"internalType":"string","name":"task4","type":"string"},{"internalType":"string","name":"task5","type":"string"}],"stateMutability":"view","type":"function"},{"inputs":[{"internalType":"uint256","name":"_projectId","type":"uint256"}],"name":"getProjectMilestones","outputs":[{"internalType":"uint256[]","name":"","type":"uint256[]"}],"stateMutability":"view","type":"function"},{"inputs":[{"internalType":"uint256","name":"_projectId","type":"uint256"}],"name":"getProjectTenders","outputs":[{"internalType":"uint256[]","name":"","type":"uint256[]"}],"stateMutability":"view","type":"function"},{"inputs":[{"internalType":"uint256","name":"_tenderId","type":"uint256"}],"name":"getQualityReportStatus","outputs":[{"internalType":"bool","name":"submitted","type":"bool"},{"internalType":"string","name":"reportIPFS","type":"string"},{"internalType":"uint256","name":"submittedAt","type":"uint256"}],"stateMutability":"view","type":"function"},{"inputs":[{"internalType":"uint256","name":"_tenderId","type":"uint256"}],"name":"getTender","outputs":[{"components":[{"internalType":"uint256","name":"id","type":"uint256"},{"internalType":"uint256","name":"projectId","type":"uint256"},{"internalType":"bytes32","name":"contractorCommitment","type":"bytes32"},{"internalType":"string","name":"encryptedContractorDataIPFS","type":"string"},{"internalType":"string","name":"tenderDocumentIPFS","type":"string"},{"internalType":"string","name":"qualityReportIPFS","type":"string"},{"internalType":"enum FundTracker.TenderStatus","name":"status","type":"uint8"},{"internalType":"uint256","name":"submittedAt","type":"uint256"},{"internalType":"bool","name":"finalQualityReportSubmitted","type":"bool"},{"internalType":"string","name":"finalQualityReportIPFS","type":"string"},{"internalType":"uint256","name":"qualityReportSubmittedAt","type":"uint256"}],"internalType":"struct FundTracker.Tender","name":"","type":"tuple"}],"stateMutability":"view","type":"function"},{"inputs":[{"internalType":"uint256","name":"_tenderId","type":"uint256"}],"name":"getTenderDetails","outputs":[{"internalType":"string","name":"tenderDoc","type":"string"},{"internalType":"string","name":"qualityReport","type":"string"},{"internalType":"enum FundTracker.TenderStatus","name":"status","type":"uint8"},{"internalType":"address","name":"contractor","type":"address"}],"stateMutability":"view","type":"function"},{"inputs":[{"internalType":"address","name":"_contractor","type":"address"}],"name":"isContractorEligible","outputs":[{"internalType":"bool","name":"","type":"bool"},{"internalType":"uint256","name":"","type":"uint256"}],"stateMutability":"view","type":"function"},{"inputs":[],"name":"milestoneCount","outputs":[{"internalType":"uint256","name":"","type":"uint256"}],"stateMutability":"view","type":"function"},{"inputs":[{"internalType":"uint256","name":"","type":"uint256"}],"name":"milestones","outputs":[{"internalType":"uint256","name":"id","type":"uint256"},{"internalType":"uint256","name":"projectId","type":"uint256"},{"internalType":"uint256","name":"tenderId","type":"uint256"},{"internalType":"uint8","name":"percentageComplete","type":"uint8"},{"internalType":"string","name":"taskDescription","type":"string"},{"internalType":"string","name":"completionProof","type":"string"},{"internalType":"string","name":"proofImagesIPFS","type":"string"},{"internalType":"string","name":"gpsCoordinates","type":"string"},{"internalType":"int256","name":"latitude","type":"int256"},{"internalType":"int256","name":"longitude","type":"int256"},{"internalType":"bool","name":"gpsVerified","type":"bool"},{"internalType":"string","name":"architectureDocsIPFS","type":"string"},{"internalType":"bytes32","name":"qualityHash","type":"bytes32"},{"internalType":"uint256","name":"targetAmount","type":"uint256"},{"internalType":"uint256","name":"spentAmount","type":"uint256"},{"internalType":"enum FundTracker.MilestoneStatus","name":"status","type":"uint8"},{"internalType":"uint256","name":"submittedAt","type":"uint256"},{"internalType":"uint256","name":"approvedAt","type":"uint256"},{"internalType":"string","name":"rejectionReason","type":"string"},{"internalType":"bool","name":"exists","type":"bool"}],"stateMutability":"view","type":"function"},{"inputs":[],"name":"projectCount","outputs":[{"internalType":"uint256","name":"","type":"uint256"}],"stateMutability":"view","type":"function"},{"inputs":[{"internalType":"uint256","name":"","type":"uint256"},{"internalType":"uint256","name":"","type":"uint256"}],"name":"projectExpenditures","outputs":[{"internalType":"uint256","name":"","type":"uint256"}],"stateMutability":"view","type":"function"},{"inputs":[{"internalType":"uint256","name":"","type":"uint256"},{"internalType":"uint256","name":"","type":"uint256"}],"name":"projectMilestones","outputs":[{"internalType":"uint256","name":"","type":"uint256"}],"stateMutability":"view","type":"function"},{"inputs":[{"internalType":"uint256","name":"","type":"uint256"},{"internalType":"uint256","name":"","type":"uint256"}],"name":"projectTenders","outputs":[{"internalType":"uint256","name":"","type":"uint256"}],"stateMutability":"view","type":"function"},{"inputs":[{"internalType":"uint256","name":"","type":"uint256"}],"name":"projects","outputs":[{"internalType":"uint256","name":"id","type":"uint256"},{"internalType":"string","name":"name","type":"string"},{"internalType":"uint256","name":"budget","type":"uint256"},{"internalType":"uint256","name":"allocatedFunds","type":"uint256"},{"internalType":"uint256","name":"spentFunds","type":"uint256"},{"internalType":"address","name":"admin","type":"address"},{"internalType":"bytes32","name":"supervisorCommitment","type":"bytes32"},{"internalType":"enum FundTracker.ProjectStatus","name":"status","type":"uint8"},{"internalType":"string","name":"location","type":"string"},{"internalType":"string","name":"state","type":"string"},{"internalType":"string","name":"district","type":"string"},{"internalType":"string","name":"city","type":"string"},{"internalType":"string","name":"pincode","type":"string"},{"internalType":"int256","name":"centerLatitude","type":"int256"},{"internalType":"int256","name":"centerLongitude","type":"int256"},{"internalType":"uint256","name":"gpsRadiusMeters","type":"uint256"},{"internalType":"uint256","name":"createdAt","type":"uint256"},{"internalType":"bool","name":"exists","type":"bool"},{"internalType":"string","name":"milestone1Task","type":"string"},{"internalType":"string","name":"milestone2Task","type":"string"},{"internalType":"string","name":"milestone3Task","type":"string"},{"internalType":"string","name":"milestone4Task","type":"string"},{"internalType":"string","name":"milestone5Task","type":"string"}],"stateMutability":"view","type":"function"},{"inputs":[{"internalType":"uint256","name":"_projectId","type":"uint256"},{"internalType":"uint256","name":"_milestoneId","type":"uint256"},{"internalType":"uint256","name":"_amount","type":"uint256"},{"internalType":"string","name":"_description","type":"string"},{"internalType":"address","name":"_recipient","type":"address"}],"name":"recordExpenditure","outputs":[{"internalType":"uint256","name":"","type":"uint256"}],"stateMutability":"nonpayable","type":"function"},{"inputs":[{"internalType":"string","name":"_name","type":"string"}],"name":"registerContractor","outputs":[{"internalType":"uint256","name":"","type":"uint256"}],"stateMutability":"nonpayable","type":"function"},{"inputs":[{"internalType":"uint256","name":"_milestoneId","type":"uint256"}],"name":"releaseFunds","outputs":[],"stateMutability":"nonpayable","type":"function"},{"inputs":[{"internalType":"uint256","name":"","type":"uint256"}],"name":"revealedContractors","outputs":[{"internalType":"address","name":"","type":"address"}],"stateMutability":"view","type":"function"},{"inputs":[{"internalType":"uint256","name":"_projectId","type":"uint256"},{"internalType":"bytes32","name":"_contractorCommitment","type":"bytes32"},{"internalType":"string","name":"_encryptedContractorDataIPFS","type":"string"},{"internalType":"string","name":"_tenderDocIPFS","type":"string"},{"internalType":"string","name":"_qualityReportIPFS","type":"string"}],"name":"submitAnonymousTender","outputs":[{"internalType":"uint256","name":"","type":"uint256"}],"stateMutability":"nonpayable","type":"function"},{"inputs":[{"internalType":"uint256","name":"_tenderId","type":"uint256"},{"internalType":"string","name":"_qualityReportIPFS","type":"string"}],"name":"submitFinalQualityReport","outputs":[],"stateMutability":"nonpayable","type":"function"},{"inputs":[{"internalType":"uint256","name":"_tenderId","type":"uint256"},{"internalType":"uint8","name":"_percentageComplete","type":"uint8"},{"internalType":"string","name":"_completionProof","type":"string"},{"internalType":"string","name":"_proofImagesIPFS","type":"string"},{"internalType":"string","name":"_gpsCoordinates","type":"string"},{"internalType":"int256","name":"_latitude","type":"int256"},{"internalType":"int256","name":"_longitude","type":"int256"},{"internalType":"string","name":"_architectureDocsIPFS","type":"string"},{"internalType":"bytes32","name":"_qualityHash","type":"bytes32"}],"name":"submitMilestone","outputs":[{"internalType":"uint256","name":"","type":"uint256"}],"stateMutability":"nonpayable","type":"function"},{"inputs":[{"internalType":"uint256","name":"_projectId","type":"uint256"},{"internalType":"uint256","name":"_milestoneId","type":"uint256"},{"internalType":"string","name":"_ipfsHash","type":"string"},{"internalType":"string","name":"_gpsCoords","type":"string"},{"internalType":"int256","name":"_latitude","type":"int256"},{"internalType":"int256","name":"_longitude","type":"int256"}],"name":"submitMilestoneProof","outputs":[],"stateMutability":"nonpayable","type":"function"},{"inputs":[],"name":"tenderCount","outputs":[{"internalType":"uint256","name":"","type":"uint256"}],"stateMutability":"view","type":"function"},{"inputs":[{"internalType":"uint256","name":"","type":"uint256"}],"name":"tenders","outputs":[{"internalType":"uint256","name":"id","type":"uint256"},{"internalType":"uint256","name":"projectId","type":"uint256"},{"internalType":"bytes32","name":"contractorCommitment","type":"bytes32"},{"internalType":"string","name":"encryptedContractorDataIPFS","type":"string"},{"internalType":"string","name":"tenderDocumentIPFS","type":"string"},{"internalType":"string","name":"qualityReportIPFS","type":"string"},{"internalType":"enum FundTracker.TenderStatus","name":"status","type":"uint8"},{"internalType":"uint256","name":"submittedAt","type":"uint256"},{"internalType":"bool","name":"finalQualityReportSubmitted","type":"bool"},{"internalType":"string","name":"finalQualityReportIPFS","type":"string"},{"internalType":"uint256","name":"qualityReportSubmittedAt","type":"uint256"}],"stateMutability":"view","type":"function"},{"inputs":[{"internalType":"uint256","name":"_milestoneId","type":"uint256"},{"internalType":"bool","name":"_qualityVerified","type":"bool"},{"internalType":"bool","name":"_gpsVerified","type":"bool"},{"internalType":"bool","name":"_progressVerified","type":"bool"}],"name":"verifyAndReleaseFunds","outputs":[],"stateMutability":"payable","type":"function"},{"inputs":[{"internalType":"uint256","name":"_projectId","type":"uint256"},{"internalType":"int256","name":"_submittedLat","type":"int256"},{"internalType":"int256","name":"_submittedLon","type":"int256"}],"name":"verifyGPS","outputs":[{"internalType":"bool","name":"","type":"bool"}],"stateMutability":"view","type":"function"},{"stateMutability":"payable","type":"receive"}],"evm":{"bytecode":{"linkReferences":{},"object":"6080806040523461002b57600080805580600155806002558060035560045561590e9081620000318239f35b600080fdfe61030080604052600436101561001e575b50361561001c57600080fd5b005b60003560e01c9081630585c25e14614f76575080630681ca5514614f585780630fef5be714614f35578063107046bd14614c5e578063154956fa14614c3d5780631878c6bf14614c0957806318d62eab1461492f5780631f058776146149115780632442e1cb14614861578063264abfcb1461482257806330445b481461458957806330daa3a21461456b578063360744cb146144f357806336fbad26146144d55780633af48e3214614448578063460f1b8214614417578063465e1def146143155780634a754500146123985780634a77fe19146141fc5780634d68282f14613cb357806352766d8014613c2d57806353ee895d14613ac55780635f8439e31461395e5780636cb0adba1461392d5780636ee93613146138c15780636fc94cfe14613517578063716c0bbc1461349157806371e9d3cd146130ec578063793d208314613027578063868a654b14612fe857806390aadadd14612bfc5780639319779614612b6157806398e421fc14612b275780639c21060814612a9b5780639ecb052214612a09578063a47290eb146129eb578063b34287cc146123cc578063b7feec3314612398578063c9f8cc67146121a5578063d744cb57146120b0578063e114011114611438578063e89e4ed614611225578063ee4c80a014611080578063f0f3f2c814610c685763ff7c53e61461021a5738610010565b34610c6357610120366003190112610c635760243560ff81168103610c63576044356001600160401b038111610c6357610258903690600401615385565b6064356001600160401b038111610c6357610277903690600401615385565b6084356001600160401b038111610c6357610296903690600401615385565b9160e4356001600160401b038111610c63576102b6903690600401615385565b9360043560005260066020526102e2600260ff600660406000200154166102dc81615190565b146155db565b600435600052600c60205261030560018060a01b0360406000205416331461561d565b601460ff82161490818015610c56575b8015610c49575b8015610c3c575b8015610c2f575b15610bea5761033a60025461548d565b806002556004356000526006602052600160406000200154928360005260056020526040600020606461037460ff86166002840154615669565b049160609015610b735750601261038b91016152ae565b975b61039c60c43560a4358761571e565b95604051998a6102808101106001600160401b036102808d0111176108ec576102808b01604052848b528660208c015260043560408c015260ff861660608c015260808b015260a08a01528660c08a01528760e08a015260a4356101008a015260c4356101208a01528515156101408a0152610160890152610104356101808901526101a088015260006101c088015260016101e088015242610200880152600061022088015260405161044f81615272565b600081526102408801526001610260880152600052600760205260406000208651815560208701516001820155604087015160028201556003810160ff60608901511660ff1982541617905560808701518051906001600160401b0382116108ec5781906104cd826104c460048701546151ca565b600487016154b3565b602090601f8311600114610b0157600092610af6575b50508160011b916000199060031b1c19161760048201555b60a08701518051906001600160401b0382116108ec57819061052d8261052460058701546151ca565b600587016154b3565b602090601f8311600114610a8457600092610a79575b50508160011b916000199060031b1c19161760058201555b60c08701518051906001600160401b0382116108ec57819061058d8261058460068701546151ca565b600687016154b3565b602090601f8311600114610a07576000926109fc575b50508160011b916000199060031b1c19161760068201555b60e08701518051906001600160401b0382116108ec5781906105ed826105e460078701546151ca565b600787016154b3565b602090601f831160011461098a5760009261097f575b50508160011b916000199060031b1c19161760078201555b610100870151600882015561012087015160098201556106516101408801511515600a83019060ff801983541691151516179055565b6101608701518051906001600160401b0382116108ec5781906106848261067b600b8701546151ca565b600b87016154b3565b602090601f831160011461090d57600092610902575b50508160011b916000199060031b1c191617600b8201555b610180870151600c8201556101a0870151600d8201556101c0870151600e8201556106ee6101e08801516106e581615190565b600f83016154f8565b610200870151601082015561022087015160118201556102408701519687516001600160401b0381116108ec576020986107388261072f60128701546151ca565b601287016154b3565b8990601f831160011461085f5761026061083996948461079f956000805160206158b98339815191529b9a9895601395600092610854575b50508160011b916000199060031b1c19161760128501555b0151151591019060ff801983541691151516179055565b81600052600a88526107b8604060002060025490615555565b7fca071656a3d7f869038b9236be798b77dbbc7ee420088326a529152f4a072d92600254978897889360ff60405191168152847fa4f370de0d910b9e1634436568274edd60715ade03e4cf084efd418a29349d888d60043593a361082960405192839260c4359160a435918561567c565b0390a260c4359060a4359061575f565b604080519215158352602083019190915290a2604051908152f35b015190503880610770565b90601285016000528a6000209160005b601f19851681106108d5575061083996946001856000805160206158b98339815191529b9a98956013956102609561079f99601f198116106108bc575b505050811b016012850155610788565b015160001960f88460031b161c191690553880806108ac565b91928c60018192868501518155019401920161086f565b634e487b7160e01b600052604160045260246000fd5b01519050388061069a565b9250600b84016000526020600020906000935b601f1984168510610964576001945083601f1981161061094b575b505050811b01600b8201556106b2565b015160001960f88460031b161c1916905538808061093b565b81810151835560209485019460019093019290910190610920565b015190503880610603565b9250600784016000526020600020906000935b601f19841685106109e1576001945083601f198116106109c8575b505050811b01600782015561061b565b015160001960f88460031b161c191690553880806109b8565b8181015183556020948501946001909301929091019061099d565b0151905038806105a3565b9250600684016000526020600020906000935b601f1984168510610a5e576001945083601f19811610610a45575b505050811b0160068201556105bb565b015160001960f88460031b161c19169055388080610a35565b81810151835560209485019460019093019290910190610a1a565b015190503880610543565b9250600584016000526020600020906000935b601f1984168510610adb576001945083601f19811610610ac2575b505050811b01600582015561055b565b015160001960f88460031b161c19169055388080610ab2565b81810151835560209485019460019093019290910190610a97565b0151905038806104e3565b9250600484016000526020600020906000935b601f1984168510610b58576001945083601f19811610610b3f575b505050811b0160048201556104fb565b015160001960f88460031b161c19169055388080610b2f565b81810151835560209485019460019093019290910190610b14565b60ff8516602803610b9157506013610b8b91016152ae565b9761038d565b60ff8516603c03610ba957506014610b8b91016152ae565b60ff8516605003610bc157506015610b8b91016152ae565b9890606460ff861614610bd5575b5061038d565b610be39199506016016152ae565b9738610bcf565b60405162461bcd60e51b815260206004820152601c60248201527f496e76616c6964206d696c6573746f6e652070657263656e74616765000000006044820152606490fd5b50606460ff82161461032a565b50605060ff821614610323565b50603c60ff82161461031c565b50602860ff821614610315565b600080fd5b34610c63576020366003190112610c635760606102c0604051610c8a8161523b565b600081528260208201526000604082015260008382015260006080820152600060a0820152600060c0820152600060e0820152826101008201528261012082015282610140820152826101608201528261018082015260006101a082015260006101c082015260006101e082015260006102008201526000610220820152826102408201528261026082015282610280820152826102a08201520152600435806000526005602052610d4660ff60116040600020015416615510565b600052600560205261107c6040600020610eb2601660405192610d688461523b565b80548452610d78600182016152ae565b602085015260028101546040850152600381015460608501526004810154608085015260058101546001600160a01b031660a0850152600681015460c0850152600781015460ff16610dc981615190565b60e0850152610dda600882016152ae565b610100850152610dec600982016152ae565b610120850152610dfe600a82016152ae565b610140850152610e10600b82016152ae565b610160850152610e22600c82016152ae565b610180850152600d8101546101a0850152600e8101546101c0850152600f8101546101e0850152601081015461020085015260ff6011820154161515610220850152610e70601282016152ae565b610240850152610e82601382016152ae565b610260850152610e94601482016152ae565b610280850152610ea6601582016152ae565b6102a0850152016152ae565b6102c082015260405191829160208352805160208401526102c0611067611051611039611021610fcb610fb3610f9b610f83610f6b8a8d61010060e0610f0960208501516102e06040860152610300850190615150565b936040810151606085015260608101516080850152608081015160a085015260018060a01b0360a08201511660c085015260c081015182850152015191610f4f83615190565b01528d6101008d015190610120601f1982850301910152615150565b6101208b01518d8203601f19016101408f0152615150565b6101408a01518c8203601f19016101608e0152615150565b6101608901518b8203601f19016101808d0152615150565b6101808801518a8203601f19016101a08c0152615150565b6101a08701516101c08a01526101c08701516101e08a01526101e08701516102008a01526102008701516102208a015261022087015115156102408a0152610240870151601f198a8303016102608b0152615150565b610260860151888203601f19016102808a0152615150565b610280850151878203601f19016102a0890152615150565b6102a0840151868203601f190184880152615150565b910151838203601f19016102e0850152615150565b0390f35b34610c63576060366003190112610c63576024356004356001600160a01b038216808303610c6357816000526020906006825260406000206001810154906110f5604051858101903360601b8252601481526110db81615257565b51902083600052600586526006604060002001541461558f565b60405195848701906001600160601b03199060601b16815260443560348801526034875260608701908782106001600160401b038311176108ec5781604052875190206002830154036111e457507f08ef1e92b16bd2e2d0be9431db3a64223f23cce123adb96b1202ba2f18ac88db9495506006019060ff199160028382541617905585600052600c84526040600020836001600160601b0360a01b82541617905560005260058352600760406000200160018282541617905581600052600e835260406000206111c6815461548d565b905581600052600d83526040600020908154169055604051908152a2005b62461bcd60e51b81526064878101869052601960848901527f496e76616c696420636f6e74726163746f722072657665616c0000000000000060a489015290fd5b34610c63576020366003190112610c63576004356000526007602052604060002080546102a0526001810154906002810154608052600381015460ff166101c05260048101611273906152ae565b91611280600583016152ae565b9261128d600684016152ae565b611299600785016152ae565b6008850154906009860154600a87015460ff1691600b88016112ba906152ae565b94600c8901546102e052600d89015499600e8a015497600f8b015460ff169960108c01549b601181015460e052601281016112f4906152ae565b610240526013015460ff1661020052604051806101a0526102a05190526101a051602001526080516101a051604001526101c0516101a05160600152610280806101a051608001526101a0510161134a91615150565b6101a0518082039060a0015261135f91615150565b6101a0518082039060c0015261137491615150565b6101a0518082039060e0015261138991615150565b926101a05161010001526101a051610120015215156101a05161014001526101a0518082039061016001526113bd91615150565b936102e0516101a05161018001526101a0516101a001526101a0516101c001526113e681615190565b6101a0516101e001526101a051610200015260e0516101a05161022001526101a051808203906102400152610240519061141f91615150565b6102005115156101a05161026001526101a05180910390f35b34610c63576101e0366003190112610c63576004356001600160401b038111610c6357611469903690600401615385565b6064356001600160401b038111610c6357611488903690600401615385565b906084356001600160401b038111610c63576114a8903690600401615385565b60a4356001600160401b038111610c63576114c7903690600401615385565b60c4356001600160401b038111610c63576114e6903690600401615385565b60e4356001600160401b038111610c6357611505903690600401615385565b610144356001600160401b038111610c6357611525903690600401615385565b610164356001600160401b038111610c6357611545903690600401615385565b90610184356001600160401b038111610c6357611566903690600401615385565b926101a4356001600160401b038111610c6357611587903690600401615385565b946001600160401b036101c43511610c63576115a93660046101c43501615385565b966000546115b69061548d565b98896000556040519b6115c88d61523b565b8b8d8c8152602001528c602435906040015260608d016000905260808d01600090528c339060a001528c6044359060c0015260e08d01600090526101008d01526101208c01526101408b01526101608a0152610180890152610104356101a0890152610124356101c08901526101e088016101f49052426102008901526102208801600190526102408801526102608701526102808601526102a08501526102c0840152600052600560205260406000208251815560208301519283516001600160401b0381116108ec576116ad816116a460018601546151ca565b600186016154b3565b6020601f8211600114612041578192939495600092612036575b50508160011b916000199060031b1c19161760018301555b6040810151600283015560608101516003830155608081015160048301556005820160018060a01b0360a0830151166001600160601b0360a01b82541617905560c0810151600683015561174360e082015161173a81615190565b600784016154f8565b6101008101519283516001600160401b0381116108ec576117748161176b60088701546151ca565b600887016154b3565b6020601f8211600114611fc7578192939495600092611fbc575b50508160011b916000199060031b1c19161760088401555b6101208201519283516001600160401b0381116108ec576117d7816117ce60098501546151ca565b600985016154b3565b6020601f8211600114611f4d578192939495600092611f42575b50508160011b916000199060031b1c19161760098201555b6101408301519283516001600160401b0381116108ec5761183a81611831600a8601546151ca565b600a86016154b3565b6020601f8211600114611ed3578192939495600092611ec8575b50508160011b916000199060031b1c191617600a8301555b6101608101519283516001600160401b0381116108ec576118948161067b600b8701546151ca565b6020601f8211600114611e59578192939495600092611e4e575b50508160011b916000199060031b1c191617600b8401555b6101808201519283516001600160401b0381116108ec576118f7816118ee600c8501546151ca565b600c85016154b3565b6020601f8211600114611ddf578192939495600092611dd4575b50508160011b916000199060031b1c191617600c8201555b6101a0830151600d8201556101c0830151600e8201556101e0830151600f82015561020083015160108201556119756102208401511515601183019060ff801983541691151516179055565b61024083015180516001600160401b0381116108ec578060128401926119a58261199f86546151ca565b866154b3565b602090601f8311600114611d6e57600092611d63575b50508160011b916000199060031b1c19161790555b61026083015180516001600160401b0381116108ec578060138401926119fa8261199f86546151ca565b602090601f8311600114611cfd57600092611cf2575b50508160011b916000199060031b1c19161790555b61028083015180516001600160401b0381116108ec57806014840192611a4f8261199f86546151ca565b602090601f8311600114611c8c57600092611c81575b50508160011b916000199060031b1c19161790555b601581016102a08401518051906001600160401b0382116108ec57611aa982611aa385546151ca565b856154b3565b602090601f8311600114611c12579180601694926102c09694600092611c07575b50508160011b916000199060031b1c19161790555b01920151908151926001600160401b0384116108ec5783611b0c602095611b0684546151ca565b846154b3565b8493601f8211600114611b9f57611b769460009183611b94575b50508160011b916000199060031b1c19161790555b7fe12127e830a916393848200f5a64634469c00a020e37627666649822a07a61bd600054928392604051918291608083526080830190615150565b602435878301523360408301524260608301520390a2604051908152f35b015190508680611b26565b601f1982169483600052866000209160005b878110611bf0575090839291600194611b769810611bd7575b505050811b019055611b3b565b015160001960f88460031b161c19169055868080611bca565b919288600181928685015181550194019201611bb1565b015190508880611aca565b90601f198316918460005260206000209260005b818110611c6957509260019285926102c098966016989610611c50575b505050811b019055611adf565b015160001960f88460031b161c19169055888080611c43565b92936020600181928786015181550195019301611c26565b015190508680611a65565b6000858152602081209350601f198516905b818110611cda5750908460019594939210611cc1575b505050811b019055611a7a565b015160001960f88460031b161c19169055868080611cb4565b92936020600181928786015181550195019301611c9e565b015190508680611a10565b6000858152602081209350601f198516905b818110611d4b5750908460019594939210611d32575b505050811b019055611a25565b015160001960f88460031b161c19169055868080611d25565b92936020600181928786015181550195019301611d0f565b0151905086806119bb565b6000858152602081209350601f198516905b818110611dbc5750908460019594939210611da3575b505050811b0190556119d0565b015160001960f88460031b161c19169055868080611d96565b92936020600181928786015181550195019301611d80565b015190508580611911565b600c830160005260206000209060005b601f1984168110611e36575060019394959683601f19811610611e1d575b505050811b01600c820155611929565b015160001960f88460031b161c19169055858080611e0d565b9091602060018192858b015181550193019101611def565b0151905085806118ae565b600b850160005260206000209060005b601f1984168110611eb0575060019394959683601f19811610611e97575b505050811b01600b8401556118c6565b015160001960f88460031b161c19169055858080611e87565b9091602060018192858b015181550193019101611e69565b015190508580611854565b600a840160005260206000209060005b601f1984168110611f2a575060019394959683601f19811610611f11575b505050811b01600a83015561186c565b015160001960f88460031b161c19169055858080611f01565b9091602060018192858b015181550193019101611ee3565b0151905085806117f1565b6009830160005260206000209060005b601f1984168110611fa4575060019394959683601f19811610611f8b575b505050811b016009820155611809565b015160001960f88460031b161c19169055858080611f7b565b9091602060018192858b015181550193019101611f5d565b01519050858061178e565b6008850160005260206000209060005b601f198416811061201e575060019394959683601f19811610612005575b505050811b0160088401556117a6565b015160001960f88460031b161c19169055858080611ff5565b9091602060018192858b015181550193019101611fd7565b0151905085806116c7565b6001840160005260206000209060005b601f1984168110612098575060019394959683601f1981161061207f575b505050811b0160018301556116df565b015160001960f88460031b161c1916905585808061206f565b9091602060018192858b015181550193019101612051565b34610c63576020366003190112610c6357600435600052600660205260406000206101406040516120e081615204565b825481526001830154602082015260028301546040820152612104600384016152ae565b6060820152612115600484016152ae565b6080820152612126600584016152ae565b60a082015260ff60068401541661213c81615190565b60c0820152600783015460e082015260ff6008840154169061010081019115158252600a61216c600986016152ae565b9485610120840152015492839101525115159061219b6040519384938452606060208501526060840190615150565b9060408301520390f35b602080600319360112610c6357600435908160005260058082526121d360ff60116040600020015416615510565b6000838152818352604090208101546001600160a01b0316330361234857341561231157826000528082526003604060002001546122cc5782600052808252600260406000200154341061228757907fbedc4e5ac6876307c4b4b5761039aa2ebce89052490a34e15cc655d9142ba0dc9183600052815234600360406000200155827fa76702541970ac8a240a5f42c5a0d1558c299844949ec41fad31fac5444e550482604051348152a2604051348152a2005b60405162461bcd60e51b815260048101839052601d60248201527f496e73756666696369656e742066756e647320666f72206275646765740000006044820152606490fd5b60405162461bcd60e51b815260048101839052601760248201527f46756e647320616c726561647920616c6c6f63617465640000000000000000006044820152606490fd5b60405162461bcd60e51b815260048101839052600f60248201526e4d7573742073656e642066756e647360881b6044820152606490fd5b60405162461bcd60e51b815260048101839052602260248201527f4f6e6c792061646d696e2063616e20706572666f726d2074686973206163746960448201526137b760f11b6064820152608490fd5b34610c63576020366003190112610c63576004356000526010602052602060018060a01b0360406000205416604051908152f35b34610c635760a0366003190112610c63576044356001600160401b038111610c63576123fc903690600401615385565b6064356001600160401b038111610c635761241b903690600401615385565b6084356001600160401b038111610c635761243a903690600401615385565b91600435600052600560205261245a60ff60116040600020015416615510565b600435600052600560205260ff6007604060002001541661247a81615190565b6129a65733600052600d60205260ff604060002054168015612994575b15612938576124a760015461548d565b9182600155604051926124b984615204565b808452602084019460043586526040850192602435845260608601948552608086015260a0850152600060c08501524260e0850152600061010085015260405161250281615272565b600081526101208501526000610140850152600052600660205260406000209383518555516001850155516002840155519182516001600160401b0381116108ec5761255e8161255560038501546151ca565b600385016154b3565b6020601f82116001146128ca57819293946000926128bf575b50508160011b916000199060031b1c19161760038201555b60808201519182516001600160401b0381116108ec576125bf816125b660048601546151ca565b600486016154b3565b6020601f82116001146128515781929394600092612846575b50508160011b916000199060031b1c19161760048301555b60a08101519182516001600160401b0381116108ec576126208161261760058501546151ca565b600585016154b3565b6020601f82116001146127d857819293946000926127cd575b50508160011b916000199060031b1c19161760058201555b61266b60c083015161266281615190565b600683016154f8565b60e082015160078201556126956101008301511515600883019060ff801983541691151516179055565b60098101916101208101519283516001600160401b0381116108ec576126bf81611b0684546151ca565b6020601f821160011461275e579080610140949392600a9697600092612753575b50508160011b916000199060031b1c19161790555b01519101556004356000526009602052612716604060002060015490615555565b60206001546040516024358152817fcc51b0e9a11b4449f30eedbf3dc532b58ffe4ad8f2b816544631d5cd5c3c0e9a8460043593a3604051908152f35b0151905087806126e0565b601f198216958360005260206000209660005b8181106127b55750966001928492610140979695600a999a1061279c575b505050811b0190556126f5565b015160001960f88460031b161c1916905587808061278f565b83830151895560019098019760209384019301612771565b015190508480612639565b6005830160005260206000209060005b601f198416811061282e5750600193949583601f19811610612815575b505050811b016005820155612651565b015160001960f88460031b161c19169055848080612805565b9091602060018192858a0151815501930191016127e8565b0151905084806125d8565b6004840160005260206000209060005b601f19841681106128a75750600193949583601f1981161061288e575b505050811b0160048301556125f0565b015160001960f88460031b161c1916905584808061287e565b9091602060018192858a015181550193019101612861565b015190508480612577565b6003830160005260206000209060005b601f19841681106129205750600193949583601f19811610612907575b505050811b01600382015561258f565b015160001960f88460031b161c191690558480806128f7565b9091602060018192858a0151815501930191016128da565b60405162461bcd60e51b815260206004820152602e60248201527f436f6e74726163746f72206d757374207375626d69742070656e64696e67207160448201526d75616c697479207265706f72747360901b6064820152608490fd5b50600e60205260406000205415612497565b60405162461bcd60e51b815260206004820152601d60248201527f50726f6a656374206e6f7420616363657074696e672074656e646572730000006044820152606490fd5b34610c63576000366003190112610c63576020600454604051908152f35b34610c6357602080600319360112610c63576004358060005260058252612a3a60ff60116040600020015416615510565b60005260098152604060002090604051908181845491828152019360005281600020916000905b828210612a845761107c85612a788189038261528d565b60405191829182615452565b835486529485019460019384019390910190612a61565b34610c63576020366003190112610c6357600435806000526005602052612acc60ff60116040600020015416615510565b60005260056020526040600020612ae5600882016152ae565b61107c612af4600984016152ae565b92612b01600a82016152ae565b90612b1a600c612b13600b84016152ae565b92016152ae565b91604051958695866153cc565b34610c63576020366003190112610c63576001600160a01b03612b48615354565b16600052600e6020526020604060002054604051908152f35b34610c63576020366003190112610c63576001600160a01b0380612b83615354565b16600052600f602052604060002090815416600182015491612ba7600282016152ae565b60ff600383015416916004810154612be160066005840154930154936040519788978852602088015260e0604088015260e0870190615150565b9315156060860152608085015260a084015260c08301520390f35b34610c63576040366003190112610c63576001600160401b03600435602435828111610c6357612c30903690600401615385565b908060005260069160209183835260ff918285604060002001541694612c5586615190565b612c6260028097146155db565b82600052600c8552612c8260018060a01b0360406000205416331461561d565b826000528085528360086040600020015416612fa557826000528085526001958660406000200154600052600a86528660406000206040519081898254918281520191600052896000209060005b8b828210612f92575050505081612ce891038261528d565b60009283835b612f0c575b5050505015612eb957826000528085526040600020966009600889019860ff1999898b825416179055019083519081116108ec57612d3581611b0684546151ca565b8087601f8211600114612e5857600091612e4d575b50600019600383901b1c191690881b1790555b82600052845242600a6040600020015533600052600e84526040600020908154908115612e37577fbeece507cdd42b5d040b46961eb4b8afa02c86708ffc5ea134540608e7dab002976040977f160aa5e3cd3142151717fe9913f974837e992e0e1a41f9934bd4b6aabde263fa94612e009460001901905533600052600e8852886000205415612e21575b50508651918291338352888884015288830190615150565b0390a233600052600d825282600020541690825191338352151590820152a1005b600d885288600020918254161790558880612de8565b634e487b7160e01b600052601160045260246000fd5b90508401518a612d4a565b899250601f1982169084600052896000209160005b8b828210612ea35750508311612e8a575b5050811b019055612d5d565b86015160001960f88460031b161c191690558a80612e7e565b838a015185558d96909401939283019201612e6d565b60405162461bcd60e51b815260048101869052602560248201527f31303025206d696c6573746f6e65206d75737420626520617070726f76656420604482015264199a5c9cdd60da1b6064820152608490fd5b8251811015612f8d57612f1f81846156b1565b516000526007808b5260648a60036040600020015416149081612f5f575b50612f5157612f4b9061548d565b83612cee565b505050905086898080612cf3565b9050612f6b82856156b1565b516000528a528189600f6040600020015416612f8681615190565b148d612f3d565b612cf3565b835485528d969401939283019201612cd0565b6064856040519062461bcd60e51b825280600483015260248201527f5175616c697479207265706f727420616c7265616479207375626d69747465646044820152fd5b34610c6357612ff63661540e565b90600052600b60205260406000208054821015610c635760209161301991615424565b90546040519160031b1c8152f35b34610c63576020366003190112610c635760043580600052600760205261305860ff601360406000200154166156d2565b60005260076020526130bd604060002061107c600c82015461307c600684016152ae565b926130d961308c600783016152ae565b916130cb6130a860126130a1600b85016152ae565b93016152ae565b9360405198899860a08a5260a08a0190615150565b9088820360208a0152615150565b908682036040880152615150565b9160608501528382036080850152615150565b34610c635760a0366003190112610c63576001600160401b03606435818111610c635761311d903690600401615385565b608435906001600160a01b0382168203610c6357600435600052600560205261315060ff60116040600020015416615510565b600435600052600560205260018060a01b036005604060002001541633148015613458575b156134225760043560005260056020526040600020600361319c60443560048401546156c5565b910154106133d1576131af60035461548d565b9081600355604051906131c182615220565b82825260208201926004358452604083016024358152606084019160443583526080850193845260018060a01b03871660a08601524260c0860152600052600860205260406000209484518655516001860155516002850155516003840155519384519081116108ec5760209461323f826104c460048701546151ca565b8590601f831160011461335e5791806006949260c094600092613353575b50508160011b916000199060031b1c19161760048501555b6005840160018060a01b0360a0830151166001600160601b0360a01b8254161790550151910155602435151580613337575b613311575b600435600052600b82526132c7604060002060035490615555565b6003549060405190604435825260018060a01b031683820152817f13780f32aef756aa7b54bf1925480ed3b26bedf45cb3ac9ad99ca2f493bc02c9604060043593a3604051908152f35b60243560005260078252600e60406000200161333060443582546156c5565b90556132ac565b506024356000526007825260ff601360406000200154166132a7565b01519050888061325d565b9060048501600052866000209160005b601f19851681106133ba5750926006949260019260c09583601f198116106133a1575b505050811b016004850155613275565b015160001960f88460031b161c19169055888080613391565b91928860018192868501518155019401920161336e565b60405162461bcd60e51b815260206004820152602360248201527f457870656e646974757265206578636565647320616c6c6f63617465642066756044820152626e647360e81b6064820152608490fd5b60405162461bcd60e51b815260206004820152600e60248201526d139bdd08185d5d1a1bdc9a5e995960921b6044820152606490fd5b5060405160208101903360601b82526014815261347481615257565b519020600435600052600560205260066040600020015414613175565b34610c6357602080600319360112610c635760043580600052600582526134c260ff60116040600020015416615510565b600052600b8152604060002090604051908181845491828152019360005281600020916000905b8282106135005761107c85612a788189038261528d565b8354865294850194600193840193909101906134e9565b34610c635760c0366003190112610c63576024356004356001600160401b03604435818111610c635761354e903690600401615385565b91606435828111610c6357613567903690600401615385565b916084359260a43594836000526020926005845261358f60ff60116040600020015416615510565b87600052600784526135ab60ff601360406000200154166156d2565b876000526007845260018581604060002001540361387c5788600052600785528060ff600f60406000200154166135e181615190565b036138395788600052600785526040600020916006830184518281116108ec5761360f81611b0684546151ca565b8088601f82116001146137d8576000916137cd575b50600019600383901b1c191690841b1790555b600783019185519182116108ec578a966136558361199f86546151ca565b80601f841160011461372357506000805160206158b98339815191529a97947fca071656a3d7f869038b9236be798b77dbbc7ee420088326a529152f4a072d92948480600a9d9a966137039d9a966136ea96600093613718575b501b916000199060031b1c19161790555b8760088201558860098201556136d789898961571e565b9a01805460ff191660ff8c151516179055565b6136fb87876040519485948561567c565b0390a261575f565b604080519215158352602083019190915290a2005b8901519250386136af565b90601f9392931983168560005282600020926000905b8282106137b357505094600a9b9894846136ea946000805160206158b98339815191529f9c99946137039e9b977fca071656a3d7f869038b9236be798b77dbbc7ee420088326a529152f4a072d929a1061379a575b5050811b0190556136c0565b88015160001960f88460031b161c19169055388061378e565b838b015185558f9b50938601939283019290810190613739565b90508601518d613624565b859250601f19821690846000528a6000209160005b8c828210613823575050831161380a575b5050811b019055613637565b88015160001960f88460031b161c191690558d806137fe565b838c0151855589969094019392830192016137ed565b6064856040519062461bcd60e51b825280600483015260248201527f4d696c6573746f6e65206e6f7420696e207375626d69747465642073746174656044820152fd5b60405162461bcd60e51b815260048101869052601e60248201527f4d696c6573746f6e65206e6f7420666f7220746869732070726f6a65637400006044820152606490fd5b34610c63576020366003190112610c63576001600160a01b036138e2615354565b16600052600d60205260ff60406000205416801561391b575b600e60209081526040600081902054815193151584529183019190915290f35b50600e602052604060002054156138fb565b34610c635761393b3661540e565b90600052600a60205260406000208054821015610c635760209161301991615424565b34610c63576020366003190112610c635760043580600052600560205260406000206011015460ff1661399090615510565b600052600560205260406000206002810154600382015491600481015490600160a01b6001900360058201541691600782015460ff1691600d81015493600e82015493600183016139e0906152ae565b6139ec600885016152ae565b906139f9600986016152ae565b92613a06600a87016152ae565b94613a13600b88016152ae565b96600c01613a20906152ae565b976040519c8d9c8d956101a08088528701613a3a91615150565b956020015260408d015260608c015260808b0152613a5781615190565b60a08a015288810360c08a0152613a6d91615150565b87810360e0890152613a7e91615150565b868103610100880152613a9091615150565b858103610120870152613aa291615150565b848103610140860152613ab491615150565b916101608401526101808301520390f35b34610c63576020366003190112610c6357613bf2600435806000526006602052604060002060405191613af783615204565b815483526001820154602084015260028201546040840152613b1b600383016152ae565b6060840152613b2c600483016152ae565b60808401908152613b3f600584016152ae565b9360a08101948552610140600a60ff6006870154169560c0840196613b6381615190565b8752600781015460e085015260ff6008820154161515610100850152613b8b600982016152ae565b6101208501520154910152519251906002835193613ba885615190565b51613bb281615190565b613bbb81615190565b03613c21576000908152600c60205260409020546001600160a01b031690613c00905b604051958695608087526080870190615150565b908582036020870152615150565b91613c0a81615190565b60408401526001600160a01b031660608301520390f35b50613c00600091613bde565b34610c6357602080600319360112610c63576004358060005260058252613c5e60ff60116040600020015416615510565b600052600a8152604060002090604051908181845491828152019360005281600020916000905b828210613c9c5761107c85612a788189038261528d565b835486529485019460019384019390910190613c85565b34610c63576020366003190112610c635760043560005260076020526040600020613ce460ff6013830154166156d2565b600f810154600160ff8216613cf881615190565b036141b7576001820154613d3b60405160208101903360601b825260148152613d2081615257565b5190208260005260056020526006604060002001541461558f565b60ff600a840154161561417257613d5560068401546151ca565b156141385760ff6003840154169160148311613ff0575b600291925060ff191617600f830155426011830155600d820154916002810154600052600c60205260018060a01b0360406000205416928260005260056020528060036040600020015410613fab578260005260056020526004604060002001613dd78282546156c5565b9055826000526005602052600360406000200180548083810311612e37578290039055600080808084885af13d15613fa6573d613e138161536a565b90613e21604051928361528d565b8152600060203d92013e5b15613f6f57827fcd3c5e4379009ba79bacd27e7dda9b2ceae5fa7d95370f5583f8601ff3bee5cf606060ff600360649689600052600f6020526040600020838382015416613f59575b506040518781527f939da3b627c123c81fe5aacebf925163337a0d4f8a03724640618078cad24894602060043592a26040518a81528760208201527fe685657b3e26333b6523981ec33f5c6972ff07b95b7e6d7dad65a741e0177f24604060043592a201541693604051908882526020820152846040820152a203613f3b5760005260056020526007604060002001600360ff19825416179055600052600f602052604060002060ff600382015416613f2a57005b600501613f37815461548d565b9055005b6000908152600560205260409020600701805460ff19166002179055005b600601613f678882546156c5565b90558a613e75565b60405162461bcd60e51b815260206004820152600f60248201526e151c985b9cd9995c8819985a5b1959608a1b6044820152606490fd5b613e2c565b60405162461bcd60e51b815260206004820152601c60248201527f496e73756666696369656e7420616c6c6f63617465642066756e6473000000006044820152606490fd5b60ff601319840111612e375760009282600052600a6020526040600020906040518083602082955493848152019060005260206000209260005b81811061411f57505061403f9250038361528d565b60005b82518110156141155761405581846156b1565b51600052600760205260ff60131983011660ff6003604060002001541614806140e4575b61408b576140869061548d565b614042565b50505090915060015b156140a0578190613d6c565b606460405162461bcd60e51b815260206004820152602060248201527f50726576696f7573206d696c6573746f6e65206e6f7420636f6d706c657465646044820152fd5b506140ef81846156b1565b516000526007602052600260ff600f604060002001541661410f81615190565b14614079565b5050509091614094565b845483526001948501948794506020909301920161402a565b60405162461bcd60e51b8152602060048201526012602482015271139bc81c1c9bdbd9881cdd589b5a5d1d195960721b6044820152606490fd5b60405162461bcd60e51b815260206004820152601760248201527f47505320766572696669636174696f6e206661696c65640000000000000000006044820152606490fd5b60405162461bcd60e51b815260206004820152601760248201527f4d696c6573746f6e65206e6f74207375626d69747465640000000000000000006044820152606490fd5b34610c6357602080600319360112610c6357614216615354565b90600060c060405161422781615220565b8281528284820152606060408201528260608201528260808201528260a0820152015260018060a01b03809216600052600f815260406000206040519161426d83615220565b83825416835260018201549181840192835261428b600282016152ae565b92604085019384526142f660ff6003840154169460608701951515865260048401549260808801938452600660058601549560a08a0196875201549560c08901968752604051998a99828b525116908901525160408801525160e06060880152610100870190615150565b9351151560808601525160a08501525160c08401525160e08301520390f35b34610c63576020366003190112610c635760043560005260066020526040600020805460018201549160028101549060038101614351906152ae565b61435d600483016152ae565b9061436a600584016152ae565b91600684015460ff1692600785015491600886015460ff169360098701614390906152ae565b96600a0154976040519a8b9a8b5260208b015260408a01526101608060608b015289016143bc91615150565b88810360808a01526143cd91615150565b87810360a08901526143de91615150565b926143e881615190565b60c087015260e0860152151561010085015283810361012085015261440c91615150565b906101408301520390f35b34610c63576144253661540e565b90600052600960205260406000208054821015610c635760209161301991615424565b34610c63576020366003190112610c635760043560005260086020526040600020805460018201549160028101546144c6600383015461448a600485016152ae565b90600660018060a01b0360058701541695015493604051978897885260208801526040870152606086015260e0608086015260e0850190615150565b9160a084015260c08301520390f35b34610c63576000366003190112610c63576020600054604051908152f35b34610c63576020366003190112610c635760043580600052600560205261452460ff60116040600020015416615510565b6000526005602052604060002061453d601282016152ae565b61107c61454c601384016152ae565b92614559601482016152ae565b90612b1a6016612b13601584016152ae565b34610c63576000366003190112610c63576020600354604051908152f35b34610c63576020366003190112610c63576001600160401b03600435818111610c63576145ba903690600401615385565b33600052600f60205260ff600360406000200154166147dd576145de60045461548d565b806004556040516145ee81615220565b338152602081019182526040810183815260016060830152426080830152600060a0830152600060c083015233600052600f60205260406000209260018060a01b038351166001600160601b0360a01b855416178455516001840155519384519081116108ec576020946146728261466960028701546151ca565b600287016154b3565b8590601f831160011461476a5791806006949260c09460009261475f575b50508160011b916000199060031b1c19161760028501555b6146c760608201511515600386019060ff801983541691151516179055565b6080810151600485015560a081015160058501550151910155600454600052601082526040600020336001600160601b0360a01b82541617905533600052600d82526040600020600160ff1982541617905560045480917f38e597851bd96c9213dfe7d6d1dcac8f1b3b83b9b547964061524a14d8ea05c360405185815280614754339488830190615150565b0390a3604051908152f35b015190508880614690565b9060028501600052866000209160005b601f19851681106147c65750926006949260019260c09583601f198116106147ad575b505050811b0160028501556146a8565b015160001960f88460031b161c1916905588808061479d565b91928860018192868501518155019401920161477a565b60405162461bcd60e51b815260206004820152601d60248201527f436f6e74726163746f7220616c726561647920726567697374657265640000006044820152606490fd5b34610c63576020366003190112610c63576001600160a01b03614843615354565b16600052600d602052602060ff604060002054166040519015158152f35b34610c63576020366003190112610c635760043580600052600760205261489260ff601360406000200154166156d2565b60005260076020526101206040600020805490600181015490600281015460ff600383015416600d830154600e8401549160ff600f86015416936011601087015496015496604051988952602089015260408801526060870152608086015260a08501526148ff81615190565b60c084015260e0830152610100820152f35b34610c63576000366003190112610c63576020600154604051908152f35b6080366003190112610c63576024356004358115158203610c6357604435918215158303610c6357606435928315158403610c63578260005260209060078252604060002092600184015495604051848101903360601b82526014815261499581615257565b51902092876000526149b56005948587526006604060002001541461558f565b82614c01575b5081614bf9575b5015614b2a57600f83019060ff1991600283825416179055426011850155600d840154916002850154600052600c8452600360018060a01b0360406000205416958860005283865281604060002001614a1c8682546156c5565b9055886000528386526004604060002001614a388682546156c5565b90550191606460ff84541614600014614b0e5787600052845260036007604060002001918254161790555b81471015614ad3575b9060ff83927fcd3c5e4379009ba79bacd27e7dda9b2ceae5fa7d95370f5583f8601ff3bee5cf967f939da3b627c123c81fe5aacebf925163337a0d4f8a03724640618078cad2489460609796604051868152a25416916040519384528301526040820152a2005b929190600081848115614b04575b600092839283928392f115614af857909192614a6c565b6040513d6000823e3d90fd5b6108fc9250614ae1565b8760005284526002600760406000200191825416179055614a63565b7f2346e8d925f08bef41586c0448cb9db28a92557839fbbe0e1a14656b7e393712939450601283600f60809501600360ff198254161790550190614b6e82546151ca565b601f8111614bd5575b5050605181556000526001816000207f5175616c6974792f4750532f50726f677265737320766572696669636174696f90818155671b8819985a5b195960c21b928391015560286040519380855284015260408301526060820152a2005b6002614bf29284600052601f866000209301901c8201910161549c565b8580614b77565b9050866149c2565b9150876149bb565b34610c63576020366003190112610c6357600435600052600c602052602060018060a01b0360406000205416604051908152f35b34610c63576020614c56614c50366151b0565b9161575f565b604051908152f35b34610c63576020366003190112610c6357600435600052600560205260406000208061010052805490600101614c93906152ae565b61012052610100519060028201549060038301546102805260048301546102c052600160a01b6001900360058401541692600681015492600782015460ff1691600801614cdf906152ae565b61010051600901614cef906152ae565b61010051600a01614cff906152ae565b9161010051600b01614d10906152ae565b9361010051600c01614d21906152ae565b956101005198600d8a015460a052600e8a01549a600f8b01549960108c01549b601181015460ff1661026052601201614d59906152ae565b6101805261010051601301614d6d906152ae565b6101e05261010051601401614d81906152ae565b6102205261010051601501614d95906152ae565b6101605261010051601601614da9906152ae565b610140526040518060c052526102e08060c0516020015260c051016101205190614dd291615150565b9360c051604001526102805160c051606001526102c05160c0516080015260c05160a0015260c05160c00152614e0781615190565b60c05160e0015260c051808203906101000152614e2391615150565b60c051808203906101200152614e3891615150565b60c051808203906101400152614e4d91615150565b60c051808203906101600152614e6291615150565b60c051808203906101800152614e7791615150565b9260a05160c0516101a0015260c0516101c0015260c0516101e0015260c051610200015261026051151560c051610220015260c0518082039061024001526101805190614ec391615150565b60c0518082039061026001526101e05190614edd91615150565b60c0518082039061028001526102205190614ef791615150565b60c051808203906102a001526101605190614f1191615150565b60c051808203906102c0015260c051906101405190614f2f91615150565b0360c051f35b34610c63576020614f4e614f48366151b0565b9161571e565b6040519015158152f35b34610c63576000366003190112610c63576020600254604051908152f35b34610c63576020366003190112610c635761014081614f96600093615204565b82815282602082015282604082015260608082015260606080820152606060a08201528260c08201528260e0820152826101008201526060610120820152015260043560005260066020526040600020600a60405191614ff583615204565b805483526001810154602084015260028101546040840152615019600382016152ae565b606084015261502a600482016152ae565b608084015261503b600582016152ae565b60a084015260ff60068201541661505181615190565b60c0840152600781015460e084015260ff600882015416151561010084015261507c600982016152ae565b610120840152015461014082015260405180916020825280516020830152602081015160408301526040810151606083015260608101516101406151456150d161016093846080880152610180870190615150565b6151046150f0608087015192601f1993848a83030160a08b0152615150565b60a0870151838983030160c08a0152615150565b9060c086015161511381615190565b60e088015260e08601516101008801526101008601511515610120880152610120860151908783030184880152615150565b920151908301520390f35b919082519283825260005b84811061517c575050826000602080949584010152601f8019910116010190565b60208183018101518483018201520161515b565b6004111561519a57565b634e487b7160e01b600052602160045260246000fd5b6060906003190112610c6357600435906024359060443590565b90600182811c921680156151fa575b60208310146151e457565b634e487b7160e01b600052602260045260246000fd5b91607f16916151d9565b61016081019081106001600160401b038211176108ec57604052565b60e081019081106001600160401b038211176108ec57604052565b6102e081019081106001600160401b038211176108ec57604052565b604081019081106001600160401b038211176108ec57604052565b602081019081106001600160401b038211176108ec57604052565b90601f801991011681019081106001600160401b038211176108ec57604052565b90604051918260008254926152c2846151ca565b90818452600194858116908160001461533157506001146152ee575b50506152ec9250038361528d565b565b9093915060005260209081600020936000915b8183106153195750506152ec935082010138806152de565b85548884018501529485019487945091830191615301565b9150506152ec94506020925060ff191682840152151560051b82010138806152de565b600435906001600160a01b0382168203610c6357565b6001600160401b0381116108ec57601f01601f191660200190565b81601f82011215610c635780359061539c8261536a565b926153aa604051948561528d565b82845260208383010111610c6357816000926020809301838601378301015290565b939061540b95936130cb6153fd946130bd6153ef9460a08a5260a08a0190615150565b908482036060860152615150565b916080818403910152615150565b90565b6040906003190112610c63576004359060243590565b805482101561543c5760005260206000200190600090565b634e487b7160e01b600052603260045260246000fd5b6020908160408183019282815285518094520193019160005b828110615479575050505090565b83518552938101939281019260010161546b565b6000198114612e375760010190565b8181106154a7575050565b6000815560010161549c565b9190601f81116154c257505050565b6152ec926000526020600020906020601f840160051c830193106154ee575b601f0160051c019061549c565b90915081906154e1565b9061550281615190565b60ff80198354169116179055565b1561551757565b60405162461bcd60e51b8152602060048201526016602482015275141c9bda9958dd08191bd95cc81b9bdd08195e1a5cdd60521b6044820152606490fd5b8054680100000000000000008110156108ec5761557791600182018155615424565b819291549060031b91821b91600019901b1916179055565b1561559657565b60405162461bcd60e51b815260206004820152601960248201527f4e6f7420617574686f72697a65642073757065727669736f72000000000000006044820152606490fd5b156155e257565b60405162461bcd60e51b815260206004820152601360248201527215195b99195c881b9bdd08185c1c1c9bdd9959606a1b6044820152606490fd5b1561562457565b60405162461bcd60e51b815260206004820152601760248201527f4e6f742061737369676e656420636f6e74726163746f720000000000000000006044820152606490fd5b81810292918115918404141715612e3757565b906060926156996156a79297969597608085526080850190615150565b908382036020850152615150565b9460408201520152565b805182101561543c5760209160051b010190565b91908201809211612e3757565b156156d957565b60405162461bcd60e51b815260206004820152601860248201527f4d696c6573746f6e6520646f6573206e6f7420657869737400000000000000006044820152606490fd5b9161575790600f9284600052600560205261574360ff60116040600020015416615510565b84600052600560205260406000209461575f565b910154101590565b906157a96157af91600093808552600560205261578560ff601160408820015416615510565b845260056020526157a360408520600e600d82015491015492615824565b94615824565b9261583d565b906201b1989081830292808404831490151715615810576157d6620f42408094049461583d565b8281029281840414901517156158105750916158056157fe61580b9361540b95049280615669565b9180615669565b906156c5565b615859565b634e487b7160e01b81526011600452602490fd5b81810392916000138015828513169184121617612e3757565b600080821261584a575090565b600160ff1b8214615810570390565b80156158b2576001808201808311612e3757811c90825b83831061587d5750505090565b9192509082801561589d57806158949183046156c5565b821c9190615870565b60246000634e487b7160e01b81526012600452fd5b5060009056fe815d8529af0ac0e09abf6402c96996f15d97143aa8f23312eab88df255e679a1a2646970667358221220de38a831f5e21672ca98ace9363728a65c4de73445c6fc668cced468c05add6b64736f6c63430008140033","opcodes":"PUSH1 0x80 DUP1 PUSH1 0x40 MSTORE CALLVALUE PUSH2 0x2B JUMPI PUSH1 0x0 DUP1 DUP1 SSTORE DUP1 PUSH1 0x1 SSTORE DUP1 PUSH1 0x2 SSTORE DUP1 PUSH1 0x3 SSTORE PUSH1 0x4 SSTORE PUSH2 0x590E SWAP1 DUP2 PUSH3 0x31 DUP3 CODECOPY RETURN JUMPDEST PUSH1 0x0 DUP1 REVERT INVALID PUSH2 0x300 DUP1 PUSH1 0x40 MSTORE PUSH1 0x4 CALLDATASIZE LT ISZERO PUSH2 0x1E JUMPI JUMPDEST POP CALLDATASIZE ISZERO PUSH2 0x1C JUMPI PUSH1 0x0 DUP1 REVERT JUMPDEST STOP JUMPDEST PUSH1 0x0 CALLDATALOAD PUSH1 0xE0 SHR SWAP1 DUP2 PUSH4 0x585C25E EQ PUSH2 0x4F76 JUMPI POP DUP1 PUSH4 0x681CA55 EQ PUSH2 0x4F58 JUMPI DUP1 PUSH4 0xFEF5BE7 EQ PUSH2 0x4F35 JUMPI DUP1 PUSH4 0x107046BD EQ PUSH2 0x4C5E JUMPI DUP1 PUSH4 0x154956FA EQ PUSH2 0x4C3D JUMPI DUP1 PUSH4 0x1878C6BF EQ PUSH2 0x4C09 JUMPI DUP1 PUSH4 0x18D62EAB EQ PUSH2 0x492F JUMPI DUP1 PUSH4 0x1F058776 EQ PUSH2 0x4911 JUMPI DUP1 PUSH4 0x2442E1CB EQ PUSH2 0x4861 JUMPI DUP1 PUSH4 0x264ABFCB EQ PUSH2 0x4822 JUMPI DUP1 PUSH4 0x30445B48 EQ PUSH2 0x4589 JUMPI DUP1 PUSH4 0x30DAA3A2 EQ PUSH2 0x456B JUMPI DUP1 PUSH4 0x360744CB EQ PUSH2 0x44F3 JUMPI DUP1 PUSH4 0x36FBAD26 EQ PUSH2 0x44D5 JUMPI DUP1 PUSH4 0x3AF48E32 EQ PUSH2 0x4448 JUMPI DUP1 PUSH4 0x460F1B82 EQ PUSH2 0x4417 JUMPI DUP1 PUSH4 0x465E1DEF EQ PUSH2 0x4315 JUMPI DUP1 PUSH4 0x4A754500 EQ PUSH2 0x2398 JUMPI DUP1 PUSH4 0x4A77FE19 EQ PUSH2 0x41FC JUMPI DUP1 PUSH4 0x4D68282F EQ PUSH2 0x3CB3 JUMPI DUP1 PUSH4 0x52766D80 EQ PUSH2 0x3C2D JUMPI DUP1 PUSH4 0x53EE895D EQ PUSH2 0x3AC5 JUMPI DUP1 PUSH4 0x5F8439E3 EQ PUSH2 0x395E JUMPI DUP1 PUSH4 0x6CB0ADBA EQ PUSH2 0x392D JUMPI DUP1 PUSH4 0x6EE93613 EQ PUSH2 0x38C1 JUMPI DUP1 PUSH4 0x6FC94CFE EQ PUSH2 0x3517 JUMPI DUP1 PUSH4 0x716C0BBC EQ PUSH2 0x3491 JUMPI DUP1 PUSH4 0x71E9D3CD EQ PUSH2 0x30EC JUMPI DUP1 PUSH4 0x793D2083 EQ PUSH2 0x3027 JUMPI DUP1 PUSH4 0x868A654B EQ PUSH2 0x2FE8 JUMPI DUP1 PUSH4 0x90AADADD EQ PUSH2 0x2BFC JUMPI DUP1 PUSH4 0x93197796 EQ PUSH2 0x2B61 JUMPI DUP1 PUSH4 0x98E421FC EQ PUSH2 0x2B27 JUMPI DUP1 PUSH4 0x9C210608 EQ PUSH2 0x2A9B JUMPI DUP1 PUSH4 0x9ECB0522 EQ PUSH2 0x2A09 JUMPI DUP1 PUSH4 0xA47290EB EQ PUSH2 0x29EB JUMPI DUP1 PUSH4 0xB34287CC EQ PUSH2 0x23CC JUMPI DUP1 PUSH4 0xB7FEEC33 EQ PUSH2 0x2398 JUMPI DUP1 PUSH4 0xC9F8CC67 EQ PUSH2 0x21A5 JUMPI DUP1 PUSH4 0xD744CB57 EQ PUSH2 0x20B0 JUMPI DUP1 PUSH4 0xE1140111 EQ PUSH2 0x1438 JUMPI DUP1 PUSH4 0xE89E4ED6 EQ PUSH2 0x1225 JUMPI DUP1 PUSH4 0xEE4C80A0 EQ PUSH2 0x1080 JUMPI DUP1 PUSH4 0xF0F3F2C8 EQ PUSH2 0xC68 JUMPI PUSH4 0xFF7C53E6 EQ PUSH2 0x21A JUMPI CODESIZE PUSH2 0x10 JUMP JUMPDEST CALLVALUE PUSH2 0xC63 JUMPI PUSH2 0x120 CALLDATASIZE PUSH1 0x3 NOT ADD SLT PUSH2 0xC63 JUMPI PUSH1 0x24 CALLDATALOAD PUSH1 0xFF DUP2 AND DUP2 SUB PUSH2 0xC63 JUMPI PUSH1 0x44 CALLDATALOAD PUSH1 0x1 PUSH1 0x1 PUSH1 0x40 SHL SUB DUP2 GT PUSH2 0xC63 JUMPI PUSH2 0x258 SWAP1 CALLDATASIZE SWAP1 PUSH1 0x4 ADD PUSH2 0x5385 JUMP JUMPDEST PUSH1 0x64 CALLDATALOAD PUSH1 0x1 PUSH1 0x1 PUSH1 0x40 SHL SUB DUP2 GT PUSH2 0xC63 JUMPI PUSH2 0x277 SWAP1 CALLDATASIZE SWAP1 PUSH1 0x4 ADD PUSH2 0x5385 JUMP JUMPDEST PUSH1 0x84 CALLDATALOAD PUSH1 0x1 PUSH1 0x1 PUSH1 0x40 SHL SUB DUP2 GT PUSH2 0xC63 JUMPI PUSH2 0x296 SWAP1 CALLDATASIZE SWAP1 PUSH1 0x4 ADD PUSH2 0x5385 JUMP JUMPDEST SWAP2 PUSH1 0xE4 CALLDATALOAD PUSH1 0x1 PUSH1 0x1 PUSH1 0x40 SHL SUB DUP2 GT PUSH2 0xC63 JUMPI PUSH2 0x2B6 SWAP1 CALLDATASIZE SWAP1 PUSH1 0x4 ADD PUSH2 0x5385 JUMP JUMPDEST SWAP4 PUSH1 0x4 CALLDATALOAD PUSH1 0x0 MSTORE PUSH1 0x6 PUSH1 0x20 MSTORE PUSH2 0x2E2 PUSH1 0x2 PUSH1 0xFF PUSH1 0x6 PUSH1 0x40 PUSH1 0x0 KECCAK256 ADD SLOAD AND PUSH2 0x2DC DUP2 PUSH2 0x5190 JUMP JUMPDEST EQ PUSH2 0x55DB JUMP JUMPDEST PUSH1 0x4 CALLDATALOAD PUSH1 0x0 MSTORE PUSH1 0xC PUSH1 0x20 MSTORE PUSH2 0x305 PUSH1 0x1 DUP1 PUSH1 0xA0 SHL SUB PUSH1 0x40 PUSH1 0x0 KECCAK256 SLOAD AND CALLER EQ PUSH2 0x561D JUMP JUMPDEST PUSH1 0x14 PUSH1 0xFF DUP3 AND EQ SWAP1 DUP2 DUP1 ISZERO PUSH2 0xC56 JUMPI JUMPDEST DUP1 ISZERO PUSH2 0xC49 JUMPI JUMPDEST DUP1 ISZERO PUSH2 0xC3C JUMPI JUMPDEST DUP1 ISZERO PUSH2 0xC2F JUMPI JUMPDEST ISZERO PUSH2 0xBEA JUMPI PUSH2 0x33A PUSH1 0x2 SLOAD PUSH2 0x548D JUMP JUMPDEST DUP1 PUSH1 0x2 SSTORE PUSH1 0x4 CALLDATALOAD PUSH1 0x0 MSTORE PUSH1 0x6 PUSH1 0x20 MSTORE PUSH1 0x1 PUSH1 0x40 PUSH1 0x0 KECCAK256 ADD SLOAD SWAP3 DUP4 PUSH1 0x0 MSTORE PUSH1 0x5 PUSH1 0x20 MSTORE PUSH1 0x40 PUSH1 0x0 KECCAK256 PUSH1 0x64 PUSH2 0x374 PUSH1 0xFF DUP7 AND PUSH1 0x2 DUP5 ADD SLOAD PUSH2 0x5669 JUMP JUMPDEST DIV SWAP2 PUSH1 0x60 SWAP1 ISZERO PUSH2 0xB73 JUMPI POP PUSH1 0x12 PUSH2 0x38B SWAP2 ADD PUSH2 0x52AE JUMP JUMPDEST SWAP8 JUMPDEST PUSH2 0x39C PUSH1 0xC4 CALLDATALOAD PUSH1 0xA4 CALLDATALOAD DUP8 PUSH2 0x571E JUMP JUMPDEST SWAP6 PUSH1 0x40 MLOAD SWAP10 DUP11 PUSH2 0x280 DUP2 ADD LT PUSH1 0x1 PUSH1 0x1 PUSH1 0x40 SHL SUB PUSH2 0x280 DUP14 ADD GT OR PUSH2 0x8EC JUMPI PUSH2 0x280 DUP12 ADD PUSH1 0x40 MSTORE DUP5 DUP12 MSTORE DUP7 PUSH1 0x20 DUP13 ADD MSTORE PUSH1 0x4 CALLDATALOAD PUSH1 0x40 DUP13 ADD MSTORE PUSH1 0xFF DUP7 AND PUSH1 0x60 DUP13 ADD MSTORE PUSH1 0x80 DUP12 ADD MSTORE PUSH1 0xA0 DUP11 ADD MSTORE DUP7 PUSH1 0xC0 DUP11 ADD MSTORE DUP8 PUSH1 0xE0 DUP11 ADD MSTORE PUSH1 0xA4 CALLDATALOAD PUSH2 0x100 DUP11 ADD MSTORE PUSH1 0xC4 CALLDATALOAD PUSH2 0x120 DUP11 ADD MSTORE DUP6 ISZERO ISZERO PUSH2 0x140 DUP11 ADD MSTORE PUSH2 0x160 DUP10 ADD MSTORE PUSH2 0x104 CALLDATALOAD PUSH2 0x180 DUP10 ADD MSTORE PUSH2 0x1A0 DUP9 ADD MSTORE PUSH1 0x0 PUSH2 0x1C0 DUP9 ADD MSTORE PUSH1 0x1 PUSH2 0x1E0 DUP9 ADD MSTORE TIMESTAMP PUSH2 0x200 DUP9 ADD MSTORE PUSH1 0x0 PUSH2 0x220 DUP9 ADD MSTORE PUSH1 0x40 MLOAD PUSH2 0x44F DUP2 PUSH2 0x5272 JUMP JUMPDEST PUSH1 0x0 DUP2 MSTORE PUSH2 0x240 DUP9 ADD MSTORE PUSH1 0x1 PUSH2 0x260 DUP9 ADD MSTORE PUSH1 0x0 MSTORE PUSH1 0x7 PUSH1 0x20 MSTORE PUSH1 0x40 PUSH1 0x0 KECCAK256 DUP7 MLOAD DUP2 SSTORE PUSH1 0x20 DUP8 ADD MLOAD PUSH1 0x1 DUP3 ADD SSTORE PUSH1 0x40 DUP8 ADD MLOAD PUSH1 0x2 DUP3 ADD SSTORE PUSH1 0x3 DUP2 ADD PUSH1 0xFF PUSH1 0x60 DUP10 ADD MLOAD AND PUSH1 0xFF NOT DUP3 SLOAD AND OR SWAP1 SSTORE PUSH1 0x80 DUP8 ADD MLOAD DUP1 MLOAD SWAP1 PUSH1 0x1 PUSH1 0x1 PUSH1 0x40 SHL SUB DUP3 GT PUSH2 0x8EC JUMPI DUP2 SWAP1 PUSH2 0x4CD DUP3 PUSH2 0x4C4 PUSH1 0x4 DUP8 ADD SLOAD PUSH2 0x51CA JUMP JUMPDEST PUSH1 0x4 DUP8 ADD PUSH2 0x54B3 JUMP JUMPDEST PUSH1 0x20 SWAP1 PUSH1 0x1F DUP4 GT PUSH1 0x1 EQ PUSH2 0xB01 JUMPI PUSH1 0x0 SWAP3 PUSH2 0xAF6 JUMPI JUMPDEST POP POP DUP2 PUSH1 0x1 SHL SWAP2 PUSH1 0x0 NOT SWAP1 PUSH1 0x3 SHL SHR NOT AND OR PUSH1 0x4 DUP3 ADD SSTORE JUMPDEST PUSH1 0xA0 DUP8 ADD MLOAD DUP1 MLOAD SWAP1 PUSH1 0x1 PUSH1 0x1 PUSH1 0x40 SHL SUB DUP3 GT PUSH2 0x8EC JUMPI DUP2 SWAP1 PUSH2 0x52D DUP3 PUSH2 0x524 PUSH1 0x5 DUP8 ADD SLOAD PUSH2 0x51CA JUMP JUMPDEST PUSH1 0x5 DUP8 ADD PUSH2 0x54B3 JUMP JUMPDEST PUSH1 0x20 SWAP1 PUSH1 0x1F DUP4 GT PUSH1 0x1 EQ PUSH2 0xA84 JUMPI PUSH1 0x0 SWAP3 PUSH2 0xA79 JUMPI JUMPDEST POP POP DUP2 PUSH1 0x1 SHL SWAP2 PUSH1 0x0 NOT SWAP1 PUSH1 0x3 SHL SHR NOT AND OR PUSH1 0x5 DUP3 ADD SSTORE JUMPDEST PUSH1 0xC0 DUP8 ADD MLOAD DUP1 MLOAD SWAP1 PUSH1 0x1 PUSH1 0x1 PUSH1 0x40 SHL SUB DUP3 GT PUSH2 0x8EC JUMPI DUP2 SWAP1 PUSH2 0x58D DUP3 PUSH2 0x584 PUSH1 0x6 DUP8 ADD SLOAD PUSH2 0x51CA JUMP JUMPDEST PUSH1 0x6 DUP8 ADD PUSH2 0x54B3 JUMP JUMPDEST PUSH1 0x20 SWAP1 PUSH1 0x1F DUP4 GT PUSH1 0x1 EQ PUSH2 0xA07 JUMPI PUSH1 0x0 SWAP3 PUSH2 0x9FC JUMPI JUMPDEST POP POP DUP2 PUSH1 0x1 SHL SWAP2 PUSH1 0x0 NOT SWAP1 PUSH1 0x3 SHL SHR NOT AND OR PUSH1 0x6 DUP3 ADD SSTORE JUMPDEST PUSH1 0xE0 DUP8 ADD MLOAD DUP1 MLOAD SWAP1 PUSH1 0x1 PUSH1 0x1 PUSH1 0x40 SHL SUB DUP3 GT PUSH2 0x8EC JUMPI DUP2 SWAP1 PUSH2 0x5ED DUP3 PUSH2 0x5E4 PUSH1 0x7 DUP8 ADD SLOAD PUSH2 0x51CA JUMP JUMPDEST PUSH1 0x7 DUP8 ADD PUSH2 0x54B3 JUMP JUMPDEST PUSH1 0x20 SWAP1 PUSH1 0x1F DUP4 GT PUSH1 0x1 EQ PUSH2 0x98A JUMPI PUSH1 0x0 SWAP3 PUSH2 0x97F JUMPI JUMPDEST POP POP DUP2 PUSH1 0x1 SHL SWAP2 PUSH1 0x0 NOT SWAP1 PUSH1 0x3 SHL SHR NOT AND OR PUSH1 0x7 DUP3 ADD SSTORE JUMPDEST PUSH2 0x100 DUP8 ADD MLOAD PUSH1 0x8 DUP3 ADD SSTORE PUSH2 0x120 DUP8 ADD MLOAD PUSH1 0x9 DUP3 ADD SSTORE PUSH2 0x651 PUSH2 0x140 DUP9 ADD MLOAD ISZERO ISZERO PUSH1 0xA DUP4 ADD SWAP1 PUSH1 0xFF DUP1 NOT DUP4 SLOAD AND SWAP2 ISZERO ISZERO AND OR SWAP1 SSTORE JUMP JUMPDEST PUSH2 0x160 DUP8 ADD MLOAD DUP1 MLOAD SWAP1 PUSH1 0x1 PUSH1 0x1 PUSH1 0x40 SHL SUB DUP3 GT PUSH2 0x8EC JUMPI DUP2 SWAP1 PUSH2 0x684 DUP3 PUSH2 0x67B PUSH1 0xB DUP8 ADD SLOAD PUSH2 0x51CA JUMP JUMPDEST PUSH1 0xB DUP8 ADD PUSH2 0x54B3 JUMP JUMPDEST PUSH1 0x20 SWAP1 PUSH1 0x1F DUP4 GT PUSH1 0x1 EQ PUSH2 0x90D JUMPI PUSH1 0x0 SWAP3 PUSH2 0x902 JUMPI JUMPDEST POP POP DUP2 PUSH1 0x1 SHL SWAP2 PUSH1 0x0 NOT SWAP1 PUSH1 0x3 SHL SHR NOT AND OR PUSH1 0xB DUP3 ADD SSTORE JUMPDEST PUSH2 0x180 DUP8 ADD MLOAD PUSH1 0xC DUP3 ADD SSTORE PUSH2 0x1A0 DUP8 ADD MLOAD PUSH1 0xD DUP3 ADD SSTORE PUSH2 0x1C0 DUP8 ADD MLOAD PUSH1 0xE DUP3 ADD SSTORE PUSH2 0x6EE PUSH2 0x1E0 DUP9 ADD MLOAD PUSH2 0x6E5 DUP2 PUSH2 0x5190 JUMP JUMPDEST PUSH1 0xF DUP4 ADD PUSH2 0x54F8 JUMP JUMPDEST PUSH2 0x200 DUP8 ADD MLOAD PUSH1 0x10 DUP3 ADD SSTORE PUSH2 0x220 DUP8 ADD MLOAD PUSH1 0x11 DUP3 ADD SSTORE PUSH2 0x240 DUP8 ADD MLOAD SWAP7 DUP8 MLOAD PUSH1 0x1 PUSH1 0x1 PUSH1 0x40 SHL SUB DUP2 GT PUSH2 0x8EC JUMPI PUSH1 0x20 SWAP9 PUSH2 0x738 DUP3 PUSH2 0x72F PUSH1 0x12 DUP8 ADD SLOAD PUSH2 0x51CA JUMP JUMPDEST PUSH1 0x12 DUP8 ADD PUSH2 0x54B3 JUMP JUMPDEST DUP10 SWAP1 PUSH1 0x1F DUP4 GT PUSH1 0x1 EQ PUSH2 0x85F JUMPI PUSH2 0x260 PUSH2 0x839 SWAP7 SWAP5 DUP5 PUSH2 0x79F SWAP6 PUSH1 0x0 DUP1 MLOAD PUSH1 0x20 PUSH2 0x58B9 DUP4 CODECOPY DUP2 MLOAD SWAP2 MSTORE SWAP12 SWAP11 SWAP9 SWAP6 PUSH1 0x13 SWAP6 PUSH1 0x0 SWAP3 PUSH2 0x854 JUMPI JUMPDEST POP POP DUP2 PUSH1 0x1 SHL SWAP2 PUSH1 0x0 NOT SWAP1 PUSH1 0x3 SHL SHR NOT AND OR PUSH1 0x12 DUP6 ADD SSTORE JUMPDEST ADD MLOAD ISZERO ISZERO SWAP2 ADD SWAP1 PUSH1 0xFF DUP1 NOT DUP4 SLOAD AND SWAP2 ISZERO ISZERO AND OR SWAP1 SSTORE JUMP JUMPDEST DUP2 PUSH1 0x0 MSTORE PUSH1 0xA DUP9 MSTORE PUSH2 0x7B8 PUSH1 0x40 PUSH1 0x0 KECCAK256 PUSH1 0x2 SLOAD SWAP1 PUSH2 0x5555 JUMP JUMPDEST PUSH32 0xCA071656A3D7F869038B9236BE798B77DBBC7EE420088326A529152F4A072D92 PUSH1 0x2 SLOAD SWAP8 DUP9 SWAP8 DUP9 SWAP4 PUSH1 0xFF PUSH1 0x40 MLOAD SWAP2 AND DUP2 MSTORE DUP5 PUSH32 0xA4F370DE0D910B9E1634436568274EDD60715ADE03E4CF084EFD418A29349D88 DUP14 PUSH1 0x4 CALLDATALOAD SWAP4 LOG3 PUSH2 0x829 PUSH1 0x40 MLOAD SWAP3 DUP4 SWAP3 PUSH1 0xC4 CALLDATALOAD SWAP2 PUSH1 0xA4 CALLDATALOAD SWAP2 DUP6 PUSH2 0x567C JUMP JUMPDEST SUB SWAP1 LOG2 PUSH1 0xC4 CALLDATALOAD SWAP1 PUSH1 0xA4 CALLDATALOAD SWAP1 PUSH2 0x575F JUMP JUMPDEST PUSH1 0x40 DUP1 MLOAD SWAP3 ISZERO ISZERO DUP4 MSTORE PUSH1 0x20 DUP4 ADD SWAP2 SWAP1 SWAP2 MSTORE SWAP1 LOG2 PUSH1 0x40 MLOAD SWAP1 DUP2 MSTORE RETURN JUMPDEST ADD MLOAD SWAP1 POP CODESIZE DUP1 PUSH2 0x770 JUMP JUMPDEST SWAP1 PUSH1 0x12 DUP6 ADD PUSH1 0x0 MSTORE DUP11 PUSH1 0x0 KECCAK256 SWAP2 PUSH1 0x0 JUMPDEST PUSH1 0x1F NOT DUP6 AND DUP2 LT PUSH2 0x8D5 JUMPI POP PUSH2 0x839 SWAP7 SWAP5 PUSH1 0x1 DUP6 PUSH1 0x0 DUP1 MLOAD PUSH1 0x20 PUSH2 0x58B9 DUP4 CODECOPY DUP2 MLOAD SWAP2 MSTORE SWAP12 SWAP11 SWAP9 SWAP6 PUSH1 0x13 SWAP6 PUSH2 0x260 SWAP6 PUSH2 0x79F SWAP10 PUSH1 0x1F NOT DUP2 AND LT PUSH2 0x8BC JUMPI JUMPDEST POP POP POP DUP2 SHL ADD PUSH1 0x12 DUP6 ADD SSTORE PUSH2 0x788 JUMP JUMPDEST ADD MLOAD PUSH1 0x0 NOT PUSH1 0xF8 DUP5 PUSH1 0x3 SHL AND SHR NOT AND SWAP1 SSTORE CODESIZE DUP1 DUP1 PUSH2 0x8AC JUMP JUMPDEST SWAP2 SWAP3 DUP13 PUSH1 0x1 DUP2 SWAP3 DUP7 DUP6 ADD MLOAD DUP2 SSTORE ADD SWAP5 ADD SWAP3 ADD PUSH2 0x86F JUMP JUMPDEST PUSH4 0x4E487B71 PUSH1 0xE0 SHL PUSH1 0x0 MSTORE PUSH1 0x41 PUSH1 0x4 MSTORE PUSH1 0x24 PUSH1 0x0 REVERT JUMPDEST ADD MLOAD SWAP1 POP CODESIZE DUP1 PUSH2 0x69A JUMP JUMPDEST SWAP3 POP PUSH1 0xB DUP5 ADD PUSH1 0x0 MSTORE PUSH1 0x20 PUSH1 0x0 KECCAK256 SWAP1 PUSH1 0x0 SWAP4 JUMPDEST PUSH1 0x1F NOT DUP5 AND DUP6 LT PUSH2 0x964 JUMPI PUSH1 0x1 SWAP5 POP DUP4 PUSH1 0x1F NOT DUP2 AND LT PUSH2 0x94B JUMPI JUMPDEST POP POP POP DUP2 SHL ADD PUSH1 0xB DUP3 ADD SSTORE PUSH2 0x6B2 JUMP JUMPDEST ADD MLOAD PUSH1 0x0 NOT PUSH1 0xF8 DUP5 PUSH1 0x3 SHL AND SHR NOT AND SWAP1 SSTORE CODESIZE DUP1 DUP1 PUSH2 0x93B JUMP JUMPDEST DUP2 DUP2 ADD MLOAD DUP4 SSTORE PUSH1 0x20 SWAP5 DUP6 ADD SWAP5 PUSH1 0x1 SWAP1 SWAP4 ADD SWAP3 SWAP1 SWAP2 ADD SWAP1 PUSH2 0x920 JUMP JUMPDEST ADD MLOAD SWAP1 POP CODESIZE DUP1 PUSH2 0x603 JUMP JUMPDEST SWAP3 POP PUSH1 0x7 DUP5 ADD PUSH1 0x0 MSTORE PUSH1 0x20 PUSH1 0x0 KECCAK256 SWAP1 PUSH1 0x0 SWAP4 JUMPDEST PUSH1 0x1F NOT DUP5 AND DUP6 LT PUSH2 0x9E1 JUMPI PUSH1 0x1 SWAP5 POP DUP4 PUSH1 0x1F NOT DUP2 AND LT PUSH2 0x9C8 JUMPI JUMPDEST POP POP POP DUP2 SHL ADD PUSH1 0x7 DUP3 ADD SSTORE PUSH2 0x61B JUMP JUMPDEST ADD MLOAD PUSH1 0x0 NOT PUSH1 0xF8 DUP5 PUSH1 0x3 SHL AND SHR NOT AND SWAP1 SSTORE CODESIZE DUP1 DUP1 PUSH2 0x9B8 JUMP JUMPDEST DUP2 DUP2 ADD MLOAD DUP4 SSTORE PUSH1 0x20 SWAP5 DUP6 ADD SWAP5 PUSH1 0x1 SWAP1 SWAP4 ADD SWAP3 SWAP1 SWAP2 ADD SWAP1 PUSH2 0x99D JUMP JUMPDEST ADD MLOAD SWAP1 POP CODESIZE DUP1 PUSH2 0x5A3 JUMP JUMPDEST SWAP3 POP PUSH1 0x6 DUP5 ADD PUSH1 0x0 MSTORE PUSH1 0x20 PUSH1 0x0 KECCAK256 SWAP1 PUSH1 0x0 SWAP4 JUMPDEST PUSH1 0x1F NOT DUP5 AND DUP6 LT PUSH2 0xA5E JUMPI PUSH1 0x1 SWAP5 POP DUP4 PUSH1 0x1F NOT DUP2 AND LT PUSH2 0xA45 JUMPI JUMPDEST POP POP POP DUP2 SHL ADD PUSH1 0x6 DUP3 ADD SSTORE PUSH2 0x5BB JUMP JUMPDEST ADD MLOAD PUSH1 0x0 NOT PUSH1 0xF8 DUP5 PUSH1 0x3 SHL AND SHR NOT AND SWAP1 SSTORE CODESIZE DUP1 DUP1 PUSH2 0xA35 JUMP JUMPDEST DUP2 DUP2 ADD MLOAD DUP4 SSTORE PUSH1 0x20 SWAP5 DUP6 ADD SWAP5 PUSH1 0x1 SWAP1 SWAP4 ADD SWAP3 SWAP1 SWAP2 ADD SWAP1 PUSH2 0xA1A JUMP JUMPDEST ADD MLOAD SWAP1 POP CODESIZE DUP1 PUSH2 0x543 JUMP JUMPDEST SWAP3 POP PUSH1 0x5 DUP5 ADD PUSH1 0x0 MSTORE PUSH1 0x20 PUSH1 0x0 KECCAK256 SWAP1 PUSH1 0x0 SWAP4 JUMPDEST PUSH1 0x1F NOT DUP5 AND DUP6 LT PUSH2 0xADB JUMPI PUSH1 0x1 SWAP5 POP DUP4 PUSH1 0x1F NOT DUP2 AND LT PUSH2 0xAC2 JUMPI JUMPDEST POP POP POP DUP2 SHL ADD PUSH1 0x5 DUP3 ADD SSTORE PUSH2 0x55B JUMP JUMPDEST ADD MLOAD PUSH1 0x0 NOT PUSH1 0xF8 DUP5 PUSH1 0x3 SHL AND SHR NOT AND SWAP1 SSTORE CODESIZE DUP1 DUP1 PUSH2 0xAB2 JUMP JUMPDEST DUP2 DUP2 ADD MLOAD DUP4 SSTORE PUSH1 0x20 SWAP5 DUP6 ADD SWAP5 PUSH1 0x1 SWAP1 SWAP4 ADD SWAP3 SWAP1 SWAP2 ADD SWAP1 PUSH2 0xA97 JUMP JUMPDEST ADD MLOAD SWAP1 POP CODESIZE DUP1 PUSH2 0x4E3 JUMP JUMPDEST SWAP3 POP PUSH1 0x4 DUP5 ADD PUSH1 0x0 MSTORE PUSH1 0x20 PUSH1 0x0 KECCAK256 SWAP1 PUSH1 0x0 SWAP4 JUMPDEST PUSH1 0x1F NOT DUP5 AND DUP6 LT PUSH2 0xB58 JUMPI PUSH1 0x1 SWAP5 POP DUP4 PUSH1 0x1F NOT DUP2 AND LT PUSH2 0xB3F JUMPI JUMPDEST POP POP POP DUP2 SHL ADD PUSH1 0x4 DUP3 ADD SSTORE PUSH2 0x4FB JUMP JUMPDEST ADD MLOAD PUSH1 0x0 NOT PUSH1 0xF8 DUP5 PUSH1 0x3 SHL AND SHR NOT AND SWAP1 SSTORE CODESIZE DUP1 DUP1 PUSH2 0xB2F JUMP JUMPDEST DUP2 DUP2 ADD MLOAD DUP4 SSTORE PUSH1 0x20 SWAP5 DUP6 ADD SWAP5 PUSH1 0x1 SWAP1 SWAP4 ADD SWAP3 SWAP1 SWAP2 ADD SWAP1 PUSH2 0xB14 JUMP JUMPDEST PUSH1 0xFF DUP6 AND PUSH1 0x28 SUB PUSH2 0xB91 JUMPI POP PUSH1 0x13 PUSH2 0xB8B SWAP2 ADD PUSH2 0x52AE JUMP JUMPDEST SWAP8 PUSH2 0x38D JUMP JUMPDEST PUSH1 0xFF DUP6 AND PUSH1 0x3C SUB PUSH2 0xBA9 JUMPI POP PUSH1 0x14 PUSH2 0xB8B SWAP2 ADD PUSH2 0x52AE JUMP JUMPDEST PUSH1 0xFF DUP6 AND PUSH1 0x50 SUB PUSH2 0xBC1 JUMPI POP PUSH1 0x15 PUSH2 0xB8B SWAP2 ADD PUSH2 0x52AE JUMP JUMPDEST SWAP9 SWAP1 PUSH1 0x64 PUSH1 0xFF DUP7 AND EQ PUSH2 0xBD5 JUMPI JUMPDEST POP PUSH2 0x38D JUMP JUMPDEST PUSH2 0xBE3 SWAP2 SWAP10 POP PUSH1 0x16 ADD PUSH2 0x52AE JUMP JUMPDEST SWAP8 CODESIZE PUSH2 0xBCF JUMP JUMPDEST PUSH1 0x40 MLOAD PUSH3 0x461BCD PUSH1 0xE5 SHL DUP2 MSTORE PUSH1 0x20 PUSH1 0x4 DUP3 ADD MSTORE PUSH1 0x1C PUSH1 0x24 DUP3 ADD MSTORE PUSH32 0x496E76616C6964206D696C6573746F6E652070657263656E7461676500000000 PUSH1 0x44 DUP3 ADD MSTORE PUSH1 0x64 SWAP1 REVERT JUMPDEST POP PUSH1 0x64 PUSH1 0xFF DUP3 AND EQ PUSH2 0x32A JUMP JUMPDEST POP PUSH1 0x50 PUSH1 0xFF DUP3 AND EQ PUSH2 0x323 JUMP JUMPDEST POP PUSH1 0x3C PUSH1 0xFF DUP3 AND EQ PUSH2 0x31C JUMP JUMPDEST POP PUSH1 0x28 PUSH1 0xFF DUP3 AND EQ PUSH2 0x315 JUMP JUMPDEST PUSH1 0x0 DUP1 REVERT JUMPDEST CALLVALUE PUSH2 0xC63 JUMPI PUSH1 0x20 CALLDATASIZE PUSH1 0x3 NOT ADD SLT PUSH2 0xC63 JUMPI PUSH1 0x60 PUSH2 0x2C0 PUSH1 0x40 MLOAD PUSH2 0xC8A DUP2 PUSH2 0x523B JUMP JUMPDEST PUSH1 0x0 DUP2 MSTORE DUP3 PUSH1 0x20 DUP3 ADD MSTORE PUSH1 0x0 PUSH1 0x40 DUP3 ADD MSTORE PUSH1 0x0 DUP4 DUP3 ADD MSTORE PUSH1 0x0 PUSH1 0x80 DUP3 ADD MSTORE PUSH1 0x0 PUSH1 0xA0 DUP3 ADD MSTORE PUSH1 0x0 PUSH1 0xC0 DUP3 ADD MSTORE PUSH1 0x0 PUSH1 0xE0 DUP3 ADD MSTORE DUP3 PUSH2 0x100 DUP3 ADD MSTORE DUP3 PUSH2 0x120 DUP3 ADD MSTORE DUP3 PUSH2 0x140 DUP3 ADD MSTORE DUP3 PUSH2 0x160 DUP3 ADD MSTORE DUP3 PUSH2 0x180 DUP3 ADD MSTORE PUSH1 0x0 PUSH2 0x1A0 DUP3 ADD MSTORE PUSH1 0x0 PUSH2 0x1C0 DUP3 ADD MSTORE PUSH1 0x0 PUSH2 0x1E0 DUP3 ADD MSTORE PUSH1 0x0 PUSH2 0x200 DUP3 ADD MSTORE PUSH1 0x0 PUSH2 0x220 DUP3 ADD MSTORE DUP3 PUSH2 0x240 DUP3 ADD MSTORE DUP3 PUSH2 0x260 DUP3 ADD MSTORE DUP3 PUSH2 0x280 DUP3 ADD MSTORE DUP3 PUSH2 0x2A0 DUP3 ADD MSTORE ADD MSTORE PUSH1 0x4 CALLDATALOAD DUP1 PUSH1 0x0 MSTORE PUSH1 0x5 PUSH1 0x20 MSTORE PUSH2 0xD46 PUSH1 0xFF PUSH1 0x11 PUSH1 0x40 PUSH1 0x0 KECCAK256 ADD SLOAD AND PUSH2 0x5510 JUMP JUMPDEST PUSH1 0x0 MSTORE PUSH1 0x5 PUSH1 0x20 MSTORE PUSH2 0x107C PUSH1 0x40 PUSH1 0x0 KECCAK256 PUSH2 0xEB2 PUSH1 0x16 PUSH1 0x40 MLOAD SWAP3 PUSH2 0xD68 DUP5 PUSH2 0x523B JUMP JUMPDEST DUP1 SLOAD DUP5 MSTORE PUSH2 0xD78 PUSH1 0x1 DUP3 ADD PUSH2 0x52AE JUMP JUMPDEST PUSH1 0x20 DUP6 ADD MSTORE PUSH1 0x2 DUP2 ADD SLOAD PUSH1 0x40 DUP6 ADD MSTORE PUSH1 0x3 DUP2 ADD SLOAD PUSH1 0x60 DUP6 ADD MSTORE PUSH1 0x4 DUP2 ADD SLOAD PUSH1 0x80 DUP6 ADD MSTORE PUSH1 0x5 DUP2 ADD SLOAD PUSH1 0x1 PUSH1 0x1 PUSH1 0xA0 SHL SUB AND PUSH1 0xA0 DUP6 ADD MSTORE PUSH1 0x6 DUP2 ADD SLOAD PUSH1 0xC0 DUP6 ADD MSTORE PUSH1 0x7 DUP2 ADD SLOAD PUSH1 0xFF AND PUSH2 0xDC9 DUP2 PUSH2 0x5190 JUMP JUMPDEST PUSH1 0xE0 DUP6 ADD MSTORE PUSH2 0xDDA PUSH1 0x8 DUP3 ADD PUSH2 0x52AE JUMP JUMPDEST PUSH2 0x100 DUP6 ADD MSTORE PUSH2 0xDEC PUSH1 0x9 DUP3 ADD PUSH2 0x52AE JUMP JUMPDEST PUSH2 0x120 DUP6 ADD MSTORE PUSH2 0xDFE PUSH1 0xA DUP3 ADD PUSH2 0x52AE JUMP JUMPDEST PUSH2 0x140 DUP6 ADD MSTORE PUSH2 0xE10 PUSH1 0xB DUP3 ADD PUSH2 0x52AE JUMP JUMPDEST PUSH2 0x160 DUP6 ADD MSTORE PUSH2 0xE22 PUSH1 0xC DUP3 ADD PUSH2 0x52AE JUMP JUMPDEST PUSH2 0x180 DUP6 ADD MSTORE PUSH1 0xD DUP2 ADD SLOAD PUSH2 0x1A0 DUP6 ADD MSTORE PUSH1 0xE DUP2 ADD SLOAD PUSH2 0x1C0 DUP6 ADD MSTORE PUSH1 0xF DUP2 ADD SLOAD PUSH2 0x1E0 DUP6 ADD MSTORE PUSH1 0x10 DUP2 ADD SLOAD PUSH2 0x200 DUP6 ADD MSTORE PUSH1 0xFF PUSH1 0x11 DUP3 ADD SLOAD AND ISZERO ISZERO PUSH2 0x220 DUP6 ADD MSTORE PUSH2 0xE70 PUSH1 0x12 DUP3 ADD PUSH2 0x52AE JUMP JUMPDEST PUSH2 0x240 DUP6 ADD MSTORE PUSH2 0xE82 PUSH1 0x13 DUP3 ADD PUSH2 0x52AE JUMP JUMPDEST PUSH2 0x260 DUP6 ADD MSTORE PUSH2 0xE94 PUSH1 0x14 DUP3 ADD PUSH2 0x52AE JUMP JUMPDEST PUSH2 0x280 DUP6 ADD MSTORE PUSH2 0xEA6 PUSH1 0x15 DUP3 ADD PUSH2 0x52AE JUMP JUMPDEST PUSH2 0x2A0 DUP6 ADD MSTORE ADD PUSH2 0x52AE JUMP JUMPDEST PUSH2 0x2C0 DUP3 ADD MSTORE PUSH1 0x40 MLOAD SWAP2 DUP3 SWAP2 PUSH1 0x20 DUP4 MSTORE DUP1 MLOAD PUSH1 0x20 DUP5 ADD MSTORE PUSH2 0x2C0 PUSH2 0x1067 PUSH2 0x1051 PUSH2 0x1039 PUSH2 0x1021 PUSH2 0xFCB PUSH2 0xFB3 PUSH2 0xF9B PUSH2 0xF83 PUSH2 0xF6B DUP11 DUP14 PUSH2 0x100 PUSH1 0xE0 PUSH2 0xF09 PUSH1 0x20 DUP6 ADD MLOAD PUSH2 0x2E0 PUSH1 0x40 DUP7 ADD MSTORE PUSH2 0x300 DUP6 ADD SWAP1 PUSH2 0x5150 JUMP JUMPDEST SWAP4 PUSH1 0x40 DUP2 ADD MLOAD PUSH1 0x60 DUP6 ADD MSTORE PUSH1 0x60 DUP2 ADD MLOAD PUSH1 0x80 DUP6 ADD MSTORE PUSH1 0x80 DUP2 ADD MLOAD PUSH1 0xA0 DUP6 ADD MSTORE PUSH1 0x1 DUP1 PUSH1 0xA0 SHL SUB PUSH1 0xA0 DUP3 ADD MLOAD AND PUSH1 0xC0 DUP6 ADD MSTORE PUSH1 0xC0 DUP2 ADD MLOAD DUP3 DUP6 ADD MSTORE ADD MLOAD SWAP2 PUSH2 0xF4F DUP4 PUSH2 0x5190 JUMP JUMPDEST ADD MSTORE DUP14 PUSH2 0x100 DUP14 ADD MLOAD SWAP1 PUSH2 0x120 PUSH1 0x1F NOT DUP3 DUP6 SUB ADD SWAP2 ADD MSTORE PUSH2 0x5150 JUMP JUMPDEST PUSH2 0x120 DUP12 ADD MLOAD DUP14 DUP3 SUB PUSH1 0x1F NOT ADD PUSH2 0x140 DUP16 ADD MSTORE PUSH2 0x5150 JUMP JUMPDEST PUSH2 0x140 DUP11 ADD MLOAD DUP13 DUP3 SUB PUSH1 0x1F NOT ADD PUSH2 0x160 DUP15 ADD MSTORE PUSH2 0x5150 JUMP JUMPDEST PUSH2 0x160 DUP10 ADD MLOAD DUP12 DUP3 SUB PUSH1 0x1F NOT ADD PUSH2 0x180 DUP14 ADD MSTORE PUSH2 0x5150 JUMP JUMPDEST PUSH2 0x180 DUP9 ADD MLOAD DUP11 DUP3 SUB PUSH1 0x1F NOT ADD PUSH2 0x1A0 DUP13 ADD MSTORE PUSH2 0x5150 JUMP JUMPDEST PUSH2 0x1A0 DUP8 ADD MLOAD PUSH2 0x1C0 DUP11 ADD MSTORE PUSH2 0x1C0 DUP8 ADD MLOAD PUSH2 0x1E0 DUP11 ADD MSTORE PUSH2 0x1E0 DUP8 ADD MLOAD PUSH2 0x200 DUP11 ADD MSTORE PUSH2 0x200 DUP8 ADD MLOAD PUSH2 0x220 DUP11 ADD MSTORE PUSH2 0x220 DUP8 ADD MLOAD ISZERO ISZERO PUSH2 0x240 DUP11 ADD MSTORE PUSH2 0x240 DUP8 ADD MLOAD PUSH1 0x1F NOT DUP11 DUP4 SUB ADD PUSH2 0x260 DUP12 ADD MSTORE PUSH2 0x5150 JUMP JUMPDEST PUSH2 0x260 DUP7 ADD MLOAD DUP9 DUP3 SUB PUSH1 0x1F NOT ADD PUSH2 0x280 DUP11 ADD MSTORE PUSH2 0x5150 JUMP JUMPDEST PUSH2 0x280 DUP6 ADD MLOAD DUP8 DUP3 SUB PUSH1 0x1F NOT ADD PUSH2 0x2A0 DUP10 ADD MSTORE PUSH2 0x5150 JUMP JUMPDEST PUSH2 0x2A0 DUP5 ADD MLOAD DUP7 DUP3 SUB PUSH1 0x1F NOT ADD DUP5 DUP9 ADD MSTORE PUSH2 0x5150 JUMP JUMPDEST SWAP2 ADD MLOAD DUP4 DUP3 SUB PUSH1 0x1F NOT ADD PUSH2 0x2E0 DUP6 ADD MSTORE PUSH2 0x5150 JUMP JUMPDEST SUB SWAP1 RETURN JUMPDEST CALLVALUE PUSH2 0xC63 JUMPI PUSH1 0x60 CALLDATASIZE PUSH1 0x3 NOT ADD SLT PUSH2 0xC63 JUMPI PUSH1 0x24 CALLDATALOAD PUSH1 0x4 CALLDATALOAD PUSH1 0x1 PUSH1 0x1 PUSH1 0xA0 SHL SUB DUP3 AND DUP1 DUP4 SUB PUSH2 0xC63 JUMPI DUP2 PUSH1 0x0 MSTORE PUSH1 0x20 SWAP1 PUSH1 0x6 DUP3 MSTORE PUSH1 0x40 PUSH1 0x0 KECCAK256 PUSH1 0x1 DUP2 ADD SLOAD SWAP1 PUSH2 0x10F5 PUSH1 0x40 MLOAD DUP6 DUP2 ADD SWAP1 CALLER PUSH1 0x60 SHL DUP3 MSTORE PUSH1 0x14 DUP2 MSTORE PUSH2 0x10DB DUP2 PUSH2 0x5257 JUMP JUMPDEST MLOAD SWAP1 KECCAK256 DUP4 PUSH1 0x0 MSTORE PUSH1 0x5 DUP7 MSTORE PUSH1 0x6 PUSH1 0x40 PUSH1 0x0 KECCAK256 ADD SLOAD EQ PUSH2 0x558F JUMP JUMPDEST PUSH1 0x40 MLOAD SWAP6 DUP5 DUP8 ADD SWAP1 PUSH1 0x1 PUSH1 0x1 PUSH1 0x60 SHL SUB NOT SWAP1 PUSH1 0x60 SHL AND DUP2 MSTORE PUSH1 0x44 CALLDATALOAD PUSH1 0x34 DUP9 ADD MSTORE PUSH1 0x34 DUP8 MSTORE PUSH1 0x60 DUP8 ADD SWAP1 DUP8 DUP3 LT PUSH1 0x1 PUSH1 0x1 PUSH1 0x40 SHL SUB DUP4 GT OR PUSH2 0x8EC JUMPI DUP2 PUSH1 0x40 MSTORE DUP8 MLOAD SWAP1 KECCAK256 PUSH1 0x2 DUP4 ADD SLOAD SUB PUSH2 0x11E4 JUMPI POP PUSH32 0x8EF1E92B16BD2E2D0BE9431DB3A64223F23CCE123ADB96B1202BA2F18AC88DB SWAP5 SWAP6 POP PUSH1 0x6 ADD SWAP1 PUSH1 0xFF NOT SWAP2 PUSH1 0x2 DUP4 DUP3 SLOAD AND OR SWAP1 SSTORE DUP6 PUSH1 0x0 MSTORE PUSH1 0xC DUP5 MSTORE PUSH1 0x40 PUSH1 0x0 KECCAK256 DUP4 PUSH1 0x1 PUSH1 0x1 PUSH1 0x60 SHL SUB PUSH1 0xA0 SHL DUP3 SLOAD AND OR SWAP1 SSTORE PUSH1 0x0 MSTORE PUSH1 0x5 DUP4 MSTORE PUSH1 0x7 PUSH1 0x40 PUSH1 0x0 KECCAK256 ADD PUSH1 0x1 DUP3 DUP3 SLOAD AND OR SWAP1 SSTORE DUP2 PUSH1 0x0 MSTORE PUSH1 0xE DUP4 MSTORE PUSH1 0x40 PUSH1 0x0 KECCAK256 PUSH2 0x11C6 DUP2 SLOAD PUSH2 0x548D JUMP JUMPDEST SWAP1 SSTORE DUP2 PUSH1 0x0 MSTORE PUSH1 0xD DUP4 MSTORE PUSH1 0x40 PUSH1 0x0 KECCAK256 SWAP1 DUP2 SLOAD AND SWAP1 SSTORE PUSH1 0x40 MLOAD SWAP1 DUP2 MSTORE LOG2 STOP JUMPDEST PUSH3 0x461BCD PUSH1 0xE5 SHL DUP2 MSTORE PUSH1 0x64 DUP8 DUP2 ADD DUP7 SWAP1 MSTORE PUSH1 0x19 PUSH1 0x84 DUP10 ADD MSTORE PUSH32 0x496E76616C696420636F6E74726163746F722072657665616C00000000000000 PUSH1 0xA4 DUP10 ADD MSTORE SWAP1 REVERT JUMPDEST CALLVALUE PUSH2 0xC63 JUMPI PUSH1 0x20 CALLDATASIZE PUSH1 0x3 NOT ADD SLT PUSH2 0xC63 JUMPI PUSH1 0x4 CALLDATALOAD PUSH1 0x0 MSTORE PUSH1 0x7 PUSH1 0x20 MSTORE PUSH1 0x40 PUSH1 0x0 KECCAK256 DUP1 SLOAD PUSH2 0x2A0 MSTORE PUSH1 0x1 DUP2 ADD SLOAD SWAP1 PUSH1 0x2 DUP2 ADD SLOAD PUSH1 0x80 MSTORE PUSH1 0x3 DUP2 ADD SLOAD PUSH1 0xFF AND PUSH2 0x1C0 MSTORE PUSH1 0x4 DUP2 ADD PUSH2 0x1273 SWAP1 PUSH2 0x52AE JUMP JUMPDEST SWAP2 PUSH2 0x1280 PUSH1 0x5 DUP4 ADD PUSH2 0x52AE JUMP JUMPDEST SWAP3 PUSH2 0x128D PUSH1 0x6 DUP5 ADD PUSH2 0x52AE JUMP JUMPDEST PUSH2 0x1299 PUSH1 0x7 DUP6 ADD PUSH2 0x52AE JUMP JUMPDEST PUSH1 0x8 DUP6 ADD SLOAD SWAP1 PUSH1 0x9 DUP7 ADD SLOAD PUSH1 0xA DUP8 ADD SLOAD PUSH1 0xFF AND SWAP2 PUSH1 0xB DUP9 ADD PUSH2 0x12BA SWAP1 PUSH2 0x52AE JUMP JUMPDEST SWAP5 PUSH1 0xC DUP10 ADD SLOAD PUSH2 0x2E0 MSTORE PUSH1 0xD DUP10 ADD SLOAD SWAP10 PUSH1 0xE DUP11 ADD SLOAD SWAP8 PUSH1 0xF DUP12 ADD SLOAD PUSH1 0xFF AND SWAP10 PUSH1 0x10 DUP13 ADD SLOAD SWAP12 PUSH1 0x11 DUP2 ADD SLOAD PUSH1 0xE0 MSTORE PUSH1 0x12 DUP2 ADD PUSH2 0x12F4 SWAP1 PUSH2 0x52AE JUMP JUMPDEST PUSH2 0x240 MSTORE PUSH1 0x13 ADD SLOAD PUSH1 0xFF AND PUSH2 0x200 MSTORE PUSH1 0x40 MLOAD DUP1 PUSH2 0x1A0 MSTORE PUSH2 0x2A0 MLOAD SWAP1 MSTORE PUSH2 0x1A0 MLOAD PUSH1 0x20 ADD MSTORE PUSH1 0x80 MLOAD PUSH2 0x1A0 MLOAD PUSH1 0x40 ADD MSTORE PUSH2 0x1C0 MLOAD PUSH2 0x1A0 MLOAD PUSH1 0x60 ADD MSTORE PUSH2 0x280 DUP1 PUSH2 0x1A0 MLOAD PUSH1 0x80 ADD MSTORE PUSH2 0x1A0 MLOAD ADD PUSH2 0x134A SWAP2 PUSH2 0x5150 JUMP JUMPDEST PUSH2 0x1A0 MLOAD DUP1 DUP3 SUB SWAP1 PUSH1 0xA0 ADD MSTORE PUSH2 0x135F SWAP2 PUSH2 0x5150 JUMP JUMPDEST PUSH2 0x1A0 MLOAD DUP1 DUP3 SUB SWAP1 PUSH1 0xC0 ADD MSTORE PUSH2 0x1374 SWAP2 PUSH2 0x5150 JUMP JUMPDEST PUSH2 0x1A0 MLOAD DUP1 DUP3 SUB SWAP1 PUSH1 0xE0 ADD MSTORE PUSH2 0x1389 SWAP2 PUSH2 0x5150 JUMP JUMPDEST SWAP3 PUSH2 0x1A0 MLOAD PUSH2 0x100 ADD MSTORE PUSH2 0x1A0 MLOAD PUSH2 0x120 ADD MSTORE ISZERO ISZERO PUSH2 0x1A0 MLOAD PUSH2 0x140 ADD MSTORE PUSH2 0x1A0 MLOAD DUP1 DUP3 SUB SWAP1 PUSH2 0x160 ADD MSTORE PUSH2 0x13BD SWAP2 PUSH2 0x5150 JUMP JUMPDEST SWAP4 PUSH2 0x2E0 MLOAD PUSH2 0x1A0 MLOAD PUSH2 0x180 ADD MSTORE PUSH2 0x1A0 MLOAD PUSH2 0x1A0 ADD MSTORE PUSH2 0x1A0 MLOAD PUSH2 0x1C0 ADD MSTORE PUSH2 0x13E6 DUP2 PUSH2 0x5190 JUMP JUMPDEST PUSH2 0x1A0 MLOAD PUSH2 0x1E0 ADD MSTORE PUSH2 0x1A0 MLOAD PUSH2 0x200 ADD MSTORE PUSH1 0xE0 MLOAD PUSH2 0x1A0 MLOAD PUSH2 0x220 ADD MSTORE PUSH2 0x1A0 MLOAD DUP1 DUP3 SUB SWAP1 PUSH2 0x240 ADD MSTORE PUSH2 0x240 MLOAD SWAP1 PUSH2 0x141F SWAP2 PUSH2 0x5150 JUMP JUMPDEST PUSH2 0x200 MLOAD ISZERO ISZERO PUSH2 0x1A0 MLOAD PUSH2 0x260 ADD MSTORE PUSH2 0x1A0 MLOAD DUP1 SWAP2 SUB SWAP1 RETURN JUMPDEST CALLVALUE PUSH2 0xC63 JUMPI PUSH2 0x1E0 CALLDATASIZE PUSH1 0x3 NOT ADD SLT PUSH2 0xC63 JUMPI PUSH1 0x4 CALLDATALOAD PUSH1 0x1 PUSH1 0x1 PUSH1 0x40 SHL SUB DUP2 GT PUSH2 0xC63 JUMPI PUSH2 0x1469 SWAP1 CALLDATASIZE SWAP1 PUSH1 0x4 ADD PUSH2 0x5385 JUMP JUMPDEST PUSH1 0x64 CALLDATALOAD PUSH1 0x1 PUSH1 0x1 PUSH1 0x40 SHL SUB DUP2 GT PUSH2 0xC63 JUMPI PUSH2 0x1488 SWAP1 CALLDATASIZE SWAP1 PUSH1 0x4 ADD PUSH2 0x5385 JUMP JUMPDEST SWAP1 PUSH1 0x84 CALLDATALOAD PUSH1 0x1 PUSH1 0x1 PUSH1 0x40 SHL SUB DUP2 GT PUSH2 0xC63 JUMPI PUSH2 0x14A8 SWAP1 CALLDATASIZE SWAP1 PUSH1 0x4 ADD PUSH2 0x5385 JUMP JUMPDEST PUSH1 0xA4 CALLDATALOAD PUSH1 0x1 PUSH1 0x1 PUSH1 0x40 SHL SUB DUP2 GT PUSH2 0xC63 JUMPI PUSH2 0x14C7 SWAP1 CALLDATASIZE SWAP1 PUSH1 0x4 ADD PUSH2 0x5385 JUMP JUMPDEST PUSH1 0xC4 CALLDATALOAD PUSH1 0x1 PUSH1 0x1 PUSH1 0x40 SHL SUB DUP2 GT PUSH2 0xC63 JUMPI PUSH2 0x14E6 SWAP1 CALLDATASIZE SWAP1 PUSH1 0x4 ADD PUSH2 0x5385 JUMP JUMPDEST PUSH1 0xE4 CALLDATALOAD PUSH1 0x1 PUSH1 0x1 PUSH1 0x40 SHL SUB DUP2 GT PUSH2 0xC63 JUMPI PUSH2 0x1505 SWAP1 CALLDATASIZE SWAP1 PUSH1 0x4 ADD PUSH2 0x5385 JUMP JUMPDEST PUSH2 0x144 CALLDATALOAD PUSH1 0x1 PUSH1 0x1 PUSH1 0x40 SHL SUB DUP2 GT PUSH2 0xC63 JUMPI PUSH2 0x1525 SWAP1 CALLDATASIZE SWAP1 PUSH1 0x4 ADD PUSH2 0x5385 JUMP JUMPDEST PUSH2 0x164 CALLDATALOAD PUSH1 0x1 PUSH1 0x1 PUSH1 0x40 SHL SUB DUP2 GT PUSH2 0xC63 JUMPI PUSH2 0x1545 SWAP1 CALLDATASIZE SWAP1 PUSH1 0x4 ADD PUSH2 0x5385 JUMP JUMPDEST SWAP1 PUSH2 0x184 CALLDATALOAD PUSH1 0x1 PUSH1 0x1 PUSH1 0x40 SHL SUB DUP2 GT PUSH2 0xC63 JUMPI PUSH2 0x1566 SWAP1 CALLDATASIZE SWAP1 PUSH1 0x4 ADD PUSH2 0x5385 JUMP JUMPDEST SWAP3 PUSH2 0x1A4 CALLDATALOAD PUSH1 0x1 PUSH1 0x1 PUSH1 0x40 SHL SUB DUP2 GT PUSH2 0xC63 JUMPI PUSH2 0x1587 SWAP1 CALLDATASIZE SWAP1 PUSH1 0x4 ADD PUSH2 0x5385 JUMP JUMPDEST SWAP5 PUSH1 0x1 PUSH1 0x1 PUSH1 0x40 SHL SUB PUSH2 0x1C4 CALLDATALOAD GT PUSH2 0xC63 JUMPI PUSH2 0x15A9 CALLDATASIZE PUSH1 0x4 PUSH2 0x1C4 CALLDATALOAD ADD PUSH2 0x5385 JUMP JUMPDEST SWAP7 PUSH1 0x0 SLOAD PUSH2 0x15B6 SWAP1 PUSH2 0x548D JUMP JUMPDEST SWAP9 DUP10 PUSH1 0x0 SSTORE PUSH1 0x40 MLOAD SWAP12 PUSH2 0x15C8 DUP14 PUSH2 0x523B JUMP JUMPDEST DUP12 DUP14 DUP13 DUP2 MSTORE PUSH1 0x20 ADD MSTORE DUP13 PUSH1 0x24 CALLDATALOAD SWAP1 PUSH1 0x40 ADD MSTORE PUSH1 0x60 DUP14 ADD PUSH1 0x0 SWAP1 MSTORE PUSH1 0x80 DUP14 ADD PUSH1 0x0 SWAP1 MSTORE DUP13 CALLER SWAP1 PUSH1 0xA0 ADD MSTORE DUP13 PUSH1 0x44 CALLDATALOAD SWAP1 PUSH1 0xC0 ADD MSTORE PUSH1 0xE0 DUP14 ADD PUSH1 0x0 SWAP1 MSTORE PUSH2 0x100 DUP14 ADD MSTORE PUSH2 0x120 DUP13 ADD MSTORE PUSH2 0x140 DUP12 ADD MSTORE PUSH2 0x160 DUP11 ADD MSTORE PUSH2 0x180 DUP10 ADD MSTORE PUSH2 0x104 CALLDATALOAD PUSH2 0x1A0 DUP10 ADD MSTORE PUSH2 0x124 CALLDATALOAD PUSH2 0x1C0 DUP10 ADD MSTORE PUSH2 0x1E0 DUP9 ADD PUSH2 0x1F4 SWAP1 MSTORE TIMESTAMP PUSH2 0x200 DUP10 ADD MSTORE PUSH2 0x220 DUP9 ADD PUSH1 0x1 SWAP1 MSTORE PUSH2 0x240 DUP9 ADD MSTORE PUSH2 0x260 DUP8 ADD MSTORE PUSH2 0x280 DUP7 ADD MSTORE PUSH2 0x2A0 DUP6 ADD MSTORE PUSH2 0x2C0 DUP5 ADD MSTORE PUSH1 0x0 MSTORE PUSH1 0x5 PUSH1 0x20 MSTORE PUSH1 0x40 PUSH1 0x0 KECCAK256 DUP3 MLOAD DUP2 SSTORE PUSH1 0x20 DUP4 ADD MLOAD SWAP3 DUP4 MLOAD PUSH1 0x1 PUSH1 0x1 PUSH1 0x40 SHL SUB DUP2 GT PUSH2 0x8EC JUMPI PUSH2 0x16AD DUP2 PUSH2 0x16A4 PUSH1 0x1 DUP7 ADD SLOAD PUSH2 0x51CA JUMP JUMPDEST PUSH1 0x1 DUP7 ADD PUSH2 0x54B3 JUMP JUMPDEST PUSH1 0x20 PUSH1 0x1F DUP3 GT PUSH1 0x1 EQ PUSH2 0x2041 JUMPI DUP2 SWAP3 SWAP4 SWAP5 SWAP6 PUSH1 0x0 SWAP3 PUSH2 0x2036 JUMPI JUMPDEST POP POP DUP2 PUSH1 0x1 SHL SWAP2 PUSH1 0x0 NOT SWAP1 PUSH1 0x3 SHL SHR NOT AND OR PUSH1 0x1 DUP4 ADD SSTORE JUMPDEST PUSH1 0x40 DUP2 ADD MLOAD PUSH1 0x2 DUP4 ADD SSTORE PUSH1 0x60 DUP2 ADD MLOAD PUSH1 0x3 DUP4 ADD SSTORE PUSH1 0x80 DUP2 ADD MLOAD PUSH1 0x4 DUP4 ADD SSTORE PUSH1 0x5 DUP3 ADD PUSH1 0x1 DUP1 PUSH1 0xA0 SHL SUB PUSH1 0xA0 DUP4 ADD MLOAD AND PUSH1 0x1 PUSH1 0x1 PUSH1 0x60 SHL SUB PUSH1 0xA0 SHL DUP3 SLOAD AND OR SWAP1 SSTORE PUSH1 0xC0 DUP2 ADD MLOAD PUSH1 0x6 DUP4 ADD SSTORE PUSH2 0x1743 PUSH1 0xE0 DUP3 ADD MLOAD PUSH2 0x173A DUP2 PUSH2 0x5190 JUMP JUMPDEST PUSH1 0x7 DUP5 ADD PUSH2 0x54F8 JUMP JUMPDEST PUSH2 0x100 DUP2 ADD MLOAD SWAP3 DUP4 MLOAD PUSH1 0x1 PUSH1 0x1 PUSH1 0x40 SHL SUB DUP2 GT PUSH2 0x8EC JUMPI PUSH2 0x1774 DUP2 PUSH2 0x176B PUSH1 0x8 DUP8 ADD SLOAD PUSH2 0x51CA JUMP JUMPDEST PUSH1 0x8 DUP8 ADD PUSH2 0x54B3 JUMP JUMPDEST PUSH1 0x20 PUSH1 0x1F DUP3 GT PUSH1 0x1 EQ PUSH2 0x1FC7 JUMPI DUP2 SWAP3 SWAP4 SWAP5 SWAP6 PUSH1 0x0 SWAP3 PUSH2 0x1FBC JUMPI JUMPDEST POP POP DUP2 PUSH1 0x1 SHL SWAP2 PUSH1 0x0 NOT SWAP1 PUSH1 0x3 SHL SHR NOT AND OR PUSH1 0x8 DUP5 ADD SSTORE JUMPDEST PUSH2 0x120 DUP3 ADD MLOAD SWAP3 DUP4 MLOAD PUSH1 0x1 PUSH1 0x1 PUSH1 0x40 SHL SUB DUP2 GT PUSH2 0x8EC JUMPI PUSH2 0x17D7 DUP2 PUSH2 0x17CE PUSH1 0x9 DUP6 ADD SLOAD PUSH2 0x51CA JUMP JUMPDEST PUSH1 0x9 DUP6 ADD PUSH2 0x54B3 JUMP JUMPDEST PUSH1 0x20 PUSH1 0x1F DUP3 GT PUSH1 0x1 EQ PUSH2 0x1F4D JUMPI DUP2 SWAP3 SWAP4 SWAP5 SWAP6 PUSH1 0x0 SWAP3 PUSH2 0x1F42 JUMPI JUMPDEST POP POP DUP2 PUSH1 0x1 SHL SWAP2 PUSH1 0x0 NOT SWAP1 PUSH1 0x3 SHL SHR NOT AND OR PUSH1 0x9 DUP3 ADD SSTORE JUMPDEST PUSH2 0x140 DUP4 ADD MLOAD SWAP3 DUP4 MLOAD PUSH1 0x1 PUSH1 0x1 PUSH1 0x40 SHL SUB DUP2 GT PUSH2 0x8EC JUMPI PUSH2 0x183A DUP2 PUSH2 0x1831 PUSH1 0xA DUP7 ADD SLOAD PUSH2 0x51CA JUMP JUMPDEST PUSH1 0xA DUP7 ADD PUSH2 0x54B3 JUMP JUMPDEST PUSH1 0x20 PUSH1 0x1F DUP3 GT PUSH1 0x1 EQ PUSH2 0x1ED3 JUMPI DUP2 SWAP3 SWAP4 SWAP5 SWAP6 PUSH1 0x0 SWAP3 PUSH2 0x1EC8 JUMPI JUMPDEST POP POP DUP2 PUSH1 0x1 SHL SWAP2 PUSH1 0x0 NOT SWAP1 PUSH1 0x3 SHL SHR NOT AND OR PUSH1 0xA DUP4 ADD SSTORE JUMPDEST PUSH2 0x160 DUP2 ADD MLOAD SWAP3 DUP4 MLOAD PUSH1 0x1 PUSH1 0x1 PUSH1 0x40 SHL SUB DUP2 GT PUSH2 0x8EC JUMPI PUSH2 0x1894 DUP2 PUSH2 0x67B PUSH1 0xB DUP8 ADD SLOAD PUSH2 0x51CA JUMP JUMPDEST PUSH1 0x20 PUSH1 0x1F DUP3 GT PUSH1 0x1 EQ PUSH2 0x1E59 JUMPI DUP2 SWAP3 SWAP4 SWAP5 SWAP6 PUSH1 0x0 SWAP3 PUSH2 0x1E4E JUMPI JUMPDEST POP POP DUP2 PUSH1 0x1 SHL SWAP2 PUSH1 0x0 NOT SWAP1 PUSH1 0x3 SHL SHR NOT AND OR PUSH1 0xB DUP5 ADD SSTORE JUMPDEST PUSH2 0x180 DUP3 ADD MLOAD SWAP3 DUP4 MLOAD PUSH1 0x1 PUSH1 0x1 PUSH1 0x40 SHL SUB DUP2 GT PUSH2 0x8EC JUMPI PUSH2 0x18F7 DUP2 PUSH2 0x18EE PUSH1 0xC DUP6 ADD SLOAD PUSH2 0x51CA JUMP JUMPDEST PUSH1 0xC DUP6 ADD PUSH2 0x54B3 JUMP JUMPDEST PUSH1 0x20 PUSH1 0x1F DUP3 GT PUSH1 0x1 EQ PUSH2 0x1DDF JUMPI DUP2 SWAP3 SWAP4 SWAP5 SWAP6 PUSH1 0x0 SWAP3 PUSH2 0x1DD4 JUMPI JUMPDEST POP POP DUP2 PUSH1 0x1 SHL SWAP2 PUSH1 0x0 NOT SWAP1 PUSH1 0x3 SHL SHR NOT AND OR PUSH1 0xC DUP3 ADD SSTORE JUMPDEST PUSH2 0x1A0 DUP4 ADD MLOAD PUSH1 0xD DUP3 ADD SSTORE PUSH2 0x1C0 DUP4 ADD MLOAD PUSH1 0xE DUP3 ADD SSTORE PUSH2 0x1E0 DUP4 ADD MLOAD PUSH1 0xF DUP3 ADD SSTORE PUSH2 0x200 DUP4 ADD MLOAD PUSH1 0x10 DUP3 ADD SSTORE PUSH2 0x1975 PUSH2 0x220 DUP5 ADD MLOAD ISZERO ISZERO PUSH1 0x11 DUP4 ADD SWAP1 PUSH1 0xFF DUP1 NOT DUP4 SLOAD AND SWAP2 ISZERO ISZERO AND OR SWAP1 SSTORE JUMP JUMPDEST PUSH2 0x240 DUP4 ADD MLOAD DUP1 MLOAD PUSH1 0x1 PUSH1 0x1 PUSH1 0x40 SHL SUB DUP2 GT PUSH2 0x8EC JUMPI DUP1 PUSH1 0x12 DUP5 ADD SWAP3 PUSH2 0x19A5 DUP3 PUSH2 0x199F DUP7 SLOAD PUSH2 0x51CA JUMP JUMPDEST DUP7 PUSH2 0x54B3 JUMP JUMPDEST PUSH1 0x20 SWAP1 PUSH1 0x1F DUP4 GT PUSH1 0x1 EQ PUSH2 0x1D6E JUMPI PUSH1 0x0 SWAP3 PUSH2 0x1D63 JUMPI JUMPDEST POP POP DUP2 PUSH1 0x1 SHL SWAP2 PUSH1 0x0 NOT SWAP1 PUSH1 0x3 SHL SHR NOT AND OR SWAP1 SSTORE JUMPDEST PUSH2 0x260 DUP4 ADD MLOAD DUP1 MLOAD PUSH1 0x1 PUSH1 0x1 PUSH1 0x40 SHL SUB DUP2 GT PUSH2 0x8EC JUMPI DUP1 PUSH1 0x13 DUP5 ADD SWAP3 PUSH2 0x19FA DUP3 PUSH2 0x199F DUP7 SLOAD PUSH2 0x51CA JUMP JUMPDEST PUSH1 0x20 SWAP1 PUSH1 0x1F DUP4 GT PUSH1 0x1 EQ PUSH2 0x1CFD JUMPI PUSH1 0x0 SWAP3 PUSH2 0x1CF2 JUMPI JUMPDEST POP POP DUP2 PUSH1 0x1 SHL SWAP2 PUSH1 0x0 NOT SWAP1 PUSH1 0x3 SHL SHR NOT AND OR SWAP1 SSTORE JUMPDEST PUSH2 0x280 DUP4 ADD MLOAD DUP1 MLOAD PUSH1 0x1 PUSH1 0x1 PUSH1 0x40 SHL SUB DUP2 GT PUSH2 0x8EC JUMPI DUP1 PUSH1 0x14 DUP5 ADD SWAP3 PUSH2 0x1A4F DUP3 PUSH2 0x199F DUP7 SLOAD PUSH2 0x51CA JUMP JUMPDEST PUSH1 0x20 SWAP1 PUSH1 0x1F DUP4 GT PUSH1 0x1 EQ PUSH2 0x1C8C JUMPI PUSH1 0x0 SWAP3 PUSH2 0x1C81 JUMPI JUMPDEST POP POP DUP2 PUSH1 0x1 SHL SWAP2 PUSH1 0x0 NOT SWAP1 PUSH1 0x3 SHL SHR NOT AND OR SWAP1 SSTORE JUMPDEST PUSH1 0x15 DUP2 ADD PUSH2 0x2A0 DUP5 ADD MLOAD DUP1 MLOAD SWAP1 PUSH1 0x1 PUSH1 0x1 PUSH1 0x40 SHL SUB DUP3 GT PUSH2 0x8EC JUMPI PUSH2 0x1AA9 DUP3 PUSH2 0x1AA3 DUP6 SLOAD PUSH2 0x51CA JUMP JUMPDEST DUP6 PUSH2 0x54B3 JUMP JUMPDEST PUSH1 0x20 SWAP1 PUSH1 0x1F DUP4 GT PUSH1 0x1 EQ PUSH2 0x1C12 JUMPI SWAP2 DUP1 PUSH1 0x16 SWAP5 SWAP3 PUSH2 0x2C0 SWAP7 SWAP5 PUSH1 0x0 SWAP3 PUSH2 0x1C07 JUMPI JUMPDEST POP POP DUP2 PUSH1 0x1 SHL SWAP2 PUSH1 0x0 NOT SWAP1 PUSH1 0x3 SHL SHR NOT AND OR SWAP1 SSTORE JUMPDEST ADD SWAP3 ADD MLOAD SWAP1 DUP2 MLOAD SWAP3 PUSH1 0x1 PUSH1 0x1 PUSH1 0x40 SHL SUB DUP5 GT PUSH2 0x8EC JUMPI DUP4 PUSH2 0x1B0C PUSH1 0x20 SWAP6 PUSH2 0x1B06 DUP5 SLOAD PUSH2 0x51CA JUMP JUMPDEST DUP5 PUSH2 0x54B3 JUMP JUMPDEST DUP5 SWAP4 PUSH1 0x1F DUP3 GT PUSH1 0x1 EQ PUSH2 0x1B9F JUMPI PUSH2 0x1B76 SWAP5 PUSH1 0x0 SWAP2 DUP4 PUSH2 0x1B94 JUMPI JUMPDEST POP POP DUP2 PUSH1 0x1 SHL SWAP2 PUSH1 0x0 NOT SWAP1 PUSH1 0x3 SHL SHR NOT AND OR SWAP1 SSTORE JUMPDEST PUSH32 0xE12127E830A916393848200F5A64634469C00A020E37627666649822A07A61BD PUSH1 0x0 SLOAD SWAP3 DUP4 SWAP3 PUSH1 0x40 MLOAD SWAP2 DUP3 SWAP2 PUSH1 0x80 DUP4 MSTORE PUSH1 0x80 DUP4 ADD SWAP1 PUSH2 0x5150 JUMP JUMPDEST PUSH1 0x24 CALLDATALOAD DUP8 DUP4 ADD MSTORE CALLER PUSH1 0x40 DUP4 ADD MSTORE TIMESTAMP PUSH1 0x60 DUP4 ADD MSTORE SUB SWAP1 LOG2 PUSH1 0x40 MLOAD SWAP1 DUP2 MSTORE RETURN JUMPDEST ADD MLOAD SWAP1 POP DUP7 DUP1 PUSH2 0x1B26 JUMP JUMPDEST PUSH1 0x1F NOT DUP3 AND SWAP5 DUP4 PUSH1 0x0 MSTORE DUP7 PUSH1 0x0 KECCAK256 SWAP2 PUSH1 0x0 JUMPDEST DUP8 DUP2 LT PUSH2 0x1BF0 JUMPI POP SWAP1 DUP4 SWAP3 SWAP2 PUSH1 0x1 SWAP5 PUSH2 0x1B76 SWAP9 LT PUSH2 0x1BD7 JUMPI JUMPDEST POP POP POP DUP2 SHL ADD SWAP1 SSTORE PUSH2 0x1B3B JUMP JUMPDEST ADD MLOAD PUSH1 0x0 NOT PUSH1 0xF8 DUP5 PUSH1 0x3 SHL AND SHR NOT AND SWAP1 SSTORE DUP7 DUP1 DUP1 PUSH2 0x1BCA JUMP JUMPDEST SWAP2 SWAP3 DUP9 PUSH1 0x1 DUP2 SWAP3 DUP7 DUP6 ADD MLOAD DUP2 SSTORE ADD SWAP5 ADD SWAP3 ADD PUSH2 0x1BB1 JUMP JUMPDEST ADD MLOAD SWAP1 POP DUP9 DUP1 PUSH2 0x1ACA JUMP JUMPDEST SWAP1 PUSH1 0x1F NOT DUP4 AND SWAP2 DUP5 PUSH1 0x0 MSTORE PUSH1 0x20 PUSH1 0x0 KECCAK256 SWAP3 PUSH1 0x0 JUMPDEST DUP2 DUP2 LT PUSH2 0x1C69 JUMPI POP SWAP3 PUSH1 0x1 SWAP3 DUP6 SWAP3 PUSH2 0x2C0 SWAP9 SWAP7 PUSH1 0x16 SWAP9 SWAP7 LT PUSH2 0x1C50 JUMPI JUMPDEST POP POP POP DUP2 SHL ADD SWAP1 SSTORE PUSH2 0x1ADF JUMP JUMPDEST ADD MLOAD PUSH1 0x0 NOT PUSH1 0xF8 DUP5 PUSH1 0x3 SHL AND SHR NOT AND SWAP1 SSTORE DUP9 DUP1 DUP1 PUSH2 0x1C43 JUMP JUMPDEST SWAP3 SWAP4 PUSH1 0x20 PUSH1 0x1 DUP2 SWAP3 DUP8 DUP7 ADD MLOAD DUP2 SSTORE ADD SWAP6 ADD SWAP4 ADD PUSH2 0x1C26 JUMP JUMPDEST ADD MLOAD SWAP1 POP DUP7 DUP1 PUSH2 0x1A65 JUMP JUMPDEST PUSH1 0x0 DUP6 DUP2 MSTORE PUSH1 0x20 DUP2 KECCAK256 SWAP4 POP PUSH1 0x1F NOT DUP6 AND SWAP1 JUMPDEST DUP2 DUP2 LT PUSH2 0x1CDA JUMPI POP SWAP1 DUP5 PUSH1 0x1 SWAP6 SWAP5 SWAP4 SWAP3 LT PUSH2 0x1CC1 JUMPI JUMPDEST POP POP POP DUP2 SHL ADD SWAP1 SSTORE PUSH2 0x1A7A JUMP JUMPDEST ADD MLOAD PUSH1 0x0 NOT PUSH1 0xF8 DUP5 PUSH1 0x3 SHL AND SHR NOT AND SWAP1 SSTORE DUP7 DUP1 DUP1 PUSH2 0x1CB4 JUMP JUMPDEST SWAP3 SWAP4 PUSH1 0x20 PUSH1 0x1 DUP2 SWAP3 DUP8 DUP7 ADD MLOAD DUP2 SSTORE ADD SWAP6 ADD SWAP4 ADD PUSH2 0x1C9E JUMP JUMPDEST ADD MLOAD SWAP1 POP DUP7 DUP1 PUSH2 0x1A10 JUMP JUMPDEST PUSH1 0x0 DUP6 DUP2 MSTORE PUSH1 0x20 DUP2 KECCAK256 SWAP4 POP PUSH1 0x1F NOT DUP6 AND SWAP1 JUMPDEST DUP2 DUP2 LT PUSH2 0x1D4B JUMPI POP SWAP1 DUP5 PUSH1 0x1 SWAP6 SWAP5 SWAP4 SWAP3 LT PUSH2 0x1D32 JUMPI JUMPDEST POP POP POP DUP2 SHL ADD SWAP1 SSTORE PUSH2 0x1A25 JUMP JUMPDEST ADD MLOAD PUSH1 0x0 NOT PUSH1 0xF8 DUP5 PUSH1 0x3 SHL AND SHR NOT AND SWAP1 SSTORE DUP7 DUP1 DUP1 PUSH2 0x1D25 JUMP JUMPDEST SWAP3 SWAP4 PUSH1 0x20 PUSH1 0x1 DUP2 SWAP3 DUP8 DUP7 ADD MLOAD DUP2 SSTORE ADD SWAP6 ADD SWAP4 ADD PUSH2 0x1D0F JUMP JUMPDEST ADD MLOAD SWAP1 POP DUP7 DUP1 PUSH2 0x19BB JUMP JUMPDEST PUSH1 0x0 DUP6 DUP2 MSTORE PUSH1 0x20 DUP2 KECCAK256 SWAP4 POP PUSH1 0x1F NOT DUP6 AND SWAP1 JUMPDEST DUP2 DUP2 LT PUSH2 0x1DBC JUMPI POP SWAP1 DUP5 PUSH1 0x1 SWAP6 SWAP5 SWAP4 SWAP3 LT PUSH2 0x1DA3 JUMPI JUMPDEST POP POP POP DUP2 SHL ADD SWAP1 SSTORE PUSH2 0x19D0 JUMP JUMPDEST ADD MLOAD PUSH1 0x0 NOT PUSH1 0xF8 DUP5 PUSH1 0x3 SHL AND SHR NOT AND SWAP1 SSTORE DUP7 DUP1 DUP1 PUSH2 0x1D96 JUMP JUMPDEST SWAP3 SWAP4 PUSH1 0x20 PUSH1 0x1 DUP2 SWAP3 DUP8 DUP7 ADD MLOAD DUP2 SSTORE ADD SWAP6 ADD SWAP4 ADD PUSH2 0x1D80 JUMP JUMPDEST ADD MLOAD SWAP1 POP DUP6 DUP1 PUSH2 0x1911 JUMP JUMPDEST PUSH1 0xC DUP4 ADD PUSH1 0x0 MSTORE PUSH1 0x20 PUSH1 0x0 KECCAK256 SWAP1 PUSH1 0x0 JUMPDEST PUSH1 0x1F NOT DUP5 AND DUP2 LT PUSH2 0x1E36 JUMPI POP PUSH1 0x1 SWAP4 SWAP5 SWAP6 SWAP7 DUP4 PUSH1 0x1F NOT DUP2 AND LT PUSH2 0x1E1D JUMPI JUMPDEST POP POP POP DUP2 SHL ADD PUSH1 0xC DUP3 ADD SSTORE PUSH2 0x1929 JUMP JUMPDEST ADD MLOAD PUSH1 0x0 NOT PUSH1 0xF8 DUP5 PUSH1 0x3 SHL AND SHR NOT AND SWAP1 SSTORE DUP6 DUP1 DUP1 PUSH2 0x1E0D JUMP JUMPDEST SWAP1 SWAP2 PUSH1 0x20 PUSH1 0x1 DUP2 SWAP3 DUP6 DUP12 ADD MLOAD DUP2 SSTORE ADD SWAP4 ADD SWAP2 ADD PUSH2 0x1DEF JUMP JUMPDEST ADD MLOAD SWAP1 POP DUP6 DUP1 PUSH2 0x18AE JUMP JUMPDEST PUSH1 0xB DUP6 ADD PUSH1 0x0 MSTORE PUSH1 0x20 PUSH1 0x0 KECCAK256 SWAP1 PUSH1 0x0 JUMPDEST PUSH1 0x1F NOT DUP5 AND DUP2 LT PUSH2 0x1EB0 JUMPI POP PUSH1 0x1 SWAP4 SWAP5 SWAP6 SWAP7 DUP4 PUSH1 0x1F NOT DUP2 AND LT PUSH2 0x1E97 JUMPI JUMPDEST POP POP POP DUP2 SHL ADD PUSH1 0xB DUP5 ADD SSTORE PUSH2 0x18C6 JUMP JUMPDEST ADD MLOAD PUSH1 0x0 NOT PUSH1 0xF8 DUP5 PUSH1 0x3 SHL AND SHR NOT AND SWAP1 SSTORE DUP6 DUP1 DUP1 PUSH2 0x1E87 JUMP JUMPDEST SWAP1 SWAP2 PUSH1 0x20 PUSH1 0x1 DUP2 SWAP3 DUP6 DUP12 ADD MLOAD DUP2 SSTORE ADD SWAP4 ADD SWAP2 ADD PUSH2 0x1E69 JUMP JUMPDEST ADD MLOAD SWAP1 POP DUP6 DUP1 PUSH2 0x1854 JUMP JUMPDEST PUSH1 0xA DUP5 ADD PUSH1 0x0 MSTORE PUSH1 0x20 PUSH1 0x0 KECCAK256 SWAP1 PUSH1 0x0 JUMPDEST PUSH1 0x1F NOT DUP5 AND DUP2 LT PUSH2 0x1F2A JUMPI POP PUSH1 0x1 SWAP4 SWAP5 SWAP6 SWAP7 DUP4 PUSH1 0x1F NOT DUP2 AND LT PUSH2 0x1F11 JUMPI JUMPDEST POP POP POP DUP2 SHL ADD PUSH1 0xA DUP4 ADD SSTORE PUSH2 0x186C JUMP JUMPDEST ADD MLOAD PUSH1 0x0 NOT PUSH1 0xF8 DUP5 PUSH1 0x3 SHL AND SHR NOT AND SWAP1 SSTORE DUP6 DUP1 DUP1 PUSH2 0x1F01 JUMP JUMPDEST SWAP1 SWAP2 PUSH1 0x20 PUSH1 0x1 DUP2 SWAP3 DUP6 DUP12 ADD MLOAD DUP2 SSTORE ADD SWAP4 ADD SWAP2 ADD PUSH2 0x1EE3 JUMP JUMPDEST ADD MLOAD SWAP1 POP DUP6 DUP1 PUSH2 0x17F1 JUMP JUMPDEST PUSH1 0x9 DUP4 ADD PUSH1 0x0 MSTORE PUSH1 0x20 PUSH1 0x0 KECCAK256 SWAP1 PUSH1 0x0 JUMPDEST PUSH1 0x1F NOT DUP5 AND DUP2 LT PUSH2 0x1FA4 JUMPI POP PUSH1 0x1 SWAP4 SWAP5 SWAP6 SWAP7 DUP4 PUSH1 0x1F NOT DUP2 AND LT PUSH2 0x1F8B JUMPI JUMPDEST POP POP POP DUP2 SHL ADD PUSH1 0x9 DUP3 ADD SSTORE PUSH2 0x1809 JUMP JUMPDEST ADD MLOAD PUSH1 0x0 NOT PUSH1 0xF8 DUP5 PUSH1 0x3 SHL AND SHR NOT AND SWAP1 SSTORE DUP6 DUP1 DUP1 PUSH2 0x1F7B JUMP JUMPDEST SWAP1 SWAP2 PUSH1 0x20 PUSH1 0x1 DUP2 SWAP3 DUP6 DUP12 ADD MLOAD DUP2 SSTORE ADD SWAP4 ADD SWAP2 ADD PUSH2 0x1F5D JUMP JUMPDEST ADD MLOAD SWAP1 POP DUP6 DUP1 PUSH2 0x178E JUMP JUMPDEST PUSH1 0x8 DUP6 ADD PUSH1 0x0 MSTORE PUSH1 0x20 PUSH1 0x0 KECCAK256 SWAP1 PUSH1 0x0 JUMPDEST PUSH1 0x1F NOT DUP5 AND DUP2 LT PUSH2 0x201E JUMPI POP PUSH1 0x1 SWAP4 SWAP5 SWAP6 SWAP7 DUP4 PUSH1 0x1F NOT DUP2 AND LT PUSH2 0x2005 JUMPI JUMPDEST POP POP POP DUP2 SHL ADD PUSH1 0x8 DUP5 ADD SSTORE PUSH2 0x17A6 JUMP JUMPDEST ADD MLOAD PUSH1 0x0 NOT PUSH1 0xF8 DUP5 PUSH1 0x3 SHL AND SHR NOT AND SWAP1 SSTORE DUP6 DUP1 DUP1 PUSH2 0x1FF5 JUMP JUMPDEST SWAP1 SWAP2 PUSH1 0x20 PUSH1 0x1 DUP2 SWAP3 DUP6 DUP12 ADD MLOAD DUP2 SSTORE ADD SWAP4 ADD SWAP2 ADD PUSH2 0x1FD7 JUMP JUMPDEST ADD MLOAD SWAP1 POP DUP6 DUP1 PUSH2 0x16C7 JUMP JUMPDEST PUSH1 0x1 DUP5 ADD PUSH1 0x0 MSTORE PUSH1 0x20 PUSH1 0x0 KECCAK256 SWAP1 PUSH1 0x0 JUMPDEST PUSH1 0x1F NOT DUP5 AND DUP2 LT PUSH2 0x2098 JUMPI POP PUSH1 0x1 SWAP4 SWAP5 SWAP6 SWAP7 DUP4 PUSH1 0x1F NOT DUP2 AND LT PUSH2 0x207F JUMPI JUMPDEST POP POP POP DUP2 SHL ADD PUSH1 0x1 DUP4 ADD SSTORE PUSH2 0x16DF JUMP JUMPDEST ADD MLOAD PUSH1 0x0 NOT PUSH1 0xF8 DUP5 PUSH1 0x3 SHL AND SHR NOT AND SWAP1 SSTORE DUP6 DUP1 DUP1 PUSH2 0x206F JUMP JUMPDEST SWAP1 SWAP2 PUSH1 0x20 PUSH1 0x1 DUP2 SWAP3 DUP6 DUP12 ADD MLOAD DUP2 SSTORE ADD SWAP4 ADD SWAP2 ADD PUSH2 0x2051 JUMP JUMPDEST CALLVALUE PUSH2 0xC63 JUMPI PUSH1 0x20 CALLDATASIZE PUSH1 0x3 NOT ADD SLT PUSH2 0xC63 JUMPI PUSH1 0x4 CALLDATALOAD PUSH1 0x0 MSTORE PUSH1 0x6 PUSH1 0x20 MSTORE PUSH1 0x40 PUSH1 0x0 KECCAK256 PUSH2 0x140 PUSH1 0x40 MLOAD PUSH2 0x20E0 DUP2 PUSH2 0x5204 JUMP JUMPDEST DUP3 SLOAD DUP2 MSTORE PUSH1 0x1 DUP4 ADD SLOAD PUSH1 0x20 DUP3 ADD MSTORE PUSH1 0x2 DUP4 ADD SLOAD PUSH1 0x40 DUP3 ADD MSTORE PUSH2 0x2104 PUSH1 0x3 DUP5 ADD PUSH2 0x52AE JUMP JUMPDEST PUSH1 0x60 DUP3 ADD MSTORE PUSH2 0x2115 PUSH1 0x4 DUP5 ADD PUSH2 0x52AE JUMP JUMPDEST PUSH1 0x80 DUP3 ADD MSTORE PUSH2 0x2126 PUSH1 0x5 DUP5 ADD PUSH2 0x52AE JUMP JUMPDEST PUSH1 0xA0 DUP3 ADD MSTORE PUSH1 0xFF PUSH1 0x6 DUP5 ADD SLOAD AND PUSH2 0x213C DUP2 PUSH2 0x5190 JUMP JUMPDEST PUSH1 0xC0 DUP3 ADD MSTORE PUSH1 0x7 DUP4 ADD SLOAD PUSH1 0xE0 DUP3 ADD MSTORE PUSH1 0xFF PUSH1 0x8 DUP5 ADD SLOAD AND SWAP1 PUSH2 0x100 DUP2 ADD SWAP2 ISZERO ISZERO DUP3 MSTORE PUSH1 0xA PUSH2 0x216C PUSH1 0x9 DUP7 ADD PUSH2 0x52AE JUMP JUMPDEST SWAP5 DUP6 PUSH2 0x120 DUP5 ADD MSTORE ADD SLOAD SWAP3 DUP4 SWAP2 ADD MSTORE MLOAD ISZERO ISZERO SWAP1 PUSH2 0x219B PUSH1 0x40 MLOAD SWAP4 DUP5 SWAP4 DUP5 MSTORE PUSH1 0x60 PUSH1 0x20 DUP6 ADD MSTORE PUSH1 0x60 DUP5 ADD SWAP1 PUSH2 0x5150 JUMP JUMPDEST SWAP1 PUSH1 0x40 DUP4 ADD MSTORE SUB SWAP1 RETURN JUMPDEST PUSH1 0x20 DUP1 PUSH1 0x3 NOT CALLDATASIZE ADD SLT PUSH2 0xC63 JUMPI PUSH1 0x4 CALLDATALOAD SWAP1 DUP2 PUSH1 0x0 MSTORE PUSH1 0x5 DUP1 DUP3 MSTORE PUSH2 0x21D3 PUSH1 0xFF PUSH1 0x11 PUSH1 0x40 PUSH1 0x0 KECCAK256 ADD SLOAD AND PUSH2 0x5510 JUMP JUMPDEST PUSH1 0x0 DUP4 DUP2 MSTORE DUP2 DUP4 MSTORE PUSH1 0x40 SWAP1 KECCAK256 DUP2 ADD SLOAD PUSH1 0x1 PUSH1 0x1 PUSH1 0xA0 SHL SUB AND CALLER SUB PUSH2 0x2348 JUMPI CALLVALUE ISZERO PUSH2 0x2311 JUMPI DUP3 PUSH1 0x0 MSTORE DUP1 DUP3 MSTORE PUSH1 0x3 PUSH1 0x40 PUSH1 0x0 KECCAK256 ADD SLOAD PUSH2 0x22CC JUMPI DUP3 PUSH1 0x0 MSTORE DUP1 DUP3 MSTORE PUSH1 0x2 PUSH1 0x40 PUSH1 0x0 KECCAK256 ADD SLOAD CALLVALUE LT PUSH2 0x2287 JUMPI SWAP1 PUSH32 0xBEDC4E5AC6876307C4B4B5761039AA2EBCE89052490A34E15CC655D9142BA0DC SWAP2 DUP4 PUSH1 0x0 MSTORE DUP2 MSTORE CALLVALUE PUSH1 0x3 PUSH1 0x40 PUSH1 0x0 KECCAK256 ADD SSTORE DUP3 PUSH32 0xA76702541970AC8A240A5F42C5A0D1558C299844949EC41FAD31FAC5444E5504 DUP3 PUSH1 0x40 MLOAD CALLVALUE DUP2 MSTORE LOG2 PUSH1 0x40 MLOAD CALLVALUE DUP2 MSTORE LOG2 STOP JUMPDEST PUSH1 0x40 MLOAD PUSH3 0x461BCD PUSH1 0xE5 SHL DUP2 MSTORE PUSH1 0x4 DUP2 ADD DUP4 SWAP1 MSTORE PUSH1 0x1D PUSH1 0x24 DUP3 ADD MSTORE PUSH32 0x496E73756666696369656E742066756E647320666F7220627564676574000000 PUSH1 0x44 DUP3 ADD MSTORE PUSH1 0x64 SWAP1 REVERT JUMPDEST PUSH1 0x40 MLOAD PUSH3 0x461BCD PUSH1 0xE5 SHL DUP2 MSTORE PUSH1 0x4 DUP2 ADD DUP4 SWAP1 MSTORE PUSH1 0x17 PUSH1 0x24 DUP3 ADD MSTORE PUSH32 0x46756E647320616C726561647920616C6C6F6361746564000000000000000000 PUSH1 0x44 DUP3 ADD MSTORE PUSH1 0x64 SWAP1 REVERT JUMPDEST PUSH1 0x40 MLOAD PUSH3 0x461BCD PUSH1 0xE5 SHL DUP2 MSTORE PUSH1 0x4 DUP2 ADD DUP4 SWAP1 MSTORE PUSH1 0xF PUSH1 0x24 DUP3 ADD MSTORE PUSH15 0x4D7573742073656E642066756E6473 PUSH1 0x88 SHL PUSH1 0x44 DUP3 ADD MSTORE PUSH1 0x64 SWAP1 REVERT JUMPDEST PUSH1 0x40 MLOAD PUSH3 0x461BCD PUSH1 0xE5 SHL DUP2 MSTORE PUSH1 0x4 DUP2 ADD DUP4 SWAP1 MSTORE PUSH1 0x22 PUSH1 0x24 DUP3 ADD MSTORE PUSH32 0x4F6E6C792061646D696E2063616E20706572666F726D20746869732061637469 PUSH1 0x44 DUP3 ADD MSTORE PUSH2 0x37B7 PUSH1 0xF1 SHL PUSH1 0x64 DUP3 ADD MSTORE PUSH1 0x84 SWAP1 REVERT JUMPDEST CALLVALUE PUSH2 0xC63 JUMPI PUSH1 0x20 CALLDATASIZE PUSH1 0x3 NOT ADD SLT PUSH2 0xC63 JUMPI PUSH1 0x4 CALLDATALOAD PUSH1 0x0 MSTORE PUSH1 0x10 PUSH1 0x20 MSTORE PUSH1 0x20 PUSH1 0x1 DUP1 PUSH1 0xA0 SHL SUB PUSH1 0x40 PUSH1 0x0 KECCAK256 SLOAD AND PUSH1 0x40 MLOAD SWAP1 DUP2 MSTORE RETURN JUMPDEST CALLVALUE PUSH2 0xC63 JUMPI PUSH1 0xA0 CALLDATASIZE PUSH1 0x3 NOT ADD SLT PUSH2 0xC63 JUMPI PUSH1 0x44 CALLDATALOAD PUSH1 0x1 PUSH1 0x1 PUSH1 0x40 SHL SUB DUP2 GT PUSH2 0xC63 JUMPI PUSH2 0x23FC SWAP1 CALLDATASIZE SWAP1 PUSH1 0x4 ADD PUSH2 0x5385 JUMP JUMPDEST PUSH1 0x64 CALLDATALOAD PUSH1 0x1 PUSH1 0x1 PUSH1 0x40 SHL SUB DUP2 GT PUSH2 0xC63 JUMPI PUSH2 0x241B SWAP1 CALLDATASIZE SWAP1 PUSH1 0x4 ADD PUSH2 0x5385 JUMP JUMPDEST PUSH1 0x84 CALLDATALOAD PUSH1 0x1 PUSH1 0x1 PUSH1 0x40 SHL SUB DUP2 GT PUSH2 0xC63 JUMPI PUSH2 0x243A SWAP1 CALLDATASIZE SWAP1 PUSH1 0x4 ADD PUSH2 0x5385 JUMP JUMPDEST SWAP2 PUSH1 0x4 CALLDATALOAD PUSH1 0x0 MSTORE PUSH1 0x5 PUSH1 0x20 MSTORE PUSH2 0x245A PUSH1 0xFF PUSH1 0x11 PUSH1 0x40 PUSH1 0x0 KECCAK256 ADD SLOAD AND PUSH2 0x5510 JUMP JUMPDEST PUSH1 0x4 CALLDATALOAD PUSH1 0x0 MSTORE PUSH1 0x5 PUSH1 0x20 MSTORE PUSH1 0xFF PUSH1 0x7 PUSH1 0x40 PUSH1 0x0 KECCAK256 ADD SLOAD AND PUSH2 0x247A DUP2 PUSH2 0x5190 JUMP JUMPDEST PUSH2 0x29A6 JUMPI CALLER PUSH1 0x0 MSTORE PUSH1 0xD PUSH1 0x20 MSTORE PUSH1 0xFF PUSH1 0x40 PUSH1 0x0 KECCAK256 SLOAD AND DUP1 ISZERO PUSH2 0x2994 JUMPI JUMPDEST ISZERO PUSH2 0x2938 JUMPI PUSH2 0x24A7 PUSH1 0x1 SLOAD PUSH2 0x548D JUMP JUMPDEST SWAP2 DUP3 PUSH1 0x1 SSTORE PUSH1 0x40 MLOAD SWAP3 PUSH2 0x24B9 DUP5 PUSH2 0x5204 JUMP JUMPDEST DUP1 DUP5 MSTORE PUSH1 0x20 DUP5 ADD SWAP5 PUSH1 0x4 CALLDATALOAD DUP7 MSTORE PUSH1 0x40 DUP6 ADD SWAP3 PUSH1 0x24 CALLDATALOAD DUP5 MSTORE PUSH1 0x60 DUP7 ADD SWAP5 DUP6 MSTORE PUSH1 0x80 DUP7 ADD MSTORE PUSH1 0xA0 DUP6 ADD MSTORE PUSH1 0x0 PUSH1 0xC0 DUP6 ADD MSTORE TIMESTAMP PUSH1 0xE0 DUP6 ADD MSTORE PUSH1 0x0 PUSH2 0x100 DUP6 ADD MSTORE PUSH1 0x40 MLOAD PUSH2 0x2502 DUP2 PUSH2 0x5272 JUMP JUMPDEST PUSH1 0x0 DUP2 MSTORE PUSH2 0x120 DUP6 ADD MSTORE PUSH1 0x0 PUSH2 0x140 DUP6 ADD MSTORE PUSH1 0x0 MSTORE PUSH1 0x6 PUSH1 0x20 MSTORE PUSH1 0x40 PUSH1 0x0 KECCAK256 SWAP4 DUP4 MLOAD DUP6 SSTORE MLOAD PUSH1 0x1 DUP6 ADD SSTORE MLOAD PUSH1 0x2 DUP5 ADD SSTORE MLOAD SWAP2 DUP3 MLOAD PUSH1 0x1 PUSH1 0x1 PUSH1 0x40 SHL SUB DUP2 GT PUSH2 0x8EC JUMPI PUSH2 0x255E DUP2 PUSH2 0x2555 PUSH1 0x3 DUP6 ADD SLOAD PUSH2 0x51CA JUMP JUMPDEST PUSH1 0x3 DUP6 ADD PUSH2 0x54B3 JUMP JUMPDEST PUSH1 0x20 PUSH1 0x1F DUP3 GT PUSH1 0x1 EQ PUSH2 0x28CA JUMPI DUP2 SWAP3 SWAP4 SWAP5 PUSH1 0x0 SWAP3 PUSH2 0x28BF JUMPI JUMPDEST POP POP DUP2 PUSH1 0x1 SHL SWAP2 PUSH1 0x0 NOT SWAP1 PUSH1 0x3 SHL SHR NOT AND OR PUSH1 0x3 DUP3 ADD SSTORE JUMPDEST PUSH1 0x80 DUP3 ADD MLOAD SWAP2 DUP3 MLOAD PUSH1 0x1 PUSH1 0x1 PUSH1 0x40 SHL SUB DUP2 GT PUSH2 0x8EC JUMPI PUSH2 0x25BF DUP2 PUSH2 0x25B6 PUSH1 0x4 DUP7 ADD SLOAD PUSH2 0x51CA JUMP JUMPDEST PUSH1 0x4 DUP7 ADD PUSH2 0x54B3 JUMP JUMPDEST PUSH1 0x20 PUSH1 0x1F DUP3 GT PUSH1 0x1 EQ PUSH2 0x2851 JUMPI DUP2 SWAP3 SWAP4 SWAP5 PUSH1 0x0 SWAP3 PUSH2 0x2846 JUMPI JUMPDEST POP POP DUP2 PUSH1 0x1 SHL SWAP2 PUSH1 0x0 NOT SWAP1 PUSH1 0x3 SHL SHR NOT AND OR PUSH1 0x4 DUP4 ADD SSTORE JUMPDEST PUSH1 0xA0 DUP2 ADD MLOAD SWAP2 DUP3 MLOAD PUSH1 0x1 PUSH1 0x1 PUSH1 0x40 SHL SUB DUP2 GT PUSH2 0x8EC JUMPI PUSH2 0x2620 DUP2 PUSH2 0x2617 PUSH1 0x5 DUP6 ADD SLOAD PUSH2 0x51CA JUMP JUMPDEST PUSH1 0x5 DUP6 ADD PUSH2 0x54B3 JUMP JUMPDEST PUSH1 0x20 PUSH1 0x1F DUP3 GT PUSH1 0x1 EQ PUSH2 0x27D8 JUMPI DUP2 SWAP3 SWAP4 SWAP5 PUSH1 0x0 SWAP3 PUSH2 0x27CD JUMPI JUMPDEST POP POP DUP2 PUSH1 0x1 SHL SWAP2 PUSH1 0x0 NOT SWAP1 PUSH1 0x3 SHL SHR NOT AND OR PUSH1 0x5 DUP3 ADD SSTORE JUMPDEST PUSH2 0x266B PUSH1 0xC0 DUP4 ADD MLOAD PUSH2 0x2662 DUP2 PUSH2 0x5190 JUMP JUMPDEST PUSH1 0x6 DUP4 ADD PUSH2 0x54F8 JUMP JUMPDEST PUSH1 0xE0 DUP3 ADD MLOAD PUSH1 0x7 DUP3 ADD SSTORE PUSH2 0x2695 PUSH2 0x100 DUP4 ADD MLOAD ISZERO ISZERO PUSH1 0x8 DUP4 ADD SWAP1 PUSH1 0xFF DUP1 NOT DUP4 SLOAD AND SWAP2 ISZERO ISZERO AND OR SWAP1 SSTORE JUMP JUMPDEST PUSH1 0x9 DUP2 ADD SWAP2 PUSH2 0x120 DUP2 ADD MLOAD SWAP3 DUP4 MLOAD PUSH1 0x1 PUSH1 0x1 PUSH1 0x40 SHL SUB DUP2 GT PUSH2 0x8EC JUMPI PUSH2 0x26BF DUP2 PUSH2 0x1B06 DUP5 SLOAD PUSH2 0x51CA JUMP JUMPDEST PUSH1 0x20 PUSH1 0x1F DUP3 GT PUSH1 0x1 EQ PUSH2 0x275E JUMPI SWAP1 DUP1 PUSH2 0x140 SWAP5 SWAP4 SWAP3 PUSH1 0xA SWAP7 SWAP8 PUSH1 0x0 SWAP3 PUSH2 0x2753 JUMPI JUMPDEST POP POP DUP2 PUSH1 0x1 SHL SWAP2 PUSH1 0x0 NOT SWAP1 PUSH1 0x3 SHL SHR NOT AND OR SWAP1 SSTORE JUMPDEST ADD MLOAD SWAP2 ADD SSTORE PUSH1 0x4 CALLDATALOAD PUSH1 0x0 MSTORE PUSH1 0x9 PUSH1 0x20 MSTORE PUSH2 0x2716 PUSH1 0x40 PUSH1 0x0 KECCAK256 PUSH1 0x1 SLOAD SWAP1 PUSH2 0x5555 JUMP JUMPDEST PUSH1 0x20 PUSH1 0x1 SLOAD PUSH1 0x40 MLOAD PUSH1 0x24 CALLDATALOAD DUP2 MSTORE DUP2 PUSH32 0xCC51B0E9A11B4449F30EEDBF3DC532B58FFE4AD8F2B816544631D5CD5C3C0E9A DUP5 PUSH1 0x4 CALLDATALOAD SWAP4 LOG3 PUSH1 0x40 MLOAD SWAP1 DUP2 MSTORE RETURN JUMPDEST ADD MLOAD SWAP1 POP DUP8 DUP1 PUSH2 0x26E0 JUMP JUMPDEST PUSH1 0x1F NOT DUP3 AND SWAP6 DUP4 PUSH1 0x0 MSTORE PUSH1 0x20 PUSH1 0x0 KECCAK256 SWAP7 PUSH1 0x0 JUMPDEST DUP2 DUP2 LT PUSH2 0x27B5 JUMPI POP SWAP7 PUSH1 0x1 SWAP3 DUP5 SWAP3 PUSH2 0x140 SWAP8 SWAP7 SWAP6 PUSH1 0xA SWAP10 SWAP11 LT PUSH2 0x279C JUMPI JUMPDEST POP POP POP DUP2 SHL ADD SWAP1 SSTORE PUSH2 0x26F5 JUMP JUMPDEST ADD MLOAD PUSH1 0x0 NOT PUSH1 0xF8 DUP5 PUSH1 0x3 SHL AND SHR NOT AND SWAP1 SSTORE DUP8 DUP1 DUP1 PUSH2 0x278F JUMP JUMPDEST DUP4 DUP4 ADD MLOAD DUP10 SSTORE PUSH1 0x1 SWAP1 SWAP9 ADD SWAP8 PUSH1 0x20 SWAP4 DUP5 ADD SWAP4 ADD PUSH2 0x2771 JUMP JUMPDEST ADD MLOAD SWAP1 POP DUP5 DUP1 PUSH2 0x2639 JUMP JUMPDEST PUSH1 0x5 DUP4 ADD PUSH1 0x0 MSTORE PUSH1 0x20 PUSH1 0x0 KECCAK256 SWAP1 PUSH1 0x0 JUMPDEST PUSH1 0x1F NOT DUP5 AND DUP2 LT PUSH2 0x282E JUMPI POP PUSH1 0x1 SWAP4 SWAP5 SWAP6 DUP4 PUSH1 0x1F NOT DUP2 AND LT PUSH2 0x2815 JUMPI JUMPDEST POP POP POP DUP2 SHL ADD PUSH1 0x5 DUP3 ADD SSTORE PUSH2 0x2651 JUMP JUMPDEST ADD MLOAD PUSH1 0x0 NOT PUSH1 0xF8 DUP5 PUSH1 0x3 SHL AND SHR NOT AND SWAP1 SSTORE DUP5 DUP1 DUP1 PUSH2 0x2805 JUMP JUMPDEST SWAP1 SWAP2 PUSH1 0x20 PUSH1 0x1 DUP2 SWAP3 DUP6 DUP11 ADD MLOAD DUP2 SSTORE ADD SWAP4 ADD SWAP2 ADD PUSH2 0x27E8 JUMP JUMPDEST ADD MLOAD SWAP1 POP DUP5 DUP1 PUSH2 0x25D8 JUMP JUMPDEST PUSH1 0x4 DUP5 ADD PUSH1 0x0 MSTORE PUSH1 0x20 PUSH1 0x0 KECCAK256 SWAP1 PUSH1 0x0 JUMPDEST PUSH1 0x1F NOT DUP5 AND DUP2 LT PUSH2 0x28A7 JUMPI POP PUSH1 0x1 SWAP4 SWAP5 SWAP6 DUP4 PUSH1 0x1F NOT DUP2 AND LT PUSH2 0x288E JUMPI JUMPDEST POP POP POP DUP2 SHL ADD PUSH1 0x4 DUP4 ADD SSTORE PUSH2 0x25F0 JUMP JUMPDEST ADD MLOAD PUSH1 0x0 NOT PUSH1 0xF8 DUP5 PUSH1 0x3 SHL AND SHR NOT AND SWAP1 SSTORE DUP5 DUP1 DUP1 PUSH2 0x287E JUMP JUMPDEST SWAP1 SWAP2 PUSH1 0x20 PUSH1 0x1 DUP2 SWAP3 DUP6 DUP11 ADD MLOAD DUP2 SSTORE ADD SWAP4 ADD SWAP2 ADD PUSH2 0x2861 JUMP JUMPDEST ADD MLOAD SWAP1 POP DUP5 DUP1 PUSH2 0x2577 JUMP JUMPDEST PUSH1 0x3 DUP4 ADD PUSH1 0x0 MSTORE PUSH1 0x20 PUSH1 0x0 KECCAK256 SWAP1 PUSH1 0x0 JUMPDEST PUSH1 0x1F NOT DUP5 AND DUP2 LT PUSH2 0x2920 JUMPI POP PUSH1 0x1 SWAP4 SWAP5 SWAP6 DUP4 PUSH1 0x1F NOT DUP2 AND LT PUSH2 0x2907 JUMPI JUMPDEST POP POP POP DUP2 SHL ADD PUSH1 0x3 DUP3 ADD SSTORE PUSH2 0x258F JUMP JUMPDEST ADD MLOAD PUSH1 0x0 NOT PUSH1 0xF8 DUP5 PUSH1 0x3 SHL AND SHR NOT AND SWAP1 SSTORE DUP5 DUP1 DUP1 PUSH2 0x28F7 JUMP JUMPDEST SWAP1 SWAP2 PUSH1 0x20 PUSH1 0x1 DUP2 SWAP3 DUP6 DUP11 ADD MLOAD DUP2 SSTORE ADD SWAP4 ADD SWAP2 ADD PUSH2 0x28DA JUMP JUMPDEST PUSH1 0x40 MLOAD PUSH3 0x461BCD PUSH1 0xE5 SHL DUP2 MSTORE PUSH1 0x20 PUSH1 0x4 DUP3 ADD MSTORE PUSH1 0x2E PUSH1 0x24 DUP3 ADD MSTORE PUSH32 0x436F6E74726163746F72206D757374207375626D69742070656E64696E672071 PUSH1 0x44 DUP3 ADD MSTORE PUSH14 0x75616C697479207265706F727473 PUSH1 0x90 SHL PUSH1 0x64 DUP3 ADD MSTORE PUSH1 0x84 SWAP1 REVERT JUMPDEST POP PUSH1 0xE PUSH1 0x20 MSTORE PUSH1 0x40 PUSH1 0x0 KECCAK256 SLOAD ISZERO PUSH2 0x2497 JUMP JUMPDEST PUSH1 0x40 MLOAD PUSH3 0x461BCD PUSH1 0xE5 SHL DUP2 MSTORE PUSH1 0x20 PUSH1 0x4 DUP3 ADD MSTORE PUSH1 0x1D PUSH1 0x24 DUP3 ADD MSTORE PUSH32 0x50726F6A656374206E6F7420616363657074696E672074656E64657273000000 PUSH1 0x44 DUP3 ADD MSTORE PUSH1 0x64 SWAP1 REVERT JUMPDEST CALLVALUE PUSH2 0xC63 JUMPI PUSH1 0x0 CALLDATASIZE PUSH1 0x3 NOT ADD SLT PUSH2 0xC63 JUMPI PUSH1 0x20 PUSH1 0x4 SLOAD PUSH1 0x40 MLOAD SWAP1 DUP2 MSTORE RETURN JUMPDEST CALLVALUE PUSH2 0xC63 JUMPI PUSH1 0x20 DUP1 PUSH1 0x3 NOT CALLDATASIZE ADD SLT PUSH2 0xC63 JUMPI PUSH1 0x4 CALLDATALOAD DUP1 PUSH1 0x0 MSTORE PUSH1 0x5 DUP3 MSTORE PUSH2 0x2A3A PUSH1 0xFF PUSH1 0x11 PUSH1 0x40 PUSH1 0x0 KECCAK256 ADD SLOAD AND PUSH2 0x5510 JUMP JUMPDEST PUSH1 0x0 MSTORE PUSH1 0x9 DUP2 MSTORE PUSH1 0x40 PUSH1 0x0 KECCAK256 SWAP1 PUSH1 0x40 MLOAD SWAP1 DUP2 DUP2 DUP5 SLOAD SWAP2 DUP3 DUP2 MSTORE ADD SWAP4 PUSH1 0x0 MSTORE DUP2 PUSH1 0x0 KECCAK256 SWAP2 PUSH1 0x0 SWAP1 JUMPDEST DUP3 DUP3 LT PUSH2 0x2A84 JUMPI PUSH2 0x107C DUP6 PUSH2 0x2A78 DUP2 DUP10 SUB DUP3 PUSH2 0x528D JUMP JUMPDEST PUSH1 0x40 MLOAD SWAP2 DUP3 SWAP2 DUP3 PUSH2 0x5452 JUMP JUMPDEST DUP4 SLOAD DUP7 MSTORE SWAP5 DUP6 ADD SWAP5 PUSH1 0x1 SWAP4 DUP5 ADD SWAP4 SWAP1 SWAP2 ADD SWAP1 PUSH2 0x2A61 JUMP JUMPDEST CALLVALUE PUSH2 0xC63 JUMPI PUSH1 0x20 CALLDATASIZE PUSH1 0x3 NOT ADD SLT PUSH2 0xC63 JUMPI PUSH1 0x4 CALLDATALOAD DUP1 PUSH1 0x0 MSTORE PUSH1 0x5 PUSH1 0x20 MSTORE PUSH2 0x2ACC PUSH1 0xFF PUSH1 0x11 PUSH1 0x40 PUSH1 0x0 KECCAK256 ADD SLOAD AND PUSH2 0x5510 JUMP JUMPDEST PUSH1 0x0 MSTORE PUSH1 0x5 PUSH1 0x20 MSTORE PUSH1 0x40 PUSH1 0x0 KECCAK256 PUSH2 0x2AE5 PUSH1 0x8 DUP3 ADD PUSH2 0x52AE JUMP JUMPDEST PUSH2 0x107C PUSH2 0x2AF4 PUSH1 0x9 DUP5 ADD PUSH2 0x52AE JUMP JUMPDEST SWAP3 PUSH2 0x2B01 PUSH1 0xA DUP3 ADD PUSH2 0x52AE JUMP JUMPDEST SWAP1 PUSH2 0x2B1A PUSH1 0xC PUSH2 0x2B13 PUSH1 0xB DUP5 ADD PUSH2 0x52AE JUMP JUMPDEST SWAP3 ADD PUSH2 0x52AE JUMP JUMPDEST SWAP2 PUSH1 0x40 MLOAD SWAP6 DUP7 SWAP6 DUP7 PUSH2 0x53CC JUMP JUMPDEST CALLVALUE PUSH2 0xC63 JUMPI PUSH1 0x20 CALLDATASIZE PUSH1 0x3 NOT ADD SLT PUSH2 0xC63 JUMPI PUSH1 0x1 PUSH1 0x1 PUSH1 0xA0 SHL SUB PUSH2 0x2B48 PUSH2 0x5354 JUMP JUMPDEST AND PUSH1 0x0 MSTORE PUSH1 0xE PUSH1 0x20 MSTORE PUSH1 0x20 PUSH1 0x40 PUSH1 0x0 KECCAK256 SLOAD PUSH1 0x40 MLOAD SWAP1 DUP2 MSTORE RETURN JUMPDEST CALLVALUE PUSH2 0xC63 JUMPI PUSH1 0x20 CALLDATASIZE PUSH1 0x3 NOT ADD SLT PUSH2 0xC63 JUMPI PUSH1 0x1 PUSH1 0x1 PUSH1 0xA0 SHL SUB DUP1 PUSH2 0x2B83 PUSH2 0x5354 JUMP JUMPDEST AND PUSH1 0x0 MSTORE PUSH1 0xF PUSH1 0x20 MSTORE PUSH1 0x40 PUSH1 0x0 KECCAK256 SWAP1 DUP2 SLOAD AND PUSH1 0x1 DUP3 ADD SLOAD SWAP2 PUSH2 0x2BA7 PUSH1 0x2 DUP3 ADD PUSH2 0x52AE JUMP JUMPDEST PUSH1 0xFF PUSH1 0x3 DUP4 ADD SLOAD AND SWAP2 PUSH1 0x4 DUP2 ADD SLOAD PUSH2 0x2BE1 PUSH1 0x6 PUSH1 0x5 DUP5 ADD SLOAD SWAP4 ADD SLOAD SWAP4 PUSH1 0x40 MLOAD SWAP8 DUP9 SWAP8 DUP9 MSTORE PUSH1 0x20 DUP9 ADD MSTORE PUSH1 0xE0 PUSH1 0x40 DUP9 ADD MSTORE PUSH1 0xE0 DUP8 ADD SWAP1 PUSH2 0x5150 JUMP JUMPDEST SWAP4 ISZERO ISZERO PUSH1 0x60 DUP7 ADD MSTORE PUSH1 0x80 DUP6 ADD MSTORE PUSH1 0xA0 DUP5 ADD MSTORE PUSH1 0xC0 DUP4 ADD MSTORE SUB SWAP1 RETURN JUMPDEST CALLVALUE PUSH2 0xC63 JUMPI PUSH1 0x40 CALLDATASIZE PUSH1 0x3 NOT ADD SLT PUSH2 0xC63 JUMPI PUSH1 0x1 PUSH1 0x1 PUSH1 0x40 SHL SUB PUSH1 0x4 CALLDATALOAD PUSH1 0x24 CALLDATALOAD DUP3 DUP2 GT PUSH2 0xC63 JUMPI PUSH2 0x2C30 SWAP1 CALLDATASIZE SWAP1 PUSH1 0x4 ADD PUSH2 0x5385 JUMP JUMPDEST SWAP1 DUP1 PUSH1 0x0 MSTORE PUSH1 0x6 SWAP2 PUSH1 0x20 SWAP2 DUP4 DUP4 MSTORE PUSH1 0xFF SWAP2 DUP3 DUP6 PUSH1 0x40 PUSH1 0x0 KECCAK256 ADD SLOAD AND SWAP5 PUSH2 0x2C55 DUP7 PUSH2 0x5190 JUMP JUMPDEST PUSH2 0x2C62 PUSH1 0x2 DUP1 SWAP8 EQ PUSH2 0x55DB JUMP JUMPDEST DUP3 PUSH1 0x0 MSTORE PUSH1 0xC DUP6 MSTORE PUSH2 0x2C82 PUSH1 0x1 DUP1 PUSH1 0xA0 SHL SUB PUSH1 0x40 PUSH1 0x0 KECCAK256 SLOAD AND CALLER EQ PUSH2 0x561D JUMP JUMPDEST DUP3 PUSH1 0x0 MSTORE DUP1 DUP6 MSTORE DUP4 PUSH1 0x8 PUSH1 0x40 PUSH1 0x0 KECCAK256 ADD SLOAD AND PUSH2 0x2FA5 JUMPI DUP3 PUSH1 0x0 MSTORE DUP1 DUP6 MSTORE PUSH1 0x1 SWAP6 DUP7 PUSH1 0x40 PUSH1 0x0 KECCAK256 ADD SLOAD PUSH1 0x0 MSTORE PUSH1 0xA DUP7 MSTORE DUP7 PUSH1 0x40 PUSH1 0x0 KECCAK256 PUSH1 0x40 MLOAD SWAP1 DUP2 DUP10 DUP3 SLOAD SWAP2 DUP3 DUP2 MSTORE ADD SWAP2 PUSH1 0x0 MSTORE DUP10 PUSH1 0x0 KECCAK256 SWAP1 PUSH1 0x0 JUMPDEST DUP12 DUP3 DUP3 LT PUSH2 0x2F92 JUMPI POP POP POP POP DUP2 PUSH2 0x2CE8 SWAP2 SUB DUP3 PUSH2 0x528D JUMP JUMPDEST PUSH1 0x0 SWAP3 DUP4 DUP4 JUMPDEST PUSH2 0x2F0C JUMPI JUMPDEST POP POP POP POP ISZERO PUSH2 0x2EB9 JUMPI DUP3 PUSH1 0x0 MSTORE DUP1 DUP6 MSTORE PUSH1 0x40 PUSH1 0x0 KECCAK256 SWAP7 PUSH1 0x9 PUSH1 0x8 DUP10 ADD SWAP9 PUSH1 0xFF NOT SWAP10 DUP10 DUP12 DUP3 SLOAD AND OR SWAP1 SSTORE ADD SWAP1 DUP4 MLOAD SWAP1 DUP2 GT PUSH2 0x8EC JUMPI PUSH2 0x2D35 DUP2 PUSH2 0x1B06 DUP5 SLOAD PUSH2 0x51CA JUMP JUMPDEST DUP1 DUP8 PUSH1 0x1F DUP3 GT PUSH1 0x1 EQ PUSH2 0x2E58 JUMPI PUSH1 0x0 SWAP2 PUSH2 0x2E4D JUMPI JUMPDEST POP PUSH1 0x0 NOT PUSH1 0x3 DUP4 SWAP1 SHL SHR NOT AND SWAP1 DUP9 SHL OR SWAP1 SSTORE JUMPDEST DUP3 PUSH1 0x0 MSTORE DUP5 MSTORE TIMESTAMP PUSH1 0xA PUSH1 0x40 PUSH1 0x0 KECCAK256 ADD SSTORE CALLER PUSH1 0x0 MSTORE PUSH1 0xE DUP5 MSTORE PUSH1 0x40 PUSH1 0x0 KECCAK256 SWAP1 DUP2 SLOAD SWAP1 DUP2 ISZERO PUSH2 0x2E37 JUMPI PUSH32 0xBEECE507CDD42B5D040B46961EB4B8AFA02C86708FFC5EA134540608E7DAB002 SWAP8 PUSH1 0x40 SWAP8 PUSH32 0x160AA5E3CD3142151717FE9913F974837E992E0E1A41F9934BD4B6AABDE263FA SWAP5 PUSH2 0x2E00 SWAP5 PUSH1 0x0 NOT ADD SWAP1 SSTORE CALLER PUSH1 0x0 MSTORE PUSH1 0xE DUP9 MSTORE DUP9 PUSH1 0x0 KECCAK256 SLOAD ISZERO PUSH2 0x2E21 JUMPI JUMPDEST POP POP DUP7 MLOAD SWAP2 DUP3 SWAP2 CALLER DUP4 MSTORE DUP9 DUP9 DUP5 ADD MSTORE DUP9 DUP4 ADD SWAP1 PUSH2 0x5150 JUMP JUMPDEST SUB SWAP1 LOG2 CALLER PUSH1 0x0 MSTORE PUSH1 0xD DUP3 MSTORE DUP3 PUSH1 0x0 KECCAK256 SLOAD AND SWAP1 DUP3 MLOAD SWAP2 CALLER DUP4 MSTORE ISZERO ISZERO SWAP1 DUP3 ADD MSTORE LOG1 STOP JUMPDEST PUSH1 0xD DUP9 MSTORE DUP9 PUSH1 0x0 KECCAK256 SWAP2 DUP3 SLOAD AND OR SWAP1 SSTORE DUP9 DUP1 PUSH2 0x2DE8 JUMP JUMPDEST PUSH4 0x4E487B71 PUSH1 0xE0 SHL PUSH1 0x0 MSTORE PUSH1 0x11 PUSH1 0x4 MSTORE PUSH1 0x24 PUSH1 0x0 REVERT JUMPDEST SWAP1 POP DUP5 ADD MLOAD DUP11 PUSH2 0x2D4A JUMP JUMPDEST DUP10 SWAP3 POP PUSH1 0x1F NOT DUP3 AND SWAP1 DUP5 PUSH1 0x0 MSTORE DUP10 PUSH1 0x0 KECCAK256 SWAP2 PUSH1 0x0 JUMPDEST DUP12 DUP3 DUP3 LT PUSH2 0x2EA3 JUMPI POP POP DUP4 GT PUSH2 0x2E8A JUMPI JUMPDEST POP POP DUP2 SHL ADD SWAP1 SSTORE PUSH2 0x2D5D JUMP JUMPDEST DUP7 ADD MLOAD PUSH1 0x0 NOT PUSH1 0xF8 DUP5 PUSH1 0x3 SHL AND SHR NOT AND SWAP1 SSTORE DUP11 DUP1 PUSH2 0x2E7E JUMP JUMPDEST DUP4 DUP11 ADD MLOAD DUP6 SSTORE DUP14 SWAP7 SWAP1 SWAP5 ADD SWAP4 SWAP3 DUP4 ADD SWAP3 ADD PUSH2 0x2E6D JUMP JUMPDEST PUSH1 0x40 MLOAD PUSH3 0x461BCD PUSH1 0xE5 SHL DUP2 MSTORE PUSH1 0x4 DUP2 ADD DUP7 SWAP1 MSTORE PUSH1 0x25 PUSH1 0x24 DUP3 ADD MSTORE PUSH32 0x31303025206D696C6573746F6E65206D75737420626520617070726F76656420 PUSH1 0x44 DUP3 ADD MSTORE PUSH5 0x199A5C9CDD PUSH1 0xDA SHL PUSH1 0x64 DUP3 ADD MSTORE PUSH1 0x84 SWAP1 REVERT JUMPDEST DUP3 MLOAD DUP2 LT ISZERO PUSH2 0x2F8D JUMPI PUSH2 0x2F1F DUP2 DUP5 PUSH2 0x56B1 JUMP JUMPDEST MLOAD PUSH1 0x0 MSTORE PUSH1 0x7 DUP1 DUP12 MSTORE PUSH1 0x64 DUP11 PUSH1 0x3 PUSH1 0x40 PUSH1 0x0 KECCAK256 ADD SLOAD AND EQ SWAP1 DUP2 PUSH2 0x2F5F JUMPI JUMPDEST POP PUSH2 0x2F51 JUMPI PUSH2 0x2F4B SWAP1 PUSH2 0x548D JUMP JUMPDEST DUP4 PUSH2 0x2CEE JUMP JUMPDEST POP POP POP SWAP1 POP DUP7 DUP10 DUP1 DUP1 PUSH2 0x2CF3 JUMP JUMPDEST SWAP1 POP PUSH2 0x2F6B DUP3 DUP6 PUSH2 0x56B1 JUMP JUMPDEST MLOAD PUSH1 0x0 MSTORE DUP11 MSTORE DUP2 DUP10 PUSH1 0xF PUSH1 0x40 PUSH1 0x0 KECCAK256 ADD SLOAD AND PUSH2 0x2F86 DUP2 PUSH2 0x5190 JUMP JUMPDEST EQ DUP14 PUSH2 0x2F3D JUMP JUMPDEST PUSH2 0x2CF3 JUMP JUMPDEST DUP4 SLOAD DUP6 MSTORE DUP14 SWAP7 SWAP5 ADD SWAP4 SWAP3 DUP4 ADD SWAP3 ADD PUSH2 0x2CD0 JUMP JUMPDEST PUSH1 0x64 DUP6 PUSH1 0x40 MLOAD SWAP1 PUSH3 0x461BCD PUSH1 0xE5 SHL DUP3 MSTORE DUP1 PUSH1 0x4 DUP4 ADD MSTORE PUSH1 0x24 DUP3 ADD MSTORE PUSH32 0x5175616C697479207265706F727420616C7265616479207375626D6974746564 PUSH1 0x44 DUP3 ADD MSTORE REVERT JUMPDEST CALLVALUE PUSH2 0xC63 JUMPI PUSH2 0x2FF6 CALLDATASIZE PUSH2 0x540E JUMP JUMPDEST SWAP1 PUSH1 0x0 MSTORE PUSH1 0xB PUSH1 0x20 MSTORE PUSH1 0x40 PUSH1 0x0 KECCAK256 DUP1 SLOAD DUP3 LT ISZERO PUSH2 0xC63 JUMPI PUSH1 0x20 SWAP2 PUSH2 0x3019 SWAP2 PUSH2 0x5424 JUMP JUMPDEST SWAP1 SLOAD PUSH1 0x40 MLOAD SWAP2 PUSH1 0x3 SHL SHR DUP2 MSTORE RETURN JUMPDEST CALLVALUE PUSH2 0xC63 JUMPI PUSH1 0x20 CALLDATASIZE PUSH1 0x3 NOT ADD SLT PUSH2 0xC63 JUMPI PUSH1 0x4 CALLDATALOAD DUP1 PUSH1 0x0 MSTORE PUSH1 0x7 PUSH1 0x20 MSTORE PUSH2 0x3058 PUSH1 0xFF PUSH1 0x13 PUSH1 0x40 PUSH1 0x0 KECCAK256 ADD SLOAD AND PUSH2 0x56D2 JUMP JUMPDEST PUSH1 0x0 MSTORE PUSH1 0x7 PUSH1 0x20 MSTORE PUSH2 0x30BD PUSH1 0x40 PUSH1 0x0 KECCAK256 PUSH2 0x107C PUSH1 0xC DUP3 ADD SLOAD PUSH2 0x307C PUSH1 0x6 DUP5 ADD PUSH2 0x52AE JUMP JUMPDEST SWAP3 PUSH2 0x30D9 PUSH2 0x308C PUSH1 0x7 DUP4 ADD PUSH2 0x52AE JUMP JUMPDEST SWAP2 PUSH2 0x30CB PUSH2 0x30A8 PUSH1 0x12 PUSH2 0x30A1 PUSH1 0xB DUP6 ADD PUSH2 0x52AE JUMP JUMPDEST SWAP4 ADD PUSH2 0x52AE JUMP JUMPDEST SWAP4 PUSH1 0x40 MLOAD SWAP9 DUP10 SWAP9 PUSH1 0xA0 DUP11 MSTORE PUSH1 0xA0 DUP11 ADD SWAP1 PUSH2 0x5150 JUMP JUMPDEST SWAP1 DUP9 DUP3 SUB PUSH1 0x20 DUP11 ADD MSTORE PUSH2 0x5150 JUMP JUMPDEST SWAP1 DUP7 DUP3 SUB PUSH1 0x40 DUP9 ADD MSTORE PUSH2 0x5150 JUMP JUMPDEST SWAP2 PUSH1 0x60 DUP6 ADD MSTORE DUP4 DUP3 SUB PUSH1 0x80 DUP6 ADD MSTORE PUSH2 0x5150 JUMP JUMPDEST CALLVALUE PUSH2 0xC63 JUMPI PUSH1 0xA0 CALLDATASIZE PUSH1 0x3 NOT ADD SLT PUSH2 0xC63 JUMPI PUSH1 0x1 PUSH1 0x1 PUSH1 0x40 SHL SUB PUSH1 0x64 CALLDATALOAD DUP2 DUP2 GT PUSH2 0xC63 JUMPI PUSH2 0x311D SWAP1 CALLDATASIZE SWAP1 PUSH1 0x4 ADD PUSH2 0x5385 JUMP JUMPDEST PUSH1 0x84 CALLDATALOAD SWAP1 PUSH1 0x1 PUSH1 0x1 PUSH1 0xA0 SHL SUB DUP3 AND DUP3 SUB PUSH2 0xC63 JUMPI PUSH1 0x4 CALLDATALOAD PUSH1 0x0 MSTORE PUSH1 0x5 PUSH1 0x20 MSTORE PUSH2 0x3150 PUSH1 0xFF PUSH1 0x11 PUSH1 0x40 PUSH1 0x0 KECCAK256 ADD SLOAD AND PUSH2 0x5510 JUMP JUMPDEST PUSH1 0x4 CALLDATALOAD PUSH1 0x0 MSTORE PUSH1 0x5 PUSH1 0x20 MSTORE PUSH1 0x1 DUP1 PUSH1 0xA0 SHL SUB PUSH1 0x5 PUSH1 0x40 PUSH1 0x0 KECCAK256 ADD SLOAD AND CALLER EQ DUP1 ISZERO PUSH2 0x3458 JUMPI JUMPDEST ISZERO PUSH2 0x3422 JUMPI PUSH1 0x4 CALLDATALOAD PUSH1 0x0 MSTORE PUSH1 0x5 PUSH1 0x20 MSTORE PUSH1 0x40 PUSH1 0x0 KECCAK256 PUSH1 0x3 PUSH2 0x319C PUSH1 0x44 CALLDATALOAD PUSH1 0x4 DUP5 ADD SLOAD PUSH2 0x56C5 JUMP JUMPDEST SWAP2 ADD SLOAD LT PUSH2 0x33D1 JUMPI PUSH2 0x31AF PUSH1 0x3 SLOAD PUSH2 0x548D JUMP JUMPDEST SWAP1 DUP2 PUSH1 0x3 SSTORE PUSH1 0x40 MLOAD SWAP1 PUSH2 0x31C1 DUP3 PUSH2 0x5220 JUMP JUMPDEST DUP3 DUP3 MSTORE PUSH1 0x20 DUP3 ADD SWAP3 PUSH1 0x4 CALLDATALOAD DUP5 MSTORE PUSH1 0x40 DUP4 ADD PUSH1 0x24 CALLDATALOAD DUP2 MSTORE PUSH1 0x60 DUP5 ADD SWAP2 PUSH1 0x44 CALLDATALOAD DUP4 MSTORE PUSH1 0x80 DUP6 ADD SWAP4 DUP5 MSTORE PUSH1 0x1 DUP1 PUSH1 0xA0 SHL SUB DUP8 AND PUSH1 0xA0 DUP7 ADD MSTORE TIMESTAMP PUSH1 0xC0 DUP7 ADD MSTORE PUSH1 0x0 MSTORE PUSH1 0x8 PUSH1 0x20 MSTORE PUSH1 0x40 PUSH1 0x0 KECCAK256 SWAP5 DUP5 MLOAD DUP7 SSTORE MLOAD PUSH1 0x1 DUP7 ADD SSTORE MLOAD PUSH1 0x2 DUP6 ADD SSTORE MLOAD PUSH1 0x3 DUP5 ADD SSTORE MLOAD SWAP4 DUP5 MLOAD SWAP1 DUP2 GT PUSH2 0x8EC JUMPI PUSH1 0x20 SWAP5 PUSH2 0x323F DUP3 PUSH2 0x4C4 PUSH1 0x4 DUP8 ADD SLOAD PUSH2 0x51CA JUMP JUMPDEST DUP6 SWAP1 PUSH1 0x1F DUP4 GT PUSH1 0x1 EQ PUSH2 0x335E JUMPI SWAP2 DUP1 PUSH1 0x6 SWAP5 SWAP3 PUSH1 0xC0 SWAP5 PUSH1 0x0 SWAP3 PUSH2 0x3353 JUMPI JUMPDEST POP POP DUP2 PUSH1 0x1 SHL SWAP2 PUSH1 0x0 NOT SWAP1 PUSH1 0x3 SHL SHR NOT AND OR PUSH1 0x4 DUP6 ADD SSTORE JUMPDEST PUSH1 0x5 DUP5 ADD PUSH1 0x1 DUP1 PUSH1 0xA0 SHL SUB PUSH1 0xA0 DUP4 ADD MLOAD AND PUSH1 0x1 PUSH1 0x1 PUSH1 0x60 SHL SUB PUSH1 0xA0 SHL DUP3 SLOAD AND OR SWAP1 SSTORE ADD MLOAD SWAP2 ADD SSTORE PUSH1 0x24 CALLDATALOAD ISZERO ISZERO DUP1 PUSH2 0x3337 JUMPI JUMPDEST PUSH2 0x3311 JUMPI JUMPDEST PUSH1 0x4 CALLDATALOAD PUSH1 0x0 MSTORE PUSH1 0xB DUP3 MSTORE PUSH2 0x32C7 PUSH1 0x40 PUSH1 0x0 KECCAK256 PUSH1 0x3 SLOAD SWAP1 PUSH2 0x5555 JUMP JUMPDEST PUSH1 0x3 SLOAD SWAP1 PUSH1 0x40 MLOAD SWAP1 PUSH1 0x44 CALLDATALOAD DUP3 MSTORE PUSH1 0x1 DUP1 PUSH1 0xA0 SHL SUB AND DUP4 DUP3 ADD MSTORE DUP2 PUSH32 0x13780F32AEF756AA7B54BF1925480ED3B26BEDF45CB3AC9AD99CA2F493BC02C9 PUSH1 0x40 PUSH1 0x4 CALLDATALOAD SWAP4 LOG3 PUSH1 0x40 MLOAD SWAP1 DUP2 MSTORE RETURN JUMPDEST PUSH1 0x24 CALLDATALOAD PUSH1 0x0 MSTORE PUSH1 0x7 DUP3 MSTORE PUSH1 0xE PUSH1 0x40 PUSH1 0x0 KECCAK256 ADD PUSH2 0x3330 PUSH1 0x44 CALLDATALOAD DUP3 SLOAD PUSH2 0x56C5 JUMP JUMPDEST SWAP1 SSTORE PUSH2 0x32AC JUMP JUMPDEST POP PUSH1 0x24 CALLDATALOAD PUSH1 0x0 MSTORE PUSH1 0x7 DUP3 MSTORE PUSH1 0xFF PUSH1 0x13 PUSH1 0x40 PUSH1 0x0 KECCAK256 ADD SLOAD AND PUSH2 0x32A7 JUMP JUMPDEST ADD MLOAD SWAP1 POP DUP9 DUP1 PUSH2 0x325D JUMP JUMPDEST SWAP1 PUSH1 0x4 DUP6 ADD PUSH1 0x0 MSTORE DUP7 PUSH1 0x0 KECCAK256 SWAP2 PUSH1 0x0 JUMPDEST PUSH1 0x1F NOT DUP6 AND DUP2 LT PUSH2 0x33BA JUMPI POP SWAP3 PUSH1 0x6 SWAP5 SWAP3 PUSH1 0x1 SWAP3 PUSH1 0xC0 SWAP6 DUP4 PUSH1 0x1F NOT DUP2 AND LT PUSH2 0x33A1 JUMPI JUMPDEST POP POP POP DUP2 SHL ADD PUSH1 0x4 DUP6 ADD SSTORE PUSH2 0x3275 JUMP JUMPDEST ADD MLOAD PUSH1 0x0 NOT PUSH1 0xF8 DUP5 PUSH1 0x3 SHL AND SHR NOT AND SWAP1 SSTORE DUP9 DUP1 DUP1 PUSH2 0x3391 JUMP JUMPDEST SWAP2 SWAP3 DUP9 PUSH1 0x1 DUP2 SWAP3 DUP7 DUP6 ADD MLOAD DUP2 SSTORE ADD SWAP5 ADD SWAP3 ADD PUSH2 0x336E JUMP JUMPDEST PUSH1 0x40 MLOAD PUSH3 0x461BCD PUSH1 0xE5 SHL DUP2 MSTORE PUSH1 0x20 PUSH1 0x4 DUP3 ADD MSTORE PUSH1 0x23 PUSH1 0x24 DUP3 ADD MSTORE PUSH32 0x457870656E646974757265206578636565647320616C6C6F6361746564206675 PUSH1 0x44 DUP3 ADD MSTORE PUSH3 0x6E6473 PUSH1 0xE8 SHL PUSH1 0x64 DUP3 ADD MSTORE PUSH1 0x84 SWAP1 REVERT JUMPDEST PUSH1 0x40 MLOAD PUSH3 0x461BCD PUSH1 0xE5 SHL DUP2 MSTORE PUSH1 0x20 PUSH1 0x4 DUP3 ADD MSTORE PUSH1 0xE PUSH1 0x24 DUP3 ADD MSTORE PUSH14 0x139BDD08185D5D1A1BDC9A5E9959 PUSH1 0x92 SHL PUSH1 0x44 DUP3 ADD MSTORE PUSH1 0x64 SWAP1 REVERT JUMPDEST POP PUSH1 0x40 MLOAD PUSH1 0x20 DUP2 ADD SWAP1 CALLER PUSH1 0x60 SHL DUP3 MSTORE PUSH1 0x14 DUP2 MSTORE PUSH2 0x3474 DUP2 PUSH2 0x5257 JUMP JUMPDEST MLOAD SWAP1 KECCAK256 PUSH1 0x4 CALLDATALOAD PUSH1 0x0 MSTORE PUSH1 0x5 PUSH1 0x20 MSTORE PUSH1 0x6 PUSH1 0x40 PUSH1 0x0 KECCAK256 ADD SLOAD EQ PUSH2 0x3175 JUMP JUMPDEST CALLVALUE PUSH2 0xC63 JUMPI PUSH1 0x20 DUP1 PUSH1 0x3 NOT CALLDATASIZE ADD SLT PUSH2 0xC63 JUMPI PUSH1 0x4 CALLDATALOAD DUP1 PUSH1 0x0 MSTORE PUSH1 0x5 DUP3 MSTORE PUSH2 0x34C2 PUSH1 0xFF PUSH1 0x11 PUSH1 0x40 PUSH1 0x0 KECCAK256 ADD SLOAD AND PUSH2 0x5510 JUMP JUMPDEST PUSH1 0x0 MSTORE PUSH1 0xB DUP2 MSTORE PUSH1 0x40 PUSH1 0x0 KECCAK256 SWAP1 PUSH1 0x40 MLOAD SWAP1 DUP2 DUP2 DUP5 SLOAD SWAP2 DUP3 DUP2 MSTORE ADD SWAP4 PUSH1 0x0 MSTORE DUP2 PUSH1 0x0 KECCAK256 SWAP2 PUSH1 0x0 SWAP1 JUMPDEST DUP3 DUP3 LT PUSH2 0x3500 JUMPI PUSH2 0x107C DUP6 PUSH2 0x2A78 DUP2 DUP10 SUB DUP3 PUSH2 0x528D JUMP JUMPDEST DUP4 SLOAD DUP7 MSTORE SWAP5 DUP6 ADD SWAP5 PUSH1 0x1 SWAP4 DUP5 ADD SWAP4 SWAP1 SWAP2 ADD SWAP1 PUSH2 0x34E9 JUMP JUMPDEST CALLVALUE PUSH2 0xC63 JUMPI PUSH1 0xC0 CALLDATASIZE PUSH1 0x3 NOT ADD SLT PUSH2 0xC63 JUMPI PUSH1 0x24 CALLDATALOAD PUSH1 0x4 CALLDATALOAD PUSH1 0x1 PUSH1 0x1 PUSH1 0x40 SHL SUB PUSH1 0x44 CALLDATALOAD DUP2 DUP2 GT PUSH2 0xC63 JUMPI PUSH2 0x354E SWAP1 CALLDATASIZE SWAP1 PUSH1 0x4 ADD PUSH2 0x5385 JUMP JUMPDEST SWAP2 PUSH1 0x64 CALLDATALOAD DUP3 DUP2 GT PUSH2 0xC63 JUMPI PUSH2 0x3567 SWAP1 CALLDATASIZE SWAP1 PUSH1 0x4 ADD PUSH2 0x5385 JUMP JUMPDEST SWAP2 PUSH1 0x84 CALLDATALOAD SWAP3 PUSH1 0xA4 CALLDATALOAD SWAP5 DUP4 PUSH1 0x0 MSTORE PUSH1 0x20 SWAP3 PUSH1 0x5 DUP5 MSTORE PUSH2 0x358F PUSH1 0xFF PUSH1 0x11 PUSH1 0x40 PUSH1 0x0 KECCAK256 ADD SLOAD AND PUSH2 0x5510 JUMP JUMPDEST DUP8 PUSH1 0x0 MSTORE PUSH1 0x7 DUP5 MSTORE PUSH2 0x35AB PUSH1 0xFF PUSH1 0x13 PUSH1 0x40 PUSH1 0x0 KECCAK256 ADD SLOAD AND PUSH2 0x56D2 JUMP JUMPDEST DUP8 PUSH1 0x0 MSTORE PUSH1 0x7 DUP5 MSTORE PUSH1 0x1 DUP6 DUP2 PUSH1 0x40 PUSH1 0x0 KECCAK256 ADD SLOAD SUB PUSH2 0x387C JUMPI DUP9 PUSH1 0x0 MSTORE PUSH1 0x7 DUP6 MSTORE DUP1 PUSH1 0xFF PUSH1 0xF PUSH1 0x40 PUSH1 0x0 KECCAK256 ADD SLOAD AND PUSH2 0x35E1 DUP2 PUSH2 0x5190 JUMP JUMPDEST SUB PUSH2 0x3839 JUMPI DUP9 PUSH1 0x0 MSTORE PUSH1 0x7 DUP6 MSTORE PUSH1 0x40 PUSH1 0x0 KECCAK256 SWAP2 PUSH1 0x6 DUP4 ADD DUP5 MLOAD DUP3 DUP2 GT PUSH2 0x8EC JUMPI PUSH2 0x360F DUP2 PUSH2 0x1B06 DUP5 SLOAD PUSH2 0x51CA JUMP JUMPDEST DUP1 DUP9 PUSH1 0x1F DUP3 GT PUSH1 0x1 EQ PUSH2 0x37D8 JUMPI PUSH1 0x0 SWAP2 PUSH2 0x37CD JUMPI JUMPDEST POP PUSH1 0x0 NOT PUSH1 0x3 DUP4 SWAP1 SHL SHR NOT AND SWAP1 DUP5 SHL OR SWAP1 SSTORE JUMPDEST PUSH1 0x7 DUP4 ADD SWAP2 DUP6 MLOAD SWAP2 DUP3 GT PUSH2 0x8EC JUMPI DUP11 SWAP7 PUSH2 0x3655 DUP4 PUSH2 0x199F DUP7 SLOAD PUSH2 0x51CA JUMP JUMPDEST DUP1 PUSH1 0x1F DUP5 GT PUSH1 0x1 EQ PUSH2 0x3723 JUMPI POP PUSH1 0x0 DUP1 MLOAD PUSH1 0x20 PUSH2 0x58B9 DUP4 CODECOPY DUP2 MLOAD SWAP2 MSTORE SWAP11 SWAP8 SWAP5 PUSH32 0xCA071656A3D7F869038B9236BE798B77DBBC7EE420088326A529152F4A072D92 SWAP5 DUP5 DUP1 PUSH1 0xA SWAP14 SWAP11 SWAP7 PUSH2 0x3703 SWAP14 SWAP11 SWAP7 PUSH2 0x36EA SWAP7 PUSH1 0x0 SWAP4 PUSH2 0x3718 JUMPI JUMPDEST POP SHL SWAP2 PUSH1 0x0 NOT SWAP1 PUSH1 0x3 SHL SHR NOT AND OR SWAP1 SSTORE JUMPDEST DUP8 PUSH1 0x8 DUP3 ADD SSTORE DUP9 PUSH1 0x9 DUP3 ADD SSTORE PUSH2 0x36D7 DUP10 DUP10 DUP10 PUSH2 0x571E JUMP JUMPDEST SWAP11 ADD DUP1 SLOAD PUSH1 0xFF NOT AND PUSH1 0xFF DUP13 ISZERO ISZERO AND OR SWAP1 SSTORE JUMP JUMPDEST PUSH2 0x36FB DUP8 DUP8 PUSH1 0x40 MLOAD SWAP5 DUP6 SWAP5 DUP6 PUSH2 0x567C JUMP JUMPDEST SUB SWAP1 LOG2 PUSH2 0x575F JUMP JUMPDEST PUSH1 0x40 DUP1 MLOAD SWAP3 ISZERO ISZERO DUP4 MSTORE PUSH1 0x20 DUP4 ADD SWAP2 SWAP1 SWAP2 MSTORE SWAP1 LOG2 STOP JUMPDEST DUP10 ADD MLOAD SWAP3 POP CODESIZE PUSH2 0x36AF JUMP JUMPDEST SWAP1 PUSH1 0x1F SWAP4 SWAP3 SWAP4 NOT DUP4 AND DUP6 PUSH1 0x0 MSTORE DUP3 PUSH1 0x0 KECCAK256 SWAP3 PUSH1 0x0 SWAP1 JUMPDEST DUP3 DUP3 LT PUSH2 0x37B3 JUMPI POP POP SWAP5 PUSH1 0xA SWAP12 SWAP9 SWAP5 DUP5 PUSH2 0x36EA SWAP5 PUSH1 0x0 DUP1 MLOAD PUSH1 0x20 PUSH2 0x58B9 DUP4 CODECOPY DUP2 MLOAD SWAP2 MSTORE SWAP16 SWAP13 SWAP10 SWAP5 PUSH2 0x3703 SWAP15 SWAP12 SWAP8 PUSH32 0xCA071656A3D7F869038B9236BE798B77DBBC7EE420088326A529152F4A072D92 SWAP11 LT PUSH2 0x379A JUMPI JUMPDEST POP POP DUP2 SHL ADD SWAP1 SSTORE PUSH2 0x36C0 JUMP JUMPDEST DUP9 ADD MLOAD PUSH1 0x0 NOT PUSH1 0xF8 DUP5 PUSH1 0x3 SHL AND SHR NOT AND SWAP1 SSTORE CODESIZE DUP1 PUSH2 0x378E JUMP JUMPDEST DUP4 DUP12 ADD MLOAD DUP6 SSTORE DUP16 SWAP12 POP SWAP4 DUP7 ADD SWAP4 SWAP3 DUP4 ADD SWAP3 SWAP1 DUP2 ADD SWAP1 PUSH2 0x3739 JUMP JUMPDEST SWAP1 POP DUP7 ADD MLOAD DUP14 PUSH2 0x3624 JUMP JUMPDEST DUP6 SWAP3 POP PUSH1 0x1F NOT DUP3 AND SWAP1 DUP5 PUSH1 0x0 MSTORE DUP11 PUSH1 0x0 KECCAK256 SWAP2 PUSH1 0x0 JUMPDEST DUP13 DUP3 DUP3 LT PUSH2 0x3823 JUMPI POP POP DUP4 GT PUSH2 0x380A JUMPI JUMPDEST POP POP DUP2 SHL ADD SWAP1 SSTORE PUSH2 0x3637 JUMP JUMPDEST DUP9 ADD MLOAD PUSH1 0x0 NOT PUSH1 0xF8 DUP5 PUSH1 0x3 SHL AND SHR NOT AND SWAP1 SSTORE DUP14 DUP1 PUSH2 0x37FE JUMP JUMPDEST DUP4 DUP13 ADD MLOAD DUP6 SSTORE DUP10 SWAP7 SWAP1 SWAP5 ADD SWAP4 SWAP3 DUP4 ADD SWAP3 ADD PUSH2 0x37ED JUMP JUMPDEST PUSH1 0x64 DUP6 PUSH1 0x40 MLOAD SWAP1 PUSH3 0x461BCD PUSH1 0xE5 SHL DUP3 MSTORE DUP1 PUSH1 0x4 DUP4 ADD MSTORE PUSH1 0x24 DUP3 ADD MSTORE PUSH32 0x4D696C6573746F6E65206E6F7420696E207375626D6974746564207374617465 PUSH1 0x44 DUP3 ADD MSTORE REVERT JUMPDEST PUSH1 0x40 MLOAD PUSH3 0x461BCD PUSH1 0xE5 SHL DUP2 MSTORE PUSH1 0x4 DUP2 ADD DUP7 SWAP1 MSTORE PUSH1 0x1E PUSH1 0x24 DUP3 ADD MSTORE PUSH32 0x4D696C6573746F6E65206E6F7420666F7220746869732070726F6A6563740000 PUSH1 0x44 DUP3 ADD MSTORE PUSH1 0x64 SWAP1 REVERT JUMPDEST CALLVALUE PUSH2 0xC63 JUMPI PUSH1 0x20 CALLDATASIZE PUSH1 0x3 NOT ADD SLT PUSH2 0xC63 JUMPI PUSH1 0x1 PUSH1 0x1 PUSH1 0xA0 SHL SUB PUSH2 0x38E2 PUSH2 0x5354 JUMP JUMPDEST AND PUSH1 0x0 MSTORE PUSH1 0xD PUSH1 0x20 MSTORE PUSH1 0xFF PUSH1 0x40 PUSH1 0x0 KECCAK256 SLOAD AND DUP1 ISZERO PUSH2 0x391B JUMPI JUMPDEST PUSH1 0xE PUSH1 0x20 SWAP1 DUP2 MSTORE PUSH1 0x40 PUSH1 0x0 DUP2 SWAP1 KECCAK256 SLOAD DUP2 MLOAD SWAP4 ISZERO ISZERO DUP5 MSTORE SWAP2 DUP4 ADD SWAP2 SWAP1 SWAP2 MSTORE SWAP1 RETURN JUMPDEST POP PUSH1 0xE PUSH1 0x20 MSTORE PUSH1 0x40 PUSH1 0x0 KECCAK256 SLOAD ISZERO PUSH2 0x38FB JUMP JUMPDEST CALLVALUE PUSH2 0xC63 JUMPI PUSH2 0x393B CALLDATASIZE PUSH2 0x540E JUMP JUMPDEST SWAP1 PUSH1 0x0 MSTORE PUSH1 0xA PUSH1 0x20 MSTORE PUSH1 0x40 PUSH1 0x0 KECCAK256 DUP1 SLOAD DUP3 LT ISZERO PUSH2 0xC63 JUMPI PUSH1 0x20 SWAP2 PUSH2 0x3019 SWAP2 PUSH2 0x5424 JUMP JUMPDEST CALLVALUE PUSH2 0xC63 JUMPI PUSH1 0x20 CALLDATASIZE PUSH1 0x3 NOT ADD SLT PUSH2 0xC63 JUMPI PUSH1 0x4 CALLDATALOAD DUP1 PUSH1 0x0 MSTORE PUSH1 0x5 PUSH1 0x20 MSTORE PUSH1 0x40 PUSH1 0x0 KECCAK256 PUSH1 0x11 ADD SLOAD PUSH1 0xFF AND PUSH2 0x3990 SWAP1 PUSH2 0x5510 JUMP JUMPDEST PUSH1 0x0 MSTORE PUSH1 0x5 PUSH1 0x20 MSTORE PUSH1 0x40 PUSH1 0x0 KECCAK256 PUSH1 0x2 DUP2 ADD SLOAD PUSH1 0x3 DUP3 ADD SLOAD SWAP2 PUSH1 0x4 DUP2 ADD SLOAD SWAP1 PUSH1 0x1 PUSH1 0xA0 SHL PUSH1 0x1 SWAP1 SUB PUSH1 0x5 DUP3 ADD SLOAD AND SWAP2 PUSH1 0x7 DUP3 ADD SLOAD PUSH1 0xFF AND SWAP2 PUSH1 0xD DUP2 ADD SLOAD SWAP4 PUSH1 0xE DUP3 ADD SLOAD SWAP4 PUSH1 0x1 DUP4 ADD PUSH2 0x39E0 SWAP1 PUSH2 0x52AE JUMP JUMPDEST PUSH2 0x39EC PUSH1 0x8 DUP6 ADD PUSH2 0x52AE JUMP JUMPDEST SWAP1 PUSH2 0x39F9 PUSH1 0x9 DUP7 ADD PUSH2 0x52AE JUMP JUMPDEST SWAP3 PUSH2 0x3A06 PUSH1 0xA DUP8 ADD PUSH2 0x52AE JUMP JUMPDEST SWAP5 PUSH2 0x3A13 PUSH1 0xB DUP9 ADD PUSH2 0x52AE JUMP JUMPDEST SWAP7 PUSH1 0xC ADD PUSH2 0x3A20 SWAP1 PUSH2 0x52AE JUMP JUMPDEST SWAP8 PUSH1 0x40 MLOAD SWAP13 DUP14 SWAP13 DUP14 SWAP6 PUSH2 0x1A0 DUP1 DUP9 MSTORE DUP8 ADD PUSH2 0x3A3A SWAP2 PUSH2 0x5150 JUMP JUMPDEST SWAP6 PUSH1 0x20 ADD MSTORE PUSH1 0x40 DUP14 ADD MSTORE PUSH1 0x60 DUP13 ADD MSTORE PUSH1 0x80 DUP12 ADD MSTORE PUSH2 0x3A57 DUP2 PUSH2 0x5190 JUMP JUMPDEST PUSH1 0xA0 DUP11 ADD MSTORE DUP9 DUP2 SUB PUSH1 0xC0 DUP11 ADD MSTORE PUSH2 0x3A6D SWAP2 PUSH2 0x5150 JUMP JUMPDEST DUP8 DUP2 SUB PUSH1 0xE0 DUP10 ADD MSTORE PUSH2 0x3A7E SWAP2 PUSH2 0x5150 JUMP JUMPDEST DUP7 DUP2 SUB PUSH2 0x100 DUP9 ADD MSTORE PUSH2 0x3A90 SWAP2 PUSH2 0x5150 JUMP JUMPDEST DUP6 DUP2 SUB PUSH2 0x120 DUP8 ADD MSTORE PUSH2 0x3AA2 SWAP2 PUSH2 0x5150 JUMP JUMPDEST DUP5 DUP2 SUB PUSH2 0x140 DUP7 ADD MSTORE PUSH2 0x3AB4 SWAP2 PUSH2 0x5150 JUMP JUMPDEST SWAP2 PUSH2 0x160 DUP5 ADD MSTORE PUSH2 0x180 DUP4 ADD MSTORE SUB SWAP1 RETURN JUMPDEST CALLVALUE PUSH2 0xC63 JUMPI PUSH1 0x20 CALLDATASIZE PUSH1 0x3 NOT ADD SLT PUSH2 0xC63 JUMPI PUSH2 0x3BF2 PUSH1 0x4 CALLDATALOAD DUP1 PUSH1 0x0 MSTORE PUSH1 0x6 PUSH1 0x20 MSTORE PUSH1 0x40 PUSH1 0x0 KECCAK256 PUSH1 0x40 MLOAD SWAP2 PUSH2 0x3AF7 DUP4 PUSH2 0x5204 JUMP JUMPDEST DUP2 SLOAD DUP4 MSTORE PUSH1 0x1 DUP3 ADD SLOAD PUSH1 0x20 DUP5 ADD MSTORE PUSH1 0x2 DUP3 ADD SLOAD PUSH1 0x40 DUP5 ADD MSTORE PUSH2 0x3B1B PUSH1 0x3 DUP4 ADD PUSH2 0x52AE JUMP JUMPDEST PUSH1 0x60 DUP5 ADD MSTORE PUSH2 0x3B2C PUSH1 0x4 DUP4 ADD PUSH2 0x52AE JUMP JUMPDEST PUSH1 0x80 DUP5 ADD SWAP1 DUP2 MSTORE PUSH2 0x3B3F PUSH1 0x5 DUP5 ADD PUSH2 0x52AE JUMP JUMPDEST SWAP4 PUSH1 0xA0 DUP2 ADD SWAP5 DUP6 MSTORE PUSH2 0x140 PUSH1 0xA PUSH1 0xFF PUSH1 0x6 DUP8 ADD SLOAD AND SWAP6 PUSH1 0xC0 DUP5 ADD SWAP7 PUSH2 0x3B63 DUP2 PUSH2 0x5190 JUMP JUMPDEST DUP8 MSTORE PUSH1 0x7 DUP2 ADD SLOAD PUSH1 0xE0 DUP6 ADD MSTORE PUSH1 0xFF PUSH1 0x8 DUP3 ADD SLOAD AND ISZERO ISZERO PUSH2 0x100 DUP6 ADD MSTORE PUSH2 0x3B8B PUSH1 0x9 DUP3 ADD PUSH2 0x52AE JUMP JUMPDEST PUSH2 0x120 DUP6 ADD MSTORE ADD SLOAD SWAP2 ADD MSTORE MLOAD SWAP3 MLOAD SWAP1 PUSH1 0x2 DUP4 MLOAD SWAP4 PUSH2 0x3BA8 DUP6 PUSH2 0x5190 JUMP JUMPDEST MLOAD PUSH2 0x3BB2 DUP2 PUSH2 0x5190 JUMP JUMPDEST PUSH2 0x3BBB DUP2 PUSH2 0x5190 JUMP JUMPDEST SUB PUSH2 0x3C21 JUMPI PUSH1 0x0 SWAP1 DUP2 MSTORE PUSH1 0xC PUSH1 0x20 MSTORE PUSH1 0x40 SWAP1 KECCAK256 SLOAD PUSH1 0x1 PUSH1 0x1 PUSH1 0xA0 SHL SUB AND SWAP1 PUSH2 0x3C00 SWAP1 JUMPDEST PUSH1 0x40 MLOAD SWAP6 DUP7 SWAP6 PUSH1 0x80 DUP8 MSTORE PUSH1 0x80 DUP8 ADD SWAP1 PUSH2 0x5150 JUMP JUMPDEST SWAP1 DUP6 DUP3 SUB PUSH1 0x20 DUP8 ADD MSTORE PUSH2 0x5150 JUMP JUMPDEST SWAP2 PUSH2 0x3C0A DUP2 PUSH2 0x5190 JUMP JUMPDEST PUSH1 0x40 DUP5 ADD MSTORE PUSH1 0x1 PUSH1 0x1 PUSH1 0xA0 SHL SUB AND PUSH1 0x60 DUP4 ADD MSTORE SUB SWAP1 RETURN JUMPDEST POP PUSH2 0x3C00 PUSH1 0x0 SWAP2 PUSH2 0x3BDE JUMP JUMPDEST CALLVALUE PUSH2 0xC63 JUMPI PUSH1 0x20 DUP1 PUSH1 0x3 NOT CALLDATASIZE ADD SLT PUSH2 0xC63 JUMPI PUSH1 0x4 CALLDATALOAD DUP1 PUSH1 0x0 MSTORE PUSH1 0x5 DUP3 MSTORE PUSH2 0x3C5E PUSH1 0xFF PUSH1 0x11 PUSH1 0x40 PUSH1 0x0 KECCAK256 ADD SLOAD AND PUSH2 0x5510 JUMP JUMPDEST PUSH1 0x0 MSTORE PUSH1 0xA DUP2 MSTORE PUSH1 0x40 PUSH1 0x0 KECCAK256 SWAP1 PUSH1 0x40 MLOAD SWAP1 DUP2 DUP2 DUP5 SLOAD SWAP2 DUP3 DUP2 MSTORE ADD SWAP4 PUSH1 0x0 MSTORE DUP2 PUSH1 0x0 KECCAK256 SWAP2 PUSH1 0x0 SWAP1 JUMPDEST DUP3 DUP3 LT PUSH2 0x3C9C JUMPI PUSH2 0x107C DUP6 PUSH2 0x2A78 DUP2 DUP10 SUB DUP3 PUSH2 0x528D JUMP JUMPDEST DUP4 SLOAD DUP7 MSTORE SWAP5 DUP6 ADD SWAP5 PUSH1 0x1 SWAP4 DUP5 ADD SWAP4 SWAP1 SWAP2 ADD SWAP1 PUSH2 0x3C85 JUMP JUMPDEST CALLVALUE PUSH2 0xC63 JUMPI PUSH1 0x20 CALLDATASIZE PUSH1 0x3 NOT ADD SLT PUSH2 0xC63 JUMPI PUSH1 0x4 CALLDATALOAD PUSH1 0x0 MSTORE PUSH1 0x7 PUSH1 0x20 MSTORE PUSH1 0x40 PUSH1 0x0 KECCAK256 PUSH2 0x3CE4 PUSH1 0xFF PUSH1 0x13 DUP4 ADD SLOAD AND PUSH2 0x56D2 JUMP JUMPDEST PUSH1 0xF DUP2 ADD SLOAD PUSH1 0x1 PUSH1 0xFF DUP3 AND PUSH2 0x3CF8 DUP2 PUSH2 0x5190 JUMP JUMPDEST SUB PUSH2 0x41B7 JUMPI PUSH1 0x1 DUP3 ADD SLOAD PUSH2 0x3D3B PUSH1 0x40 MLOAD PUSH1 0x20 DUP2 ADD SWAP1 CALLER PUSH1 0x60 SHL DUP3 MSTORE PUSH1 0x14 DUP2 MSTORE PUSH2 0x3D20 DUP2 PUSH2 0x5257 JUMP JUMPDEST MLOAD SWAP1 KECCAK256 DUP3 PUSH1 0x0 MSTORE PUSH1 0x5 PUSH1 0x20 MSTORE PUSH1 0x6 PUSH1 0x40 PUSH1 0x0 KECCAK256 ADD SLOAD EQ PUSH2 0x558F JUMP JUMPDEST PUSH1 0xFF PUSH1 0xA DUP5 ADD SLOAD AND ISZERO PUSH2 0x4172 JUMPI PUSH2 0x3D55 PUSH1 0x6 DUP5 ADD SLOAD PUSH2 0x51CA JUMP JUMPDEST ISZERO PUSH2 0x4138 JUMPI PUSH1 0xFF PUSH1 0x3 DUP5 ADD SLOAD AND SWAP2 PUSH1 0x14 DUP4 GT PUSH2 0x3FF0 JUMPI JUMPDEST PUSH1 0x2 SWAP2 SWAP3 POP PUSH1 0xFF NOT AND OR PUSH1 0xF DUP4 ADD SSTORE TIMESTAMP PUSH1 0x11 DUP4 ADD SSTORE PUSH1 0xD DUP3 ADD SLOAD SWAP2 PUSH1 0x2 DUP2 ADD SLOAD PUSH1 0x0 MSTORE PUSH1 0xC PUSH1 0x20 MSTORE PUSH1 0x1 DUP1 PUSH1 0xA0 SHL SUB PUSH1 0x40 PUSH1 0x0 KECCAK256 SLOAD AND SWAP3 DUP3 PUSH1 0x0 MSTORE PUSH1 0x5 PUSH1 0x20 MSTORE DUP1 PUSH1 0x3 PUSH1 0x40 PUSH1 0x0 KECCAK256 ADD SLOAD LT PUSH2 0x3FAB JUMPI DUP3 PUSH1 0x0 MSTORE PUSH1 0x5 PUSH1 0x20 MSTORE PUSH1 0x4 PUSH1 0x40 PUSH1 0x0 KECCAK256 ADD PUSH2 0x3DD7 DUP3 DUP3 SLOAD PUSH2 0x56C5 JUMP JUMPDEST SWAP1 SSTORE DUP3 PUSH1 0x0 MSTORE PUSH1 0x5 PUSH1 0x20 MSTORE PUSH1 0x3 PUSH1 0x40 PUSH1 0x0 KECCAK256 ADD DUP1 SLOAD DUP1 DUP4 DUP2 SUB GT PUSH2 0x2E37 JUMPI DUP3 SWAP1 SUB SWAP1 SSTORE PUSH1 0x0 DUP1 DUP1 DUP1 DUP5 DUP9 GAS CALL RETURNDATASIZE ISZERO PUSH2 0x3FA6 JUMPI RETURNDATASIZE PUSH2 0x3E13 DUP2 PUSH2 0x536A JUMP JUMPDEST SWAP1 PUSH2 0x3E21 PUSH1 0x40 MLOAD SWAP3 DUP4 PUSH2 0x528D JUMP JUMPDEST DUP2 MSTORE PUSH1 0x0 PUSH1 0x20 RETURNDATASIZE SWAP3 ADD RETURNDATACOPY JUMPDEST ISZERO PUSH2 0x3F6F JUMPI DUP3 PUSH32 0xCD3C5E4379009BA79BACD27E7DDA9B2CEAE5FA7D95370F5583F8601FF3BEE5CF PUSH1 0x60 PUSH1 0xFF PUSH1 0x3 PUSH1 0x64 SWAP7 DUP10 PUSH1 0x0 MSTORE PUSH1 0xF PUSH1 0x20 MSTORE PUSH1 0x40 PUSH1 0x0 KECCAK256 DUP4 DUP4 DUP3 ADD SLOAD AND PUSH2 0x3F59 JUMPI JUMPDEST POP PUSH1 0x40 MLOAD DUP8 DUP2 MSTORE PUSH32 0x939DA3B627C123C81FE5AACEBF925163337A0D4F8A03724640618078CAD24894 PUSH1 0x20 PUSH1 0x4 CALLDATALOAD SWAP3 LOG2 PUSH1 0x40 MLOAD DUP11 DUP2 MSTORE DUP8 PUSH1 0x20 DUP3 ADD MSTORE PUSH32 0xE685657B3E26333B6523981EC33F5C6972FF07B95B7E6D7DAD65A741E0177F24 PUSH1 0x40 PUSH1 0x4 CALLDATALOAD SWAP3 LOG2 ADD SLOAD AND SWAP4 PUSH1 0x40 MLOAD SWAP1 DUP9 DUP3 MSTORE PUSH1 0x20 DUP3 ADD MSTORE DUP5 PUSH1 0x40 DUP3 ADD MSTORE LOG2 SUB PUSH2 0x3F3B JUMPI PUSH1 0x0 MSTORE PUSH1 0x5 PUSH1 0x20 MSTORE PUSH1 0x7 PUSH1 0x40 PUSH1 0x0 KECCAK256 ADD PUSH1 0x3 PUSH1 0xFF NOT DUP3 SLOAD AND OR SWAP1 SSTORE PUSH1 0x0 MSTORE PUSH1 0xF PUSH1 0x20 MSTORE PUSH1 0x40 PUSH1 0x0 KECCAK256 PUSH1 0xFF PUSH1 0x3 DUP3 ADD SLOAD AND PUSH2 0x3F2A JUMPI STOP JUMPDEST PUSH1 0x5 ADD PUSH2 0x3F37 DUP2 SLOAD PUSH2 0x548D JUMP JUMPDEST SWAP1 SSTORE STOP JUMPDEST PUSH1 0x0 SWAP1 DUP2 MSTORE PUSH1 0x5 PUSH1 0x20 MSTORE PUSH1 0x40 SWAP1 KECCAK256 PUSH1 0x7 ADD DUP1 SLOAD PUSH1 0xFF NOT AND PUSH1 0x2 OR SWAP1 SSTORE STOP JUMPDEST PUSH1 0x6 ADD PUSH2 0x3F67 DUP9 DUP3 SLOAD PUSH2 0x56C5 JUMP JUMPDEST SWAP1 SSTORE DUP11 PUSH2 0x3E75 JUMP JUMPDEST PUSH1 0x40 MLOAD PUSH3 0x461BCD PUSH1 0xE5 SHL DUP2 MSTORE PUSH1 0x20 PUSH1 0x4 DUP3 ADD MSTORE PUSH1 0xF PUSH1 0x24 DUP3 ADD MSTORE PUSH15 0x151C985B9CD9995C8819985A5B1959 PUSH1 0x8A SHL PUSH1 0x44 DUP3 ADD MSTORE PUSH1 0x64 SWAP1 REVERT JUMPDEST PUSH2 0x3E2C JUMP JUMPDEST PUSH1 0x40 MLOAD PUSH3 0x461BCD PUSH1 0xE5 SHL DUP2 MSTORE PUSH1 0x20 PUSH1 0x4 DUP3 ADD MSTORE PUSH1 0x1C PUSH1 0x24 DUP3 ADD MSTORE PUSH32 0x496E73756666696369656E7420616C6C6F63617465642066756E647300000000 PUSH1 0x44 DUP3 ADD MSTORE PUSH1 0x64 SWAP1 REVERT JUMPDEST PUSH1 0xFF PUSH1 0x13 NOT DUP5 ADD GT PUSH2 0x2E37 JUMPI PUSH1 0x0 SWAP3 DUP3 PUSH1 0x0 MSTORE PUSH1 0xA PUSH1 0x20 MSTORE PUSH1 0x40 PUSH1 0x0 KECCAK256 SWAP1 PUSH1 0x40 MLOAD DUP1 DUP4 PUSH1 0x20 DUP3 SWAP6 SLOAD SWAP4 DUP5 DUP2 MSTORE ADD SWAP1 PUSH1 0x0 MSTORE PUSH1 0x20 PUSH1 0x0 KECCAK256 SWAP3 PUSH1 0x0 JUMPDEST DUP2 DUP2 LT PUSH2 0x411F JUMPI POP POP PUSH2 0x403F SWAP3 POP SUB DUP4 PUSH2 0x528D JUMP JUMPDEST PUSH1 0x0 JUMPDEST DUP3 MLOAD DUP2 LT ISZERO PUSH2 0x4115 JUMPI PUSH2 0x4055 DUP2 DUP5 PUSH2 0x56B1 JUMP JUMPDEST MLOAD PUSH1 0x0 MSTORE PUSH1 0x7 PUSH1 0x20 MSTORE PUSH1 0xFF PUSH1 0x13 NOT DUP4 ADD AND PUSH1 0xFF PUSH1 0x3 PUSH1 0x40 PUSH1 0x0 KECCAK256 ADD SLOAD AND EQ DUP1 PUSH2 0x40E4 JUMPI JUMPDEST PUSH2 0x408B JUMPI PUSH2 0x4086 SWAP1 PUSH2 0x548D JUMP JUMPDEST PUSH2 0x4042 JUMP JUMPDEST POP POP POP SWAP1 SWAP2 POP PUSH1 0x1 JUMPDEST ISZERO PUSH2 0x40A0 JUMPI DUP2 SWAP1 PUSH2 0x3D6C JUMP JUMPDEST PUSH1 0x64 PUSH1 0x40 MLOAD PUSH3 0x461BCD PUSH1 0xE5 SHL DUP2 MSTORE PUSH1 0x20 PUSH1 0x4 DUP3 ADD MSTORE PUSH1 0x20 PUSH1 0x24 DUP3 ADD MSTORE PUSH32 0x50726576696F7573206D696C6573746F6E65206E6F7420636F6D706C65746564 PUSH1 0x44 DUP3 ADD MSTORE REVERT JUMPDEST POP PUSH2 0x40EF DUP2 DUP5 PUSH2 0x56B1 JUMP JUMPDEST MLOAD PUSH1 0x0 MSTORE PUSH1 0x7 PUSH1 0x20 MSTORE PUSH1 0x2 PUSH1 0xFF PUSH1 0xF PUSH1 0x40 PUSH1 0x0 KECCAK256 ADD SLOAD AND PUSH2 0x410F DUP2 PUSH2 0x5190 JUMP JUMPDEST EQ PUSH2 0x4079 JUMP JUMPDEST POP POP POP SWAP1 SWAP2 PUSH2 0x4094 JUMP JUMPDEST DUP5 SLOAD DUP4 MSTORE PUSH1 0x1 SWAP5 DUP6 ADD SWAP5 DUP8 SWAP5 POP PUSH1 0x20 SWAP1 SWAP4 ADD SWAP3 ADD PUSH2 0x402A JUMP JUMPDEST PUSH1 0x40 MLOAD PUSH3 0x461BCD PUSH1 0xE5 SHL DUP2 MSTORE PUSH1 0x20 PUSH1 0x4 DUP3 ADD MSTORE PUSH1 0x12 PUSH1 0x24 DUP3 ADD MSTORE PUSH18 0x139BC81C1C9BDBD9881CDD589B5A5D1D1959 PUSH1 0x72 SHL PUSH1 0x44 DUP3 ADD MSTORE PUSH1 0x64 SWAP1 REVERT JUMPDEST PUSH1 0x40 MLOAD PUSH3 0x461BCD PUSH1 0xE5 SHL DUP2 MSTORE PUSH1 0x20 PUSH1 0x4 DUP3 ADD MSTORE PUSH1 0x17 PUSH1 0x24 DUP3 ADD MSTORE PUSH32 0x47505320766572696669636174696F6E206661696C6564000000000000000000 PUSH1 0x44 DUP3 ADD MSTORE PUSH1 0x64 SWAP1 REVERT JUMPDEST PUSH1 0x40 MLOAD PUSH3 0x461BCD PUSH1 0xE5 SHL DUP2 MSTORE PUSH1 0x20 PUSH1 0x4 DUP3 ADD MSTORE PUSH1 0x17 PUSH1 0x24 DUP3 ADD MSTORE PUSH32 0x4D696C6573746F6E65206E6F74207375626D6974746564000000000000000000 PUSH1 0x44 DUP3 ADD MSTORE PUSH1 0x64 SWAP1 REVERT JUMPDEST CALLVALUE PUSH2 0xC63 JUMPI PUSH1 0x20 DUP1 PUSH1 0x3 NOT CALLDATASIZE ADD SLT PUSH2 0xC63 JUMPI PUSH2 0x4216 PUSH2 0x5354 JUMP JUMPDEST SWAP1 PUSH1 0x0 PUSH1 0xC0 PUSH1 0x40 MLOAD PUSH2 0x4227 DUP2 PUSH2 0x5220 JUMP JUMPDEST DUP3 DUP2 MSTORE DUP3 DUP5 DUP3 ADD MSTORE PUSH1 0x60 PUSH1 0x40 DUP3 ADD MSTORE DUP3 PUSH1 0x60 DUP3 ADD MSTORE DUP3 PUSH1 0x80 DUP3 ADD MSTORE DUP3 PUSH1 0xA0 DUP3 ADD MSTORE ADD MSTORE PUSH1 0x1 DUP1 PUSH1 0xA0 SHL SUB DUP1 SWAP3 AND PUSH1 0x0 MSTORE PUSH1 0xF DUP2 MSTORE PUSH1 0x40 PUSH1 0x0 KECCAK256 PUSH1 0x40 MLOAD SWAP2 PUSH2 0x426D DUP4 PUSH2 0x5220 JUMP JUMPDEST DUP4 DUP3 SLOAD AND DUP4 MSTORE PUSH1 0x1 DUP3 ADD SLOAD SWAP2 DUP2 DUP5 ADD SWAP3 DUP4 MSTORE PUSH2 0x428B PUSH1 0x2 DUP3 ADD PUSH2 0x52AE JUMP JUMPDEST SWAP3 PUSH1 0x40 DUP6 ADD SWAP4 DUP5 MSTORE PUSH2 0x42F6 PUSH1 0xFF PUSH1 0x3 DUP5 ADD SLOAD AND SWAP5 PUSH1 0x60 DUP8 ADD SWAP6 ISZERO ISZERO DUP7 MSTORE PUSH1 0x4 DUP5 ADD SLOAD SWAP3 PUSH1 0x80 DUP9 ADD SWAP4 DUP5 MSTORE PUSH1 0x6 PUSH1 0x5 DUP7 ADD SLOAD SWAP6 PUSH1 0xA0 DUP11 ADD SWAP7 DUP8 MSTORE ADD SLOAD SWAP6 PUSH1 0xC0 DUP10 ADD SWAP7 DUP8 MSTORE PUSH1 0x40 MLOAD SWAP10 DUP11 SWAP10 DUP3 DUP12 MSTORE MLOAD AND SWAP1 DUP10 ADD MSTORE MLOAD PUSH1 0x40 DUP9 ADD MSTORE MLOAD PUSH1 0xE0 PUSH1 0x60 DUP9 ADD MSTORE PUSH2 0x100 DUP8 ADD SWAP1 PUSH2 0x5150 JUMP JUMPDEST SWAP4 MLOAD ISZERO ISZERO PUSH1 0x80 DUP7 ADD MSTORE MLOAD PUSH1 0xA0 DUP6 ADD MSTORE MLOAD PUSH1 0xC0 DUP5 ADD MSTORE MLOAD PUSH1 0xE0 DUP4 ADD MSTORE SUB SWAP1 RETURN JUMPDEST CALLVALUE PUSH2 0xC63 JUMPI PUSH1 0x20 CALLDATASIZE PUSH1 0x3 NOT ADD SLT PUSH2 0xC63 JUMPI PUSH1 0x4 CALLDATALOAD PUSH1 0x0 MSTORE PUSH1 0x6 PUSH1 0x20 MSTORE PUSH1 0x40 PUSH1 0x0 KECCAK256 DUP1 SLOAD PUSH1 0x1 DUP3 ADD SLOAD SWAP2 PUSH1 0x2 DUP2 ADD SLOAD SWAP1 PUSH1 0x3 DUP2 ADD PUSH2 0x4351 SWAP1 PUSH2 0x52AE JUMP JUMPDEST PUSH2 0x435D PUSH1 0x4 DUP4 ADD PUSH2 0x52AE JUMP JUMPDEST SWAP1 PUSH2 0x436A PUSH1 0x5 DUP5 ADD PUSH2 0x52AE JUMP JUMPDEST SWAP2 PUSH1 0x6 DUP5 ADD SLOAD PUSH1 0xFF AND SWAP3 PUSH1 0x7 DUP6 ADD SLOAD SWAP2 PUSH1 0x8 DUP7 ADD SLOAD PUSH1 0xFF AND SWAP4 PUSH1 0x9 DUP8 ADD PUSH2 0x4390 SWAP1 PUSH2 0x52AE JUMP JUMPDEST SWAP7 PUSH1 0xA ADD SLOAD SWAP8 PUSH1 0x40 MLOAD SWAP11 DUP12 SWAP11 DUP12 MSTORE PUSH1 0x20 DUP12 ADD MSTORE PUSH1 0x40 DUP11 ADD MSTORE PUSH2 0x160 DUP1 PUSH1 0x60 DUP12 ADD MSTORE DUP10 ADD PUSH2 0x43BC SWAP2 PUSH2 0x5150 JUMP JUMPDEST DUP9 DUP2 SUB PUSH1 0x80 DUP11 ADD MSTORE PUSH2 0x43CD SWAP2 PUSH2 0x5150 JUMP JUMPDEST DUP8 DUP2 SUB PUSH1 0xA0 DUP10 ADD MSTORE PUSH2 0x43DE SWAP2 PUSH2 0x5150 JUMP JUMPDEST SWAP3 PUSH2 0x43E8 DUP2 PUSH2 0x5190 JUMP JUMPDEST PUSH1 0xC0 DUP8 ADD MSTORE PUSH1 0xE0 DUP7 ADD MSTORE ISZERO ISZERO PUSH2 0x100 DUP6 ADD MSTORE DUP4 DUP2 SUB PUSH2 0x120 DUP6 ADD MSTORE PUSH2 0x440C SWAP2 PUSH2 0x5150 JUMP JUMPDEST SWAP1 PUSH2 0x140 DUP4 ADD MSTORE SUB SWAP1 RETURN JUMPDEST CALLVALUE PUSH2 0xC63 JUMPI PUSH2 0x4425 CALLDATASIZE PUSH2 0x540E JUMP JUMPDEST SWAP1 PUSH1 0x0 MSTORE PUSH1 0x9 PUSH1 0x20 MSTORE PUSH1 0x40 PUSH1 0x0 KECCAK256 DUP1 SLOAD DUP3 LT ISZERO PUSH2 0xC63 JUMPI PUSH1 0x20 SWAP2 PUSH2 0x3019 SWAP2 PUSH2 0x5424 JUMP JUMPDEST CALLVALUE PUSH2 0xC63 JUMPI PUSH1 0x20 CALLDATASIZE PUSH1 0x3 NOT ADD SLT PUSH2 0xC63 JUMPI PUSH1 0x4 CALLDATALOAD PUSH1 0x0 MSTORE PUSH1 0x8 PUSH1 0x20 MSTORE PUSH1 0x40 PUSH1 0x0 KECCAK256 DUP1 SLOAD PUSH1 0x1 DUP3 ADD SLOAD SWAP2 PUSH1 0x2 DUP2 ADD SLOAD PUSH2 0x44C6 PUSH1 0x3 DUP4 ADD SLOAD PUSH2 0x448A PUSH1 0x4 DUP6 ADD PUSH2 0x52AE JUMP JUMPDEST SWAP1 PUSH1 0x6 PUSH1 0x1 DUP1 PUSH1 0xA0 SHL SUB PUSH1 0x5 DUP8 ADD SLOAD AND SWAP6 ADD SLOAD SWAP4 PUSH1 0x40 MLOAD SWAP8 DUP9 SWAP8 DUP9 MSTORE PUSH1 0x20 DUP9 ADD MSTORE PUSH1 0x40 DUP8 ADD MSTORE PUSH1 0x60 DUP7 ADD MSTORE PUSH1 0xE0 PUSH1 0x80 DUP7 ADD MSTORE PUSH1 0xE0 DUP6 ADD SWAP1 PUSH2 0x5150 JUMP JUMPDEST SWAP2 PUSH1 0xA0 DUP5 ADD MSTORE PUSH1 0xC0 DUP4 ADD MSTORE SUB SWAP1 RETURN JUMPDEST CALLVALUE PUSH2 0xC63 JUMPI PUSH1 0x0 CALLDATASIZE PUSH1 0x3 NOT ADD SLT PUSH2 0xC63 JUMPI PUSH1 0x20 PUSH1 0x0 SLOAD PUSH1 0x40 MLOAD SWAP1 DUP2 MSTORE RETURN JUMPDEST CALLVALUE PUSH2 0xC63 JUMPI PUSH1 0x20 CALLDATASIZE PUSH1 0x3 NOT ADD SLT PUSH2 0xC63 JUMPI PUSH1 0x4 CALLDATALOAD DUP1 PUSH1 0x0 MSTORE PUSH1 0x5 PUSH1 0x20 MSTORE PUSH2 0x4524 PUSH1 0xFF PUSH1 0x11 PUSH1 0x40 PUSH1 0x0 KECCAK256 ADD SLOAD AND PUSH2 0x5510 JUMP JUMPDEST PUSH1 0x0 MSTORE PUSH1 0x5 PUSH1 0x20 MSTORE PUSH1 0x40 PUSH1 0x0 KECCAK256 PUSH2 0x453D PUSH1 0x12 DUP3 ADD PUSH2 0x52AE JUMP JUMPDEST PUSH2 0x107C PUSH2 0x454C PUSH1 0x13 DUP5 ADD PUSH2 0x52AE JUMP JUMPDEST SWAP3 PUSH2 0x4559 PUSH1 0x14 DUP3 ADD PUSH2 0x52AE JUMP JUMPDEST SWAP1 PUSH2 0x2B1A PUSH1 0x16 PUSH2 0x2B13 PUSH1 0x15 DUP5 ADD PUSH2 0x52AE JUMP JUMPDEST CALLVALUE PUSH2 0xC63 JUMPI PUSH1 0x0 CALLDATASIZE PUSH1 0x3 NOT ADD SLT PUSH2 0xC63 JUMPI PUSH1 0x20 PUSH1 0x3 SLOAD PUSH1 0x40 MLOAD SWAP1 DUP2 MSTORE RETURN JUMPDEST CALLVALUE PUSH2 0xC63 JUMPI PUSH1 0x20 CALLDATASIZE PUSH1 0x3 NOT ADD SLT PUSH2 0xC63 JUMPI PUSH1 0x1 PUSH1 0x1 PUSH1 0x40 SHL SUB PUSH1 0x4 CALLDATALOAD DUP2 DUP2 GT PUSH2 0xC63 JUMPI PUSH2 0x45BA SWAP1 CALLDATASIZE SWAP1 PUSH1 0x4 ADD PUSH2 0x5385 JUMP JUMPDEST CALLER PUSH1 0x0 MSTORE PUSH1 0xF PUSH1 0x20 MSTORE PUSH1 0xFF PUSH1 0x3 PUSH1 0x40 PUSH1 0x0 KECCAK256 ADD SLOAD AND PUSH2 0x47DD JUMPI PUSH2 0x45DE PUSH1 0x4 SLOAD PUSH2 0x548D JUMP JUMPDEST DUP1 PUSH1 0x4 SSTORE PUSH1 0x40 MLOAD PUSH2 0x45EE DUP2 PUSH2 0x5220 JUMP JUMPDEST CALLER DUP2 MSTORE PUSH1 0x20 DUP2 ADD SWAP2 DUP3 MSTORE PUSH1 0x40 DUP2 ADD DUP4 DUP2 MSTORE PUSH1 0x1 PUSH1 0x60 DUP4 ADD MSTORE TIMESTAMP PUSH1 0x80 DUP4 ADD MSTORE PUSH1 0x0 PUSH1 0xA0 DUP4 ADD MSTORE PUSH1 0x0 PUSH1 0xC0 DUP4 ADD MSTORE CALLER PUSH1 0x0 MSTORE PUSH1 0xF PUSH1 0x20 MSTORE PUSH1 0x40 PUSH1 0x0 KECCAK256 SWAP3 PUSH1 0x1 DUP1 PUSH1 0xA0 SHL SUB DUP4 MLOAD AND PUSH1 0x1 PUSH1 0x1 PUSH1 0x60 SHL SUB PUSH1 0xA0 SHL DUP6 SLOAD AND OR DUP5 SSTORE MLOAD PUSH1 0x1 DUP5 ADD SSTORE MLOAD SWAP4 DUP5 MLOAD SWAP1 DUP2 GT PUSH2 0x8EC JUMPI PUSH1 0x20 SWAP5 PUSH2 0x4672 DUP3 PUSH2 0x4669 PUSH1 0x2 DUP8 ADD SLOAD PUSH2 0x51CA JUMP JUMPDEST PUSH1 0x2 DUP8 ADD PUSH2 0x54B3 JUMP JUMPDEST DUP6 SWAP1 PUSH1 0x1F DUP4 GT PUSH1 0x1 EQ PUSH2 0x476A JUMPI SWAP2 DUP1 PUSH1 0x6 SWAP5 SWAP3 PUSH1 0xC0 SWAP5 PUSH1 0x0 SWAP3 PUSH2 0x475F JUMPI JUMPDEST POP POP DUP2 PUSH1 0x1 SHL SWAP2 PUSH1 0x0 NOT SWAP1 PUSH1 0x3 SHL SHR NOT AND OR PUSH1 0x2 DUP6 ADD SSTORE JUMPDEST PUSH2 0x46C7 PUSH1 0x60 DUP3 ADD MLOAD ISZERO ISZERO PUSH1 0x3 DUP7 ADD SWAP1 PUSH1 0xFF DUP1 NOT DUP4 SLOAD AND SWAP2 ISZERO ISZERO AND OR SWAP1 SSTORE JUMP JUMPDEST PUSH1 0x80 DUP2 ADD MLOAD PUSH1 0x4 DUP6 ADD SSTORE PUSH1 0xA0 DUP2 ADD MLOAD PUSH1 0x5 DUP6 ADD SSTORE ADD MLOAD SWAP2 ADD SSTORE PUSH1 0x4 SLOAD PUSH1 0x0 MSTORE PUSH1 0x10 DUP3 MSTORE PUSH1 0x40 PUSH1 0x0 KECCAK256 CALLER PUSH1 0x1 PUSH1 0x1 PUSH1 0x60 SHL SUB PUSH1 0xA0 SHL DUP3 SLOAD AND OR SWAP1 SSTORE CALLER PUSH1 0x0 MSTORE PUSH1 0xD DUP3 MSTORE PUSH1 0x40 PUSH1 0x0 KECCAK256 PUSH1 0x1 PUSH1 0xFF NOT DUP3 SLOAD AND OR SWAP1 SSTORE PUSH1 0x4 SLOAD DUP1 SWAP2 PUSH32 0x38E597851BD96C9213DFE7D6D1DCAC8F1B3B83B9B547964061524A14D8EA05C3 PUSH1 0x40 MLOAD DUP6 DUP2 MSTORE DUP1 PUSH2 0x4754 CALLER SWAP5 DUP9 DUP4 ADD SWAP1 PUSH2 0x5150 JUMP JUMPDEST SUB SWAP1 LOG3 PUSH1 0x40 MLOAD SWAP1 DUP2 MSTORE RETURN JUMPDEST ADD MLOAD SWAP1 POP DUP9 DUP1 PUSH2 0x4690 JUMP JUMPDEST SWAP1 PUSH1 0x2 DUP6 ADD PUSH1 0x0 MSTORE DUP7 PUSH1 0x0 KECCAK256 SWAP2 PUSH1 0x0 JUMPDEST PUSH1 0x1F NOT DUP6 AND DUP2 LT PUSH2 0x47C6 JUMPI POP SWAP3 PUSH1 0x6 SWAP5 SWAP3 PUSH1 0x1 SWAP3 PUSH1 0xC0 SWAP6 DUP4 PUSH1 0x1F NOT DUP2 AND LT PUSH2 0x47AD JUMPI JUMPDEST POP POP POP DUP2 SHL ADD PUSH1 0x2 DUP6 ADD SSTORE PUSH2 0x46A8 JUMP JUMPDEST ADD MLOAD PUSH1 0x0 NOT PUSH1 0xF8 DUP5 PUSH1 0x3 SHL AND SHR NOT AND SWAP1 SSTORE DUP9 DUP1 DUP1 PUSH2 0x479D JUMP JUMPDEST SWAP2 SWAP3 DUP9 PUSH1 0x1 DUP2 SWAP3 DUP7 DUP6 ADD MLOAD DUP2 SSTORE ADD SWAP5 ADD SWAP3 ADD PUSH2 0x477A JUMP JUMPDEST PUSH1 0x40 MLOAD PUSH3 0x461BCD PUSH1 0xE5 SHL DUP2 MSTORE PUSH1 0x20 PUSH1 0x4 DUP3 ADD MSTORE PUSH1 0x1D PUSH1 0x24 DUP3 ADD MSTORE PUSH32 0x436F6E74726163746F7220616C72656164792072656769737465726564000000 PUSH1 0x44 DUP3 ADD MSTORE PUSH1 0x64 SWAP1 REVERT JUMPDEST CALLVALUE PUSH2 0xC63 JUMPI PUSH1 0x20 CALLDATASIZE PUSH1 0x3 NOT ADD SLT PUSH2 0xC63 JUMPI PUSH1 0x1 PUSH1 0x1 PUSH1 0xA0 SHL SUB PUSH2 0x4843 PUSH2 0x5354 JUMP JUMPDEST AND PUSH1 0x0 MSTORE PUSH1 0xD PUSH1 0x20 MSTORE PUSH1 0x20 PUSH1 0xFF PUSH1 0x40 PUSH1 0x0 KECCAK256 SLOAD AND PUSH1 0x40 MLOAD SWAP1 ISZERO ISZERO DUP2 MSTORE RETURN JUMPDEST CALLVALUE PUSH2 0xC63 JUMPI PUSH1 0x20 CALLDATASIZE PUSH1 0x3 NOT ADD SLT PUSH2 0xC63 JUMPI PUSH1 0x4 CALLDATALOAD DUP1 PUSH1 0x0 MSTORE PUSH1 0x7 PUSH1 0x20 MSTORE PUSH2 0x4892 PUSH1 0xFF PUSH1 0x13 PUSH1 0x40 PUSH1 0x0 KECCAK256 ADD SLOAD AND PUSH2 0x56D2 JUMP JUMPDEST PUSH1 0x0 MSTORE PUSH1 0x7 PUSH1 0x20 MSTORE PUSH2 0x120 PUSH1 0x40 PUSH1 0x0 KECCAK256 DUP1 SLOAD SWAP1 PUSH1 0x1 DUP2 ADD SLOAD SWAP1 PUSH1 0x2 DUP2 ADD SLOAD PUSH1 0xFF PUSH1 0x3 DUP4 ADD SLOAD AND PUSH1 0xD DUP4 ADD SLOAD PUSH1 0xE DUP5 ADD SLOAD SWAP2 PUSH1 0xFF PUSH1 0xF DUP7 ADD SLOAD AND SWAP4 PUSH1 0x11 PUSH1 0x10 DUP8 ADD SLOAD SWAP7 ADD SLOAD SWAP7 PUSH1 0x40 MLOAD SWAP9 DUP10 MSTORE PUSH1 0x20 DUP10 ADD MSTORE PUSH1 0x40 DUP9 ADD MSTORE PUSH1 0x60 DUP8 ADD MSTORE PUSH1 0x80 DUP7 ADD MSTORE PUSH1 0xA0 DUP6 ADD MSTORE PUSH2 0x48FF DUP2 PUSH2 0x5190 JUMP JUMPDEST PUSH1 0xC0 DUP5 ADD MSTORE PUSH1 0xE0 DUP4 ADD MSTORE PUSH2 0x100 DUP3 ADD MSTORE RETURN JUMPDEST CALLVALUE PUSH2 0xC63 JUMPI PUSH1 0x0 CALLDATASIZE PUSH1 0x3 NOT ADD SLT PUSH2 0xC63 JUMPI PUSH1 0x20 PUSH1 0x1 SLOAD PUSH1 0x40 MLOAD SWAP1 DUP2 MSTORE RETURN JUMPDEST PUSH1 0x80 CALLDATASIZE PUSH1 0x3 NOT ADD SLT PUSH2 0xC63 JUMPI PUSH1 0x24 CALLDATALOAD PUSH1 0x4 CALLDATALOAD DUP2 ISZERO ISZERO DUP3 SUB PUSH2 0xC63 JUMPI PUSH1 0x44 CALLDATALOAD SWAP2 DUP3 ISZERO ISZERO DUP4 SUB PUSH2 0xC63 JUMPI PUSH1 0x64 CALLDATALOAD SWAP3 DUP4 ISZERO ISZERO DUP5 SUB PUSH2 0xC63 JUMPI DUP3 PUSH1 0x0 MSTORE PUSH1 0x20 SWAP1 PUSH1 0x7 DUP3 MSTORE PUSH1 0x40 PUSH1 0x0 KECCAK256 SWAP3 PUSH1 0x1 DUP5 ADD SLOAD SWAP6 PUSH1 0x40 MLOAD DUP5 DUP2 ADD SWAP1 CALLER PUSH1 0x60 SHL DUP3 MSTORE PUSH1 0x14 DUP2 MSTORE PUSH2 0x4995 DUP2 PUSH2 0x5257 JUMP JUMPDEST MLOAD SWAP1 KECCAK256 SWAP3 DUP8 PUSH1 0x0 MSTORE PUSH2 0x49B5 PUSH1 0x5 SWAP5 DUP6 DUP8 MSTORE PUSH1 0x6 PUSH1 0x40 PUSH1 0x0 KECCAK256 ADD SLOAD EQ PUSH2 0x558F JUMP JUMPDEST DUP3 PUSH2 0x4C01 JUMPI JUMPDEST POP DUP2 PUSH2 0x4BF9 JUMPI JUMPDEST POP ISZERO PUSH2 0x4B2A JUMPI PUSH1 0xF DUP4 ADD SWAP1 PUSH1 0xFF NOT SWAP2 PUSH1 0x2 DUP4 DUP3 SLOAD AND OR SWAP1 SSTORE TIMESTAMP PUSH1 0x11 DUP6 ADD SSTORE PUSH1 0xD DUP5 ADD SLOAD SWAP2 PUSH1 0x2 DUP6 ADD SLOAD PUSH1 0x0 MSTORE PUSH1 0xC DUP5 MSTORE PUSH1 0x3 PUSH1 0x1 DUP1 PUSH1 0xA0 SHL SUB PUSH1 0x40 PUSH1 0x0 KECCAK256 SLOAD AND SWAP6 DUP9 PUSH1 0x0 MSTORE DUP4 DUP7 MSTORE DUP2 PUSH1 0x40 PUSH1 0x0 KECCAK256 ADD PUSH2 0x4A1C DUP7 DUP3 SLOAD PUSH2 0x56C5 JUMP JUMPDEST SWAP1 SSTORE DUP9 PUSH1 0x0 MSTORE DUP4 DUP7 MSTORE PUSH1 0x4 PUSH1 0x40 PUSH1 0x0 KECCAK256 ADD PUSH2 0x4A38 DUP7 DUP3 SLOAD PUSH2 0x56C5 JUMP JUMPDEST SWAP1 SSTORE ADD SWAP2 PUSH1 0x64 PUSH1 0xFF DUP5 SLOAD AND EQ PUSH1 0x0 EQ PUSH2 0x4B0E JUMPI DUP8 PUSH1 0x0 MSTORE DUP5 MSTORE PUSH1 0x3 PUSH1 0x7 PUSH1 0x40 PUSH1 0x0 KECCAK256 ADD SWAP2 DUP3 SLOAD AND OR SWAP1 SSTORE JUMPDEST DUP2 SELFBALANCE LT ISZERO PUSH2 0x4AD3 JUMPI JUMPDEST SWAP1 PUSH1 0xFF DUP4 SWAP3 PUSH32 0xCD3C5E4379009BA79BACD27E7DDA9B2CEAE5FA7D95370F5583F8601FF3BEE5CF SWAP7 PUSH32 0x939DA3B627C123C81FE5AACEBF925163337A0D4F8A03724640618078CAD24894 PUSH1 0x60 SWAP8 SWAP7 PUSH1 0x40 MLOAD DUP7 DUP2 MSTORE LOG2 SLOAD AND SWAP2 PUSH1 0x40 MLOAD SWAP4 DUP5 MSTORE DUP4 ADD MSTORE PUSH1 0x40 DUP3 ADD MSTORE LOG2 STOP JUMPDEST SWAP3 SWAP2 SWAP1 PUSH1 0x0 DUP2 DUP5 DUP2 ISZERO PUSH2 0x4B04 JUMPI JUMPDEST PUSH1 0x0 SWAP3 DUP4 SWAP3 DUP4 SWAP3 DUP4 SWAP3 CALL ISZERO PUSH2 0x4AF8 JUMPI SWAP1 SWAP2 SWAP3 PUSH2 0x4A6C JUMP JUMPDEST PUSH1 0x40 MLOAD RETURNDATASIZE PUSH1 0x0 DUP3 RETURNDATACOPY RETURNDATASIZE SWAP1 REVERT JUMPDEST PUSH2 0x8FC SWAP3 POP PUSH2 0x4AE1 JUMP JUMPDEST DUP8 PUSH1 0x0 MSTORE DUP5 MSTORE PUSH1 0x2 PUSH1 0x7 PUSH1 0x40 PUSH1 0x0 KECCAK256 ADD SWAP2 DUP3 SLOAD AND OR SWAP1 SSTORE PUSH2 0x4A63 JUMP JUMPDEST PUSH32 0x2346E8D925F08BEF41586C0448CB9DB28A92557839FBBE0E1A14656B7E393712 SWAP4 SWAP5 POP PUSH1 0x12 DUP4 PUSH1 0xF PUSH1 0x80 SWAP6 ADD PUSH1 0x3 PUSH1 0xFF NOT DUP3 SLOAD AND OR SWAP1 SSTORE ADD SWAP1 PUSH2 0x4B6E DUP3 SLOAD PUSH2 0x51CA JUMP JUMPDEST PUSH1 0x1F DUP2 GT PUSH2 0x4BD5 JUMPI JUMPDEST POP POP PUSH1 0x51 DUP2 SSTORE PUSH1 0x0 MSTORE PUSH1 0x1 DUP2 PUSH1 0x0 KECCAK256 PUSH32 0x5175616C6974792F4750532F50726F677265737320766572696669636174696F SWAP1 DUP2 DUP2 SSTORE PUSH8 0x1B8819985A5B1959 PUSH1 0xC2 SHL SWAP3 DUP4 SWAP2 ADD SSTORE PUSH1 0x28 PUSH1 0x40 MLOAD SWAP4 DUP1 DUP6 MSTORE DUP5 ADD MSTORE PUSH1 0x40 DUP4 ADD MSTORE PUSH1 0x60 DUP3 ADD MSTORE LOG2 STOP JUMPDEST PUSH1 0x2 PUSH2 0x4BF2 SWAP3 DUP5 PUSH1 0x0 MSTORE PUSH1 0x1F DUP7 PUSH1 0x0 KECCAK256 SWAP4 ADD SWAP1 SHR DUP3 ADD SWAP2 ADD PUSH2 0x549C JUMP JUMPDEST DUP6 DUP1 PUSH2 0x4B77 JUMP JUMPDEST SWAP1 POP DUP7 PUSH2 0x49C2 JUMP JUMPDEST SWAP2 POP DUP8 PUSH2 0x49BB JUMP JUMPDEST CALLVALUE PUSH2 0xC63 JUMPI PUSH1 0x20 CALLDATASIZE PUSH1 0x3 NOT ADD SLT PUSH2 0xC63 JUMPI PUSH1 0x4 CALLDATALOAD PUSH1 0x0 MSTORE PUSH1 0xC PUSH1 0x20 MSTORE PUSH1 0x20 PUSH1 0x1 DUP1 PUSH1 0xA0 SHL SUB PUSH1 0x40 PUSH1 0x0 KECCAK256 SLOAD AND PUSH1 0x40 MLOAD SWAP1 DUP2 MSTORE RETURN JUMPDEST CALLVALUE PUSH2 0xC63 JUMPI PUSH1 0x20 PUSH2 0x4C56 PUSH2 0x4C50 CALLDATASIZE PUSH2 0x51B0 JUMP JUMPDEST SWAP2 PUSH2 0x575F JUMP JUMPDEST PUSH1 0x40 MLOAD SWAP1 DUP2 MSTORE RETURN JUMPDEST CALLVALUE PUSH2 0xC63 JUMPI PUSH1 0x20 CALLDATASIZE PUSH1 0x3 NOT ADD SLT PUSH2 0xC63 JUMPI PUSH1 0x4 CALLDATALOAD PUSH1 0x0 MSTORE PUSH1 0x5 PUSH1 0x20 MSTORE PUSH1 0x40 PUSH1 0x0 KECCAK256 DUP1 PUSH2 0x100 MSTORE DUP1 SLOAD SWAP1 PUSH1 0x1 ADD PUSH2 0x4C93 SWAP1 PUSH2 0x52AE JUMP JUMPDEST PUSH2 0x120 MSTORE PUSH2 0x100 MLOAD SWAP1 PUSH1 0x2 DUP3 ADD SLOAD SWAP1 PUSH1 0x3 DUP4 ADD SLOAD PUSH2 0x280 MSTORE PUSH1 0x4 DUP4 ADD SLOAD PUSH2 0x2C0 MSTORE PUSH1 0x1 PUSH1 0xA0 SHL PUSH1 0x1 SWAP1 SUB PUSH1 0x5 DUP5 ADD SLOAD AND SWAP3 PUSH1 0x6 DUP2 ADD SLOAD SWAP3 PUSH1 0x7 DUP3 ADD SLOAD PUSH1 0xFF AND SWAP2 PUSH1 0x8 ADD PUSH2 0x4CDF SWAP1 PUSH2 0x52AE JUMP JUMPDEST PUSH2 0x100 MLOAD PUSH1 0x9 ADD PUSH2 0x4CEF SWAP1 PUSH2 0x52AE JUMP JUMPDEST PUSH2 0x100 MLOAD PUSH1 0xA ADD PUSH2 0x4CFF SWAP1 PUSH2 0x52AE JUMP JUMPDEST SWAP2 PUSH2 0x100 MLOAD PUSH1 0xB ADD PUSH2 0x4D10 SWAP1 PUSH2 0x52AE JUMP JUMPDEST SWAP4 PUSH2 0x100 MLOAD PUSH1 0xC ADD PUSH2 0x4D21 SWAP1 PUSH2 0x52AE JUMP JUMPDEST SWAP6 PUSH2 0x100 MLOAD SWAP9 PUSH1 0xD DUP11 ADD SLOAD PUSH1 0xA0 MSTORE PUSH1 0xE DUP11 ADD SLOAD SWAP11 PUSH1 0xF DUP12 ADD SLOAD SWAP10 PUSH1 0x10 DUP13 ADD SLOAD SWAP12 PUSH1 0x11 DUP2 ADD SLOAD PUSH1 0xFF AND PUSH2 0x260 MSTORE PUSH1 0x12 ADD PUSH2 0x4D59 SWAP1 PUSH2 0x52AE JUMP JUMPDEST PUSH2 0x180 MSTORE PUSH2 0x100 MLOAD PUSH1 0x13 ADD PUSH2 0x4D6D SWAP1 PUSH2 0x52AE JUMP JUMPDEST PUSH2 0x1E0 MSTORE PUSH2 0x100 MLOAD PUSH1 0x14 ADD PUSH2 0x4D81 SWAP1 PUSH2 0x52AE JUMP JUMPDEST PUSH2 0x220 MSTORE PUSH2 0x100 MLOAD PUSH1 0x15 ADD PUSH2 0x4D95 SWAP1 PUSH2 0x52AE JUMP JUMPDEST PUSH2 0x160 MSTORE PUSH2 0x100 MLOAD PUSH1 0x16 ADD PUSH2 0x4DA9 SWAP1 PUSH2 0x52AE JUMP JUMPDEST PUSH2 0x140 MSTORE PUSH1 0x40 MLOAD DUP1 PUSH1 0xC0 MSTORE MSTORE PUSH2 0x2E0 DUP1 PUSH1 0xC0 MLOAD PUSH1 0x20 ADD MSTORE PUSH1 0xC0 MLOAD ADD PUSH2 0x120 MLOAD SWAP1 PUSH2 0x4DD2 SWAP2 PUSH2 0x5150 JUMP JUMPDEST SWAP4 PUSH1 0xC0 MLOAD PUSH1 0x40 ADD MSTORE PUSH2 0x280 MLOAD PUSH1 0xC0 MLOAD PUSH1 0x60 ADD MSTORE PUSH2 0x2C0 MLOAD PUSH1 0xC0 MLOAD PUSH1 0x80 ADD MSTORE PUSH1 0xC0 MLOAD PUSH1 0xA0 ADD MSTORE PUSH1 0xC0 MLOAD PUSH1 0xC0 ADD MSTORE PUSH2 0x4E07 DUP2 PUSH2 0x5190 JUMP JUMPDEST PUSH1 0xC0 MLOAD PUSH1 0xE0 ADD MSTORE PUSH1 0xC0 MLOAD DUP1 DUP3 SUB SWAP1 PUSH2 0x100 ADD MSTORE PUSH2 0x4E23 SWAP2 PUSH2 0x5150 JUMP JUMPDEST PUSH1 0xC0 MLOAD DUP1 DUP3 SUB SWAP1 PUSH2 0x120 ADD MSTORE PUSH2 0x4E38 SWAP2 PUSH2 0x5150 JUMP JUMPDEST PUSH1 0xC0 MLOAD DUP1 DUP3 SUB SWAP1 PUSH2 0x140 ADD MSTORE PUSH2 0x4E4D SWAP2 PUSH2 0x5150 JUMP JUMPDEST PUSH1 0xC0 MLOAD DUP1 DUP3 SUB SWAP1 PUSH2 0x160 ADD MSTORE PUSH2 0x4E62 SWAP2 PUSH2 0x5150 JUMP JUMPDEST PUSH1 0xC0 MLOAD DUP1 DUP3 SUB SWAP1 PUSH2 0x180 ADD MSTORE PUSH2 0x4E77 SWAP2 PUSH2 0x5150 JUMP JUMPDEST SWAP3 PUSH1 0xA0 MLOAD PUSH1 0xC0 MLOAD PUSH2 0x1A0 ADD MSTORE PUSH1 0xC0 MLOAD PUSH2 0x1C0 ADD MSTORE PUSH1 0xC0 MLOAD PUSH2 0x1E0 ADD MSTORE PUSH1 0xC0 MLOAD PUSH2 0x200 ADD MSTORE PUSH2 0x260 MLOAD ISZERO ISZERO PUSH1 0xC0 MLOAD PUSH2 0x220 ADD MSTORE PUSH1 0xC0 MLOAD DUP1 DUP3 SUB SWAP1 PUSH2 0x240 ADD MSTORE PUSH2 0x180 MLOAD SWAP1 PUSH2 0x4EC3 SWAP2 PUSH2 0x5150 JUMP JUMPDEST PUSH1 0xC0 MLOAD DUP1 DUP3 SUB SWAP1 PUSH2 0x260 ADD MSTORE PUSH2 0x1E0 MLOAD SWAP1 PUSH2 0x4EDD SWAP2 PUSH2 0x5150 JUMP JUMPDEST PUSH1 0xC0 MLOAD DUP1 DUP3 SUB SWAP1 PUSH2 0x280 ADD MSTORE PUSH2 0x220 MLOAD SWAP1 PUSH2 0x4EF7 SWAP2 PUSH2 0x5150 JUMP JUMPDEST PUSH1 0xC0 MLOAD DUP1 DUP3 SUB SWAP1 PUSH2 0x2A0 ADD MSTORE PUSH2 0x160 MLOAD SWAP1 PUSH2 0x4F11 SWAP2 PUSH2 0x5150 JUMP JUMPDEST PUSH1 0xC0 MLOAD DUP1 DUP3 SUB SWAP1 PUSH2 0x2C0 ADD MSTORE PUSH1 0xC0 MLOAD SWAP1 PUSH2 0x140 MLOAD SWAP1 PUSH2 0x4F2F SWAP2 PUSH2 0x5150 JUMP JUMPDEST SUB PUSH1 0xC0 MLOAD RETURN JUMPDEST CALLVALUE PUSH2 0xC63 JUMPI PUSH1 0x20 PUSH2 0x4F4E PUSH2 0x4F48 CALLDATASIZE PUSH2 0x51B0 JUMP JUMPDEST SWAP2 PUSH2 0x571E JUMP JUMPDEST PUSH1 0x40 MLOAD SWAP1 ISZERO ISZERO DUP2 MSTORE RETURN JUMPDEST CALLVALUE PUSH2 0xC63 JUMPI PUSH1 0x0 CALLDATASIZE PUSH1 0x3 NOT ADD SLT PUSH2 0xC63 JUMPI PUSH1 0x20 PUSH1 0x2 SLOAD PUSH1 0x40 MLOAD SWAP1 DUP2 MSTORE RETURN JUMPDEST CALLVALUE PUSH2 0xC63 JUMPI PUSH1 0x20 CALLDATASIZE PUSH1 0x3 NOT ADD SLT PUSH2 0xC63 JUMPI PUSH2 0x140 DUP2 PUSH2 0x4F96 PUSH1 0x0 SWAP4 PUSH2 0x5204 JUMP JUMPDEST DUP3 DUP2 MSTORE DUP3 PUSH1 0x20 DUP3 ADD MSTORE DUP3 PUSH1 0x40 DUP3 ADD MSTORE PUSH1 0x60 DUP1 DUP3 ADD MSTORE PUSH1 0x60 PUSH1 0x80 DUP3 ADD MSTORE PUSH1 0x60 PUSH1 0xA0 DUP3 ADD MSTORE DUP3 PUSH1 0xC0 DUP3 ADD MSTORE DUP3 PUSH1 0xE0 DUP3 ADD MSTORE DUP3 PUSH2 0x100 DUP3 ADD MSTORE PUSH1 0x60 PUSH2 0x120 DUP3 ADD MSTORE ADD MSTORE PUSH1 0x4 CALLDATALOAD PUSH1 0x0 MSTORE PUSH1 0x6 PUSH1 0x20 MSTORE PUSH1 0x40 PUSH1 0x0 KECCAK256 PUSH1 0xA PUSH1 0x40 MLOAD SWAP2 PUSH2 0x4FF5 DUP4 PUSH2 0x5204 JUMP JUMPDEST DUP1 SLOAD DUP4 MSTORE PUSH1 0x1 DUP2 ADD SLOAD PUSH1 0x20 DUP5 ADD MSTORE PUSH1 0x2 DUP2 ADD SLOAD PUSH1 0x40 DUP5 ADD MSTORE PUSH2 0x5019 PUSH1 0x3 DUP3 ADD PUSH2 0x52AE JUMP JUMPDEST PUSH1 0x60 DUP5 ADD MSTORE PUSH2 0x502A PUSH1 0x4 DUP3 ADD PUSH2 0x52AE JUMP JUMPDEST PUSH1 0x80 DUP5 ADD MSTORE PUSH2 0x503B PUSH1 0x5 DUP3 ADD PUSH2 0x52AE JUMP JUMPDEST PUSH1 0xA0 DUP5 ADD MSTORE PUSH1 0xFF PUSH1 0x6 DUP3 ADD SLOAD AND PUSH2 0x5051 DUP2 PUSH2 0x5190 JUMP JUMPDEST PUSH1 0xC0 DUP5 ADD MSTORE PUSH1 0x7 DUP2 ADD SLOAD PUSH1 0xE0 DUP5 ADD MSTORE PUSH1 0xFF PUSH1 0x8 DUP3 ADD SLOAD AND ISZERO ISZERO PUSH2 0x100 DUP5 ADD MSTORE PUSH2 0x507C PUSH1 0x9 DUP3 ADD PUSH2 0x52AE JUMP JUMPDEST PUSH2 0x120 DUP5 ADD MSTORE ADD SLOAD PUSH2 0x140 DUP3 ADD MSTORE PUSH1 0x40 MLOAD DUP1 SWAP2 PUSH1 0x20 DUP3 MSTORE DUP1 MLOAD PUSH1 0x20 DUP4 ADD MSTORE PUSH1 0x20 DUP2 ADD MLOAD PUSH1 0x40 DUP4 ADD MSTORE PUSH1 0x40 DUP2 ADD MLOAD PUSH1 0x60 DUP4 ADD MSTORE PUSH1 0x60 DUP2 ADD MLOAD PUSH2 0x140 PUSH2 0x5145 PUSH2 0x50D1 PUSH2 0x160 SWAP4 DUP5 PUSH1 0x80 DUP9 ADD MSTORE PUSH2 0x180 DUP8 ADD SWAP1 PUSH2 0x5150 JUMP JUMPDEST PUSH2 0x5104 PUSH2 0x50F0 PUSH1 0x80 DUP8 ADD MLOAD SWAP3 PUSH1 0x1F NOT SWAP4 DUP5 DUP11 DUP4 SUB ADD PUSH1 0xA0 DUP12 ADD MSTORE PUSH2 0x5150 JUMP JUMPDEST PUSH1 0xA0 DUP8 ADD MLOAD DUP4 DUP10 DUP4 SUB ADD PUSH1 0xC0 DUP11 ADD MSTORE PUSH2 0x5150 JUMP JUMPDEST SWAP1 PUSH1 0xC0 DUP7 ADD MLOAD PUSH2 0x5113 DUP2 PUSH2 0x5190 JUMP JUMPDEST PUSH1 0xE0 DUP9 ADD MSTORE PUSH1 0xE0 DUP7 ADD MLOAD PUSH2 0x100 DUP9 ADD MSTORE PUSH2 0x100 DUP7 ADD MLOAD ISZERO ISZERO PUSH2 0x120 DUP9 ADD MSTORE PUSH2 0x120 DUP7 ADD MLOAD SWAP1 DUP8 DUP4 SUB ADD DUP5 DUP9 ADD MSTORE PUSH2 0x5150 JUMP JUMPDEST SWAP3 ADD MLOAD SWAP1 DUP4 ADD MSTORE SUB SWAP1 RETURN JUMPDEST SWAP2 SWAP1 DUP3 MLOAD SWAP3 DUP4 DUP3 MSTORE PUSH1 0x0 JUMPDEST DUP5 DUP2 LT PUSH2 0x517C JUMPI POP POP DUP3 PUSH1 0x0 PUSH1 0x20 DUP1 SWAP5 SWAP6 DUP5 ADD ADD MSTORE PUSH1 0x1F DUP1 NOT SWAP2 ADD AND ADD ADD SWAP1 JUMP JUMPDEST PUSH1 0x20 DUP2 DUP4 ADD DUP2 ADD MLOAD DUP5 DUP4 ADD DUP3 ADD MSTORE ADD PUSH2 0x515B JUMP JUMPDEST PUSH1 0x4 GT ISZERO PUSH2 0x519A JUMPI JUMP JUMPDEST PUSH4 0x4E487B71 PUSH1 0xE0 SHL PUSH1 0x0 MSTORE PUSH1 0x21 PUSH1 0x4 MSTORE PUSH1 0x24 PUSH1 0x0 REVERT JUMPDEST PUSH1 0x60 SWAP1 PUSH1 0x3 NOT ADD SLT PUSH2 0xC63 JUMPI PUSH1 0x4 CALLDATALOAD SWAP1 PUSH1 0x24 CALLDATALOAD SWAP1 PUSH1 0x44 CALLDATALOAD SWAP1 JUMP JUMPDEST SWAP1 PUSH1 0x1 DUP3 DUP2 SHR SWAP3 AND DUP1 ISZERO PUSH2 0x51FA JUMPI JUMPDEST PUSH1 0x20 DUP4 LT EQ PUSH2 0x51E4 JUMPI JUMP JUMPDEST PUSH4 0x4E487B71 PUSH1 0xE0 SHL PUSH1 0x0 MSTORE PUSH1 0x22 PUSH1 0x4 MSTORE PUSH1 0x24 PUSH1 0x0 REVERT JUMPDEST SWAP2 PUSH1 0x7F AND SWAP2 PUSH2 0x51D9 JUMP JUMPDEST PUSH2 0x160 DUP2 ADD SWAP1 DUP2 LT PUSH1 0x1 PUSH1 0x1 PUSH1 0x40 SHL SUB DUP3 GT OR PUSH2 0x8EC JUMPI PUSH1 0x40 MSTORE JUMP JUMPDEST PUSH1 0xE0 DUP2 ADD SWAP1 DUP2 LT PUSH1 0x1 PUSH1 0x1 PUSH1 0x40 SHL SUB DUP3 GT OR PUSH2 0x8EC JUMPI PUSH1 0x40 MSTORE JUMP JUMPDEST PUSH2 0x2E0 DUP2 ADD SWAP1 DUP2 LT PUSH1 0x1 PUSH1 0x1 PUSH1 0x40 SHL SUB DUP3 GT OR PUSH2 0x8EC JUMPI PUSH1 0x40 MSTORE JUMP JUMPDEST PUSH1 0x40 DUP2 ADD SWAP1 DUP2 LT PUSH1 0x1 PUSH1 0x1 PUSH1 0x40 SHL SUB DUP3 GT OR PUSH2 0x8EC JUMPI PUSH1 0x40 MSTORE JUMP JUMPDEST PUSH1 0x20 DUP2 ADD SWAP1 DUP2 LT PUSH1 0x1 PUSH1 0x1 PUSH1 0x40 SHL SUB DUP3 GT OR PUSH2 0x8EC JUMPI PUSH1 0x40 MSTORE JUMP JUMPDEST SWAP1 PUSH1 0x1F DUP1 NOT SWAP2 ADD AND DUP2 ADD SWAP1 DUP2 LT PUSH1 0x1 PUSH1 0x1 PUSH1 0x40 SHL SUB DUP3 GT OR PUSH2 0x8EC JUMPI PUSH1 0x40 MSTORE JUMP JUMPDEST SWAP1 PUSH1 0x40 MLOAD SWAP2 DUP3 PUSH1 0x0 DUP3 SLOAD SWAP3 PUSH2 0x52C2 DUP5 PUSH2 0x51CA JUMP JUMPDEST SWAP1 DUP2 DUP5 MSTORE PUSH1 0x1 SWAP5 DUP6 DUP2 AND SWAP1 DUP2 PUSH1 0x0 EQ PUSH2 0x5331 JUMPI POP PUSH1 0x1 EQ PUSH2 0x52EE JUMPI JUMPDEST POP POP PUSH2 0x52EC SWAP3 POP SUB DUP4 PUSH2 0x528D JUMP JUMPDEST JUMP JUMPDEST SWAP1 SWAP4 SWAP2 POP PUSH1 0x0 MSTORE PUSH1 0x20 SWAP1 DUP2 PUSH1 0x0 KECCAK256 SWAP4 PUSH1 0x0 SWAP2 JUMPDEST DUP2 DUP4 LT PUSH2 0x5319 JUMPI POP POP PUSH2 0x52EC SWAP4 POP DUP3 ADD ADD CODESIZE DUP1 PUSH2 0x52DE JUMP JUMPDEST DUP6 SLOAD DUP9 DUP5 ADD DUP6 ADD MSTORE SWAP5 DUP6 ADD SWAP5 DUP8 SWAP5 POP SWAP2 DUP4 ADD SWAP2 PUSH2 0x5301 JUMP JUMPDEST SWAP2 POP POP PUSH2 0x52EC SWAP5 POP PUSH1 0x20 SWAP3 POP PUSH1 0xFF NOT AND DUP3 DUP5 ADD MSTORE ISZERO ISZERO PUSH1 0x5 SHL DUP3 ADD ADD CODESIZE DUP1 PUSH2 0x52DE JUMP JUMPDEST PUSH1 0x4 CALLDATALOAD SWAP1 PUSH1 0x1 PUSH1 0x1 PUSH1 0xA0 SHL SUB DUP3 AND DUP3 SUB PUSH2 0xC63 JUMPI JUMP JUMPDEST PUSH1 0x1 PUSH1 0x1 PUSH1 0x40 SHL SUB DUP2 GT PUSH2 0x8EC JUMPI PUSH1 0x1F ADD PUSH1 0x1F NOT AND PUSH1 0x20 ADD SWAP1 JUMP JUMPDEST DUP2 PUSH1 0x1F DUP3 ADD SLT ISZERO PUSH2 0xC63 JUMPI DUP1 CALLDATALOAD SWAP1 PUSH2 0x539C DUP3 PUSH2 0x536A JUMP JUMPDEST SWAP3 PUSH2 0x53AA PUSH1 0x40 MLOAD SWAP5 DUP6 PUSH2 0x528D JUMP JUMPDEST DUP3 DUP5 MSTORE PUSH1 0x20 DUP4 DUP4 ADD ADD GT PUSH2 0xC63 JUMPI DUP2 PUSH1 0x0 SWAP3 PUSH1 0x20 DUP1 SWAP4 ADD DUP4 DUP7 ADD CALLDATACOPY DUP4 ADD ADD MSTORE SWAP1 JUMP JUMPDEST SWAP4 SWAP1 PUSH2 0x540B SWAP6 SWAP4 PUSH2 0x30CB PUSH2 0x53FD SWAP5 PUSH2 0x30BD PUSH2 0x53EF SWAP5 PUSH1 0xA0 DUP11 MSTORE PUSH1 0xA0 DUP11 ADD SWAP1 PUSH2 0x5150 JUMP JUMPDEST SWAP1 DUP5 DUP3 SUB PUSH1 0x60 DUP7 ADD MSTORE PUSH2 0x5150 JUMP JUMPDEST SWAP2 PUSH1 0x80 DUP2 DUP5 SUB SWAP2 ADD MSTORE PUSH2 0x5150 JUMP JUMPDEST SWAP1 JUMP JUMPDEST PUSH1 0x40 SWAP1 PUSH1 0x3 NOT ADD SLT PUSH2 0xC63 JUMPI PUSH1 0x4 CALLDATALOAD SWAP1 PUSH1 0x24 CALLDATALOAD SWAP1 JUMP JUMPDEST DUP1 SLOAD DUP3 LT ISZERO PUSH2 0x543C JUMPI PUSH1 0x0 MSTORE PUSH1 0x20 PUSH1 0x0 KECCAK256 ADD SWAP1 PUSH1 0x0 SWAP1 JUMP JUMPDEST PUSH4 0x4E487B71 PUSH1 0xE0 SHL PUSH1 0x0 MSTORE PUSH1 0x32 PUSH1 0x4 MSTORE PUSH1 0x24 PUSH1 0x0 REVERT JUMPDEST PUSH1 0x20 SWAP1 DUP2 PUSH1 0x40 DUP2 DUP4 ADD SWAP3 DUP3 DUP2 MSTORE DUP6 MLOAD DUP1 SWAP5 MSTORE ADD SWAP4 ADD SWAP2 PUSH1 0x0 JUMPDEST DUP3 DUP2 LT PUSH2 0x5479 JUMPI POP POP POP POP SWAP1 JUMP JUMPDEST DUP4 MLOAD DUP6 MSTORE SWAP4 DUP2 ADD SWAP4 SWAP3 DUP2 ADD SWAP3 PUSH1 0x1 ADD PUSH2 0x546B JUMP JUMPDEST PUSH1 0x0 NOT DUP2 EQ PUSH2 0x2E37 JUMPI PUSH1 0x1 ADD SWAP1 JUMP JUMPDEST DUP2 DUP2 LT PUSH2 0x54A7 JUMPI POP POP JUMP JUMPDEST PUSH1 0x0 DUP2 SSTORE PUSH1 0x1 ADD PUSH2 0x549C JUMP JUMPDEST SWAP2 SWAP1 PUSH1 0x1F DUP2 GT PUSH2 0x54C2 JUMPI POP POP POP JUMP JUMPDEST PUSH2 0x52EC SWAP3 PUSH1 0x0 MSTORE PUSH1 0x20 PUSH1 0x0 KECCAK256 SWAP1 PUSH1 0x20 PUSH1 0x1F DUP5 ADD PUSH1 0x5 SHR DUP4 ADD SWAP4 LT PUSH2 0x54EE JUMPI JUMPDEST PUSH1 0x1F ADD PUSH1 0x5 SHR ADD SWAP1 PUSH2 0x549C JUMP JUMPDEST SWAP1 SWAP2 POP DUP2 SWAP1 PUSH2 0x54E1 JUMP JUMPDEST SWAP1 PUSH2 0x5502 DUP2 PUSH2 0x5190 JUMP JUMPDEST PUSH1 0xFF DUP1 NOT DUP4 SLOAD AND SWAP2 AND OR SWAP1 SSTORE JUMP JUMPDEST ISZERO PUSH2 0x5517 JUMPI JUMP JUMPDEST PUSH1 0x40 MLOAD PUSH3 0x461BCD PUSH1 0xE5 SHL DUP2 MSTORE PUSH1 0x20 PUSH1 0x4 DUP3 ADD MSTORE PUSH1 0x16 PUSH1 0x24 DUP3 ADD MSTORE PUSH22 0x141C9BDA9958DD08191BD95CC81B9BDD08195E1A5CDD PUSH1 0x52 SHL PUSH1 0x44 DUP3 ADD MSTORE PUSH1 0x64 SWAP1 REVERT JUMPDEST DUP1 SLOAD PUSH9 0x10000000000000000 DUP2 LT ISZERO PUSH2 0x8EC JUMPI PUSH2 0x5577 SWAP2 PUSH1 0x1 DUP3 ADD DUP2 SSTORE PUSH2 0x5424 JUMP JUMPDEST DUP2 SWAP3 SWAP2 SLOAD SWAP1 PUSH1 0x3 SHL SWAP2 DUP3 SHL SWAP2 PUSH1 0x0 NOT SWAP1 SHL NOT AND OR SWAP1 SSTORE JUMP JUMPDEST ISZERO PUSH2 0x5596 JUMPI JUMP JUMPDEST PUSH1 0x40 MLOAD PUSH3 0x461BCD PUSH1 0xE5 SHL DUP2 MSTORE PUSH1 0x20 PUSH1 0x4 DUP3 ADD MSTORE PUSH1 0x19 PUSH1 0x24 DUP3 ADD MSTORE PUSH32 0x4E6F7420617574686F72697A65642073757065727669736F7200000000000000 PUSH1 0x44 DUP3 ADD MSTORE PUSH1 0x64 SWAP1 REVERT JUMPDEST ISZERO PUSH2 0x55E2 JUMPI JUMP JUMPDEST PUSH1 0x40 MLOAD PUSH3 0x461BCD PUSH1 0xE5 SHL DUP2 MSTORE PUSH1 0x20 PUSH1 0x4 DUP3 ADD MSTORE PUSH1 0x13 PUSH1 0x24 DUP3 ADD MSTORE PUSH19 0x15195B99195C881B9BDD08185C1C1C9BDD9959 PUSH1 0x6A SHL PUSH1 0x44 DUP3 ADD MSTORE PUSH1 0x64 SWAP1 REVERT JUMPDEST ISZERO PUSH2 0x5624 JUMPI JUMP JUMPDEST PUSH1 0x40 MLOAD PUSH3 0x461BCD PUSH1 0xE5 SHL DUP2 MSTORE PUSH1 0x20 PUSH1 0x4 DUP3 ADD MSTORE PUSH1 0x17 PUSH1 0x24 DUP3 ADD MSTORE PUSH32 0x4E6F742061737369676E656420636F6E74726163746F72000000000000000000 PUSH1 0x44 DUP3 ADD MSTORE PUSH1 0x64 SWAP1 REVERT JUMPDEST DUP2 DUP2 MUL SWAP3 SWAP2 DUP2 ISZERO SWAP2 DUP5 DIV EQ OR ISZERO PUSH2 0x2E37 JUMPI JUMP JUMPDEST SWAP1 PUSH1 0x60 SWAP3 PUSH2 0x5699 PUSH2 0x56A7 SWAP3 SWAP8 SWAP7 SWAP6 SWAP8 PUSH1 0x80 DUP6 MSTORE PUSH1 0x80 DUP6 ADD SWAP1 PUSH2 0x5150 JUMP JUMPDEST SWAP1 DUP4 DUP3 SUB PUSH1 0x20 DUP6 ADD MSTORE PUSH2 0x5150 JUMP JUMPDEST SWAP5 PUSH1 0x40 DUP3 ADD MSTORE ADD MSTORE JUMP JUMPDEST DUP1 MLOAD DUP3 LT ISZERO PUSH2 0x543C JUMPI PUSH1 0x20 SWAP2 PUSH1 0x5 SHL ADD ADD SWAP1 JUMP JUMPDEST SWAP2 SWAP1 DUP3 ADD DUP1 SWAP3 GT PUSH2 0x2E37 JUMPI JUMP JUMPDEST ISZERO PUSH2 0x56D9 JUMPI JUMP JUMPDEST PUSH1 0x40 MLOAD PUSH3 0x461BCD PUSH1 0xE5 SHL DUP2 MSTORE PUSH1 0x20 PUSH1 0x4 DUP3 ADD MSTORE PUSH1 0x18 PUSH1 0x24 DUP3 ADD MSTORE PUSH32 0x4D696C6573746F6E6520646F6573206E6F742065786973740000000000000000 PUSH1 0x44 DUP3 ADD MSTORE PUSH1 0x64 SWAP1 REVERT JUMPDEST SWAP2 PUSH2 0x5757 SWAP1 PUSH1 0xF SWAP3 DUP5 PUSH1 0x0 MSTORE PUSH1 0x5 PUSH1 0x20 MSTORE PUSH2 0x5743 PUSH1 0xFF PUSH1 0x11 PUSH1 0x40 PUSH1 0x0 KECCAK256 ADD SLOAD AND PUSH2 0x5510 JUMP JUMPDEST DUP5 PUSH1 0x0 MSTORE PUSH1 0x5 PUSH1 0x20 MSTORE PUSH1 0x40 PUSH1 0x0 KECCAK256 SWAP5 PUSH2 0x575F JUMP JUMPDEST SWAP2 ADD SLOAD LT ISZERO SWAP1 JUMP JUMPDEST SWAP1 PUSH2 0x57A9 PUSH2 0x57AF SWAP2 PUSH1 0x0 SWAP4 DUP1 DUP6 MSTORE PUSH1 0x5 PUSH1 0x20 MSTORE PUSH2 0x5785 PUSH1 0xFF PUSH1 0x11 PUSH1 0x40 DUP9 KECCAK256 ADD SLOAD AND PUSH2 0x5510 JUMP JUMPDEST DUP5 MSTORE PUSH1 0x5 PUSH1 0x20 MSTORE PUSH2 0x57A3 PUSH1 0x40 DUP6 KECCAK256 PUSH1 0xE PUSH1 0xD DUP3 ADD SLOAD SWAP2 ADD SLOAD SWAP3 PUSH2 0x5824 JUMP JUMPDEST SWAP5 PUSH2 0x5824 JUMP JUMPDEST SWAP3 PUSH2 0x583D JUMP JUMPDEST SWAP1 PUSH3 0x1B198 SWAP1 DUP2 DUP4 MUL SWAP3 DUP1 DUP5 DIV DUP4 EQ SWAP1 ISZERO OR ISZERO PUSH2 0x5810 JUMPI PUSH2 0x57D6 PUSH3 0xF4240 DUP1 SWAP5 DIV SWAP5 PUSH2 0x583D JUMP JUMPDEST DUP3 DUP2 MUL SWAP3 DUP2 DUP5 DIV EQ SWAP1 ISZERO OR ISZERO PUSH2 0x5810 JUMPI POP SWAP2 PUSH2 0x5805 PUSH2 0x57FE PUSH2 0x580B SWAP4 PUSH2 0x540B SWAP6 DIV SWAP3 DUP1 PUSH2 0x5669 JUMP JUMPDEST SWAP2 DUP1 PUSH2 0x5669 JUMP JUMPDEST SWAP1 PUSH2 0x56C5 JUMP JUMPDEST PUSH2 0x5859 JUMP JUMPDEST PUSH4 0x4E487B71 PUSH1 0xE0 SHL DUP2 MSTORE PUSH1 0x11 PUSH1 0x4 MSTORE PUSH1 0x24 SWAP1 REVERT JUMPDEST DUP2 DUP2 SUB SWAP3 SWAP2 PUSH1 0x0 SGT DUP1 ISZERO DUP3 DUP6 SGT AND SWAP2 DUP5 SLT AND OR PUSH2 0x2E37 JUMPI JUMP JUMPDEST PUSH1 0x0 DUP1 DUP3 SLT PUSH2 0x584A JUMPI POP SWAP1 JUMP JUMPDEST PUSH1 0x1 PUSH1 0xFF SHL DUP3 EQ PUSH2 0x5810 JUMPI SUB SWAP1 JUMP JUMPDEST DUP1 ISZERO PUSH2 0x58B2 JUMPI PUSH1 0x1 DUP1 DUP3 ADD DUP1 DUP4 GT PUSH2 0x2E37 JUMPI DUP2 SHR SWAP1 DUP3 JUMPDEST DUP4 DUP4 LT PUSH2 0x587D JUMPI POP POP POP SWAP1 JUMP JUMPDEST SWAP2 SWAP3 POP SWAP1 DUP3 DUP1 ISZERO PUSH2 0x589D JUMPI DUP1 PUSH2 0x5894 SWAP2 DUP4 DIV PUSH2 0x56C5 JUMP JUMPDEST DUP3 SHR SWAP2 SWAP1 PUSH2 0x5870 JUMP JUMPDEST PUSH1 0x24 PUSH1 0x0 PUSH4 0x4E487B71 PUSH1 0xE0 SHL DUP2 MSTORE PUSH1 0x12 PUSH1 0x4 MSTORE REVERT JUMPDEST POP PUSH1 0x0 SWAP1 JUMP INVALID DUP2 0x5D DUP6 0x29 0xAF EXP 0xC0 0xE0 SWAP11 0xBF PUSH5 0x2C96996F1 0x5D SWAP8 EQ GASPRICE 0xA8 CALLCODE CALLER SLT 0xEA 0xB8 DUP14 CALLCODE SSTORE 0xE6 PUSH26 0xA1A2646970667358221220DE38A831F5E21672CA98ACE9363728 0xA6 0x5C 0x4D 0xE7 CALLVALUE GASLIMIT 0xC6 0xFC PUSH7 0x8CCED468C05ADD PUSH12 0x64736F6C6343000814003300 "},"methodIdentifiers":{"allocateFunds(uint256)":"c9f8cc67","approveTender(uint256,address,bytes32)":"ee4c80a0","calculateDistance(uint256,int256,int256)":"154956fa","contractorEligible(address)":"264abfcb","contractorIdCounter()":"a47290eb","contractorIdToAddress(uint256)":"b7feec33","contractorPendingQualityReports(address)":"98e421fc","contractorProfiles(address)":"93197796","createProject(string,uint256,bytes32,string,string,string,string,string,int256,int256,string,string,string,string,string)":"e1140111","expenditureCount()":"30daa3a2","expenditures(uint256)":"3af48e32","getContractorByBlockchainId(uint256)":"4a754500","getContractorProfile(address)":"4a77fe19","getMilestone(uint256)":"2442e1cb","getMilestoneDocuments(uint256)":"793d2083","getProject(uint256)":"f0f3f2c8","getProjectDetails(uint256)":"5f8439e3","getProjectExpenditures(uint256)":"716c0bbc","getProjectLocation(uint256)":"9c210608","getProjectMilestoneTasks(uint256)":"360744cb","getProjectMilestones(uint256)":"52766d80","getProjectTenders(uint256)":"9ecb0522","getQualityReportStatus(uint256)":"d744cb57","getTender(uint256)":"0585c25e","getTenderDetails(uint256)":"53ee895d","isContractorEligible(address)":"6ee93613","milestoneCount()":"0681ca55","milestones(uint256)":"e89e4ed6","projectCount()":"36fbad26","projectExpenditures(uint256,uint256)":"868a654b","projectMilestones(uint256,uint256)":"6cb0adba","projectTenders(uint256,uint256)":"460f1b82","projects(uint256)":"107046bd","recordExpenditure(uint256,uint256,uint256,string,address)":"71e9d3cd","registerContractor(string)":"30445b48","releaseFunds(uint256)":"4d68282f","revealedContractors(uint256)":"1878c6bf","submitAnonymousTender(uint256,bytes32,string,string,string)":"b34287cc","submitFinalQualityReport(uint256,string)":"90aadadd","submitMilestone(uint256,uint8,string,string,string,int256,int256,string,bytes32)":"ff7c53e6","submitMilestoneProof(uint256,uint256,string,string,int256,int256)":"6fc94cfe","tenderCount()":"1f058776","tenders(uint256)":"465e1def","verifyAndReleaseFunds(uint256,bool,bool,bool)":"18d62eab","verifyGPS(uint256,int256,int256)":"0fef5be7"}}}}}